{
  "contractName": "MedicalData",
  "abi": [
    {
      "inputs": [],
      "stateMutability": "nonpayable",
      "type": "constructor"
    },
    {
      "inputs": [],
      "name": "approve",
      "outputs": [],
      "stateMutability": "nonpayable",
      "type": "function"
    },
    {
      "inputs": [],
      "name": "changeStatus",
      "outputs": [],
      "stateMutability": "nonpayable",
      "type": "function"
    },
    {
      "inputs": [],
      "name": "createMedicalData",
      "outputs": [],
      "stateMutability": "nonpayable",
      "type": "function"
    },
    {
      "inputs": [],
      "name": "editMedicalData",
      "outputs": [],
      "stateMutability": "nonpayable",
      "type": "function"
    },
    {
      "inputs": [],
      "name": "deleteMedicalData",
      "outputs": [],
      "stateMutability": "nonpayable",
      "type": "function"
    },
    {
      "inputs": [],
      "name": "selectMedicalData",
      "outputs": [],
      "stateMutability": "nonpayable",
      "type": "function"
    },
    {
      "inputs": [],
      "name": "selectPatientMedicalData",
      "outputs": [],
      "stateMutability": "nonpayable",
      "type": "function"
    }
  ],
  "bytecode": "0x608060405234801561001057600080fd5b5060f38061001f6000396000f3fe6080604052348015600f57600080fd5b506004361060725760003560e01c80633c48c1061160535780633c48c10614608f578063455ee8ff1460975780638cdca43314609f57806390c1e6381460a7576072565b8063085634ec14607757806312424e3f14607f5780631c7013b2146087575b600080fd5b607d60af565b005b608560b1565b005b608d60b3565b005b609560b5565b005b609d60b7565b005b60a560b9565b005b60ad60bb565b005b565b565b565b565b565b565b56fea26469706673582212209814e92eb31c93893c31ba9b20a2a1f3c5f0cde33ace5b9568bf721470a4cb8d64736f6c63430008000033",
  "immutableReferences": {},
  "source": "// SPDX-License-Identifier: MIT\npragma solidity >=0.8.0;\n\ncontract MedicalData {\n\n  // 医療機関に関する構造体の定義\n  struct MedicalInsData {\n    // 最終更新日時\n    uint256 lastUpdate;\n    // 最終更新医療機関(の先生)\n    string doctorName;\n  }\n\n  // 患者の医療データの構造体の定義\n  struct MedicalData {\n    // 患者名\n    string patientName;\n    // 血液型\n    string bloodType;\n    // 最終更新日時\n    string lastUpdate;\n    //  MedicalInsData型のデータ\n    MedicalInsData medicalInsData;\n  }\n\n  // 患者のアドレスと医療データを紐付けるMap\n  mapping (address => MedicalData) medicalMap;\n  // 医者のアドレスと名前を紐づけるMap\n  mapping (address => string) doctorMap;\n  // アドレスが医者であることを紐づけるMap\n  mapping (address => bool) doctorRoleMap;\n  // 医療機関に所属する医者のアドレスを格納する配列\n  address[] doctors;\n  // 患者のデータに対して医者側が閲覧権限を所有しているか保持するためのMap\n  mapping (address => mapping (address => bool)) approveMap;\n  // 患者のデータに対して医者側が閲覧権限を要求している状態を保持するためのMap\n  mapping (address => mapping (address => bool)) requireMap;\n\n  /**\n   * コンストラクター\n   */\n  constructor() public {\n  \n  }\n\n  /**\n   * 医者側に閲覧・編集権限を付与するメソッド\n   */\n  function approve() public {\n\n  }\n\n  /**\n   * 閲覧・編集権限を停止するメソッド\n   */\n  function changeStatus() public {\n\n  }\n\n  /**\n   * 医療データを新規で登録するメソッド\n   */\n  function createMedicalData() public {\n    // 医者であることの確認する。\n  }\n\n  /**\n   * 医療データを編集するメソッド\n   */\n  function editMedicalData() public {\n    // 医者であることを確認と患者から承認されているかを確認する。\n  }\n\n  /**\n   * 医療データを削除するメソッド\n   */\n  function deleteMedicalData() public {\n    // 医者であることを確認と患者から承認されているかを確認する。\n  }\n\n  /**\n   * 自分の医療データを取得するメソッド\n   */\n  function selectMedicalData() public {\n    \n  }\n\n  /**\n   * 患者の医療データを取得するメソッド\n   */\n  function selectPatientMedicalData() public {\n    \n  }\n}\n",
  "sourcePath": "/Users/harukikondo/git/Web3MedicalDApp/backend/contracts/MedicalData.sol",
  "compiler": {
    "name": "solc",
    "version": "0.8.0+commit.c7dfd78e.Emscripten.clang"
  },
  "schemaVersion": "3.4.4",
  "updatedAt": "2022-06-20T13:35:51.638Z",
  "devdoc": {
    "kind": "dev",
    "methods": {},
    "version": 1
  },
  "userdoc": {
    "kind": "user",
    "methods": {
      "approve()": {
        "notice": "医者側に閲覧・編集権限を付与するメソッド"
      },
      "changeStatus()": {
        "notice": "閲覧・編集権限を停止するメソッド"
      },
      "constructor": {
        "notice": "コンストラクター"
      },
      "createMedicalData()": {
        "notice": "医療データを新規で登録するメソッド"
      },
      "deleteMedicalData()": {
        "notice": "医療データを削除するメソッド"
      },
      "editMedicalData()": {
        "notice": "医療データを編集するメソッド"
      },
      "selectMedicalData()": {
        "notice": "自分の医療データを取得するメソッド"
      },
      "selectPatientMedicalData()": {
        "notice": "患者の医療データを取得するメソッド"
      }
    },
    "version": 1
  }
}