{
  "contractName": "ERC721Metadata",
  "abi": [
    {
      "inputs": [
        {
          "internalType": "string",
          "name": "named",
          "type": "string"
        },
        {
          "internalType": "string",
          "name": "symbolified",
          "type": "string"
        }
      ],
      "stateMutability": "nonpayable",
      "type": "constructor"
    },
    {
      "inputs": [
        {
          "internalType": "bytes4",
          "name": "interfaceId",
          "type": "bytes4"
        }
      ],
      "name": "supportsInterface",
      "outputs": [
        {
          "internalType": "bool",
          "name": "",
          "type": "bool"
        }
      ],
      "stateMutability": "view",
      "type": "function"
    },
    {
      "inputs": [],
      "name": "name",
      "outputs": [
        {
          "internalType": "string",
          "name": "",
          "type": "string"
        }
      ],
      "stateMutability": "view",
      "type": "function"
    },
    {
      "inputs": [],
      "name": "symbol",
      "outputs": [
        {
          "internalType": "string",
          "name": "",
          "type": "string"
        }
      ],
      "stateMutability": "view",
      "type": "function"
    }
  ],
  "bytecode": "0x608060405234801561001057600080fd5b506040516108163803806108168339818101604052810190610032919061022e565b6100837f13b182f4c0e5b2efbac0efe6cf6d756c8b89f4b79c5707a043ed9ea740574ee97f7feaf19471f34a12a7eaf32d5f3090aa2260ea8624dc8a138e74e0bf0f623076186100b960201b60201c565b50816000908051906020019061009a929190610123565b5080600190805190602001906100b1929190610123565b5050506103be565b60007f01ffc9a7000000000000000000000000000000000000000000000000000000007bffffffffffffffffffffffffffffffffffffffffffffffffffffffff1916827bffffffffffffffffffffffffffffffffffffffffffffffffffffffff1916149050919050565b82805461012f9061032e565b90600052602060002090601f0160209004810192826101515760008555610198565b82601f1061016a57805160ff1916838001178555610198565b82800160010185558215610198579182015b8281111561019757825182559160200191906001019061017c565b5b5090506101a591906101a9565b5090565b5b808211156101c25760008160009055506001016101aa565b5090565b60006101d96101d4846102cb565b61029a565b9050828152602081018484840111156101f157600080fd5b6101fc8482856102fb565b509392505050565b600082601f83011261021557600080fd5b81516102258482602086016101c6565b91505092915050565b6000806040838503121561024157600080fd5b600083015167ffffffffffffffff81111561025b57600080fd5b61026785828601610204565b925050602083015167ffffffffffffffff81111561028457600080fd5b61029085828601610204565b9150509250929050565b6000604051905081810181811067ffffffffffffffff821117156102c1576102c061038f565b5b8060405250919050565b600067ffffffffffffffff8211156102e6576102e561038f565b5b601f19601f8301169050602081019050919050565b60005b838110156103195780820151818401526020810190506102fe565b83811115610328576000848401525b50505050565b6000600282049050600182168061034657607f821691505b6020821081141561035a57610359610360565b5b50919050565b7f4e487b7100000000000000000000000000000000000000000000000000000000600052602260045260246000fd5b7f4e487b7100000000000000000000000000000000000000000000000000000000600052604160045260246000fd5b610449806103cd6000396000f3fe608060405234801561001057600080fd5b50600436106100415760003560e01c806301ffc9a71461004657806306fdde031461007657806395d89b4114610094575b600080fd5b610060600480360381019061005b9190610255565b6100b2565b60405161006d91906102c6565b60405180910390f35b61007e61011c565b60405161008b91906102e1565b60405180910390f35b61009c6101ae565b6040516100a991906102e1565b60405180910390f35b60007f01ffc9a7000000000000000000000000000000000000000000000000000000007bffffffffffffffffffffffffffffffffffffffffffffffffffffffff1916827bffffffffffffffffffffffffffffffffffffffffffffffffffffffff1916149050919050565b60606000805461012b9061038a565b80601f01602080910402602001604051908101604052809291908181526020018280546101579061038a565b80156101a45780601f10610179576101008083540402835291602001916101a4565b820191906000526020600020905b81548152906001019060200180831161018757829003601f168201915b5050505050905090565b6060600180546101bd9061038a565b80601f01602080910402602001604051908101604052809291908181526020018280546101e99061038a565b80156102365780601f1061020b57610100808354040283529160200191610236565b820191906000526020600020905b81548152906001019060200180831161021957829003601f168201915b5050505050905090565b60008135905061024f816103fc565b92915050565b60006020828403121561026757600080fd5b600061027584828501610240565b91505092915050565b6102878161031f565b82525050565b600061029882610303565b6102a2818561030e565b93506102b2818560208601610357565b6102bb816103eb565b840191505092915050565b60006020820190506102db600083018461027e565b92915050565b600060208201905081810360008301526102fb818461028d565b905092915050565b600081519050919050565b600082825260208201905092915050565b60008115159050919050565b60007fffffffff0000000000000000000000000000000000000000000000000000000082169050919050565b60005b8381101561037557808201518184015260208101905061035a565b83811115610384576000848401525b50505050565b600060028204905060018216806103a257607f821691505b602082108114156103b6576103b56103bc565b5b50919050565b7f4e487b7100000000000000000000000000000000000000000000000000000000600052602260045260246000fd5b6000601f19601f8301169050919050565b6104058161032b565b811461041057600080fd5b5056fea264697066735822122007374ab8dd5fccaf1a37e716b1a4e8aa326a5affad7ec9d446b558e59f26b20664736f6c63430008000033",
  "immutableReferences": {},
  "source": "// SPDX-License-Identifier: MIT\npragma solidity >=0.8.0;\n\nimport \"@openzeppelin/contracts/utils/introspection/ERC165.sol\";\n\n/**\n * ERC721Metadata\n */\ncontract ERC721Metadata is ERC165 {\n    string private _name;\n    string private _symbol;\n\n    /**\n     * \n     */\n    constructor(string memory named, string memory symbolified) {\n        supportsInterface(\n            bytes4(keccak256(\"name(bytes4)\") ^ keccak256(\"symbol(bytes4)\"))\n        );\n\n        _name = named;\n        _symbol = symbolified;\n    }\n\n    /**\n     * \n     */\n    function name() external view returns (string memory) {\n        return _name;\n    }\n\n    /**\n     * \n     */\n    function symbol() external view returns (string memory) {\n        return _symbol;\n    }\n}\n",
  "sourcePath": "/Users/harukikondo/git/Web3MedicalDApp/backend/contracts/ERC721Metadata.sol",
  "compiler": {
    "name": "solc",
    "version": "0.8.0+commit.c7dfd78e.Emscripten.clang"
  },
  "schemaVersion": "3.4.3",
  "updatedAt": "2022-07-02T08:47:09.861Z",
  "devdoc": {
    "kind": "dev",
    "methods": {
      "supportsInterface(bytes4)": {
        "details": "See {IERC165-supportsInterface}."
      }
    },
    "version": 1
  },
  "userdoc": {
    "kind": "user",
    "methods": {
      "constructor": {
        "notice": ""
      },
      "name()": {
        "notice": ""
      },
      "symbol()": {
        "notice": ""
      }
    },
    "notice": "ERC721Metadata",
    "version": 1
  }
}