{
  "contractName": "MedicalData",
  "abi": [
    {
      "inputs": [
        {
          "internalType": "address[]",
          "name": "_doctorAddrs",
          "type": "address[]"
        },
        {
          "internalType": "string[]",
          "name": "_doctorNames",
          "type": "string[]"
        }
      ],
      "stateMutability": "nonpayable",
      "type": "constructor"
    },
    {
      "anonymous": false,
      "inputs": [
        {
          "indexed": false,
          "internalType": "address",
          "name": "patient",
          "type": "address"
        },
        {
          "indexed": false,
          "internalType": "address",
          "name": "doctor",
          "type": "address"
        }
      ],
      "name": "Approved",
      "type": "event"
    },
    {
      "anonymous": false,
      "inputs": [
        {
          "indexed": false,
          "internalType": "address",
          "name": "patient",
          "type": "address"
        },
        {
          "indexed": false,
          "internalType": "address",
          "name": "doctor",
          "type": "address"
        }
      ],
      "name": "ChangedStatus",
      "type": "event"
    },
    {
      "anonymous": false,
      "inputs": [
        {
          "indexed": false,
          "internalType": "address",
          "name": "doctor",
          "type": "address"
        },
        {
          "indexed": false,
          "internalType": "address",
          "name": "patient",
          "type": "address"
        }
      ],
      "name": "ClaimedApprove",
      "type": "event"
    },
    {
      "anonymous": false,
      "inputs": [
        {
          "indexed": false,
          "internalType": "address",
          "name": "patientAddr",
          "type": "address"
        },
        {
          "indexed": false,
          "internalType": "string",
          "name": "patientName",
          "type": "string"
        },
        {
          "indexed": false,
          "internalType": "string",
          "name": "bloodType",
          "type": "string"
        },
        {
          "indexed": false,
          "internalType": "string",
          "name": "lastUpDate",
          "type": "string"
        },
        {
          "indexed": false,
          "internalType": "string",
          "name": "doctorName",
          "type": "string"
        }
      ],
      "name": "CreateMedicalData",
      "type": "event"
    },
    {
      "anonymous": false,
      "inputs": [
        {
          "indexed": false,
          "internalType": "address",
          "name": "patientAddr",
          "type": "address"
        }
      ],
      "name": "DeleteMedicalData",
      "type": "event"
    },
    {
      "anonymous": false,
      "inputs": [
        {
          "indexed": false,
          "internalType": "address",
          "name": "patientAddr",
          "type": "address"
        },
        {
          "indexed": false,
          "internalType": "string",
          "name": "patientName",
          "type": "string"
        },
        {
          "indexed": false,
          "internalType": "string",
          "name": "bloodType",
          "type": "string"
        },
        {
          "indexed": false,
          "internalType": "string",
          "name": "lastUpDate",
          "type": "string"
        },
        {
          "indexed": false,
          "internalType": "string",
          "name": "doctorName",
          "type": "string"
        }
      ],
      "name": "EditMedicalData",
      "type": "event"
    },
    {
      "anonymous": false,
      "inputs": [
        {
          "indexed": false,
          "internalType": "address",
          "name": "doctorAddress",
          "type": "address"
        },
        {
          "indexed": false,
          "internalType": "string",
          "name": "doctorName",
          "type": "string"
        }
      ],
      "name": "RegistedDoctor",
      "type": "event"
    },
    {
      "inputs": [
        {
          "internalType": "address",
          "name": "",
          "type": "address"
        },
        {
          "internalType": "address",
          "name": "",
          "type": "address"
        }
      ],
      "name": "approveMap",
      "outputs": [
        {
          "internalType": "bool",
          "name": "",
          "type": "bool"
        }
      ],
      "stateMutability": "view",
      "type": "function",
      "constant": true
    },
    {
      "inputs": [
        {
          "internalType": "address",
          "name": "",
          "type": "address"
        }
      ],
      "name": "doctorMap",
      "outputs": [
        {
          "internalType": "string",
          "name": "",
          "type": "string"
        }
      ],
      "stateMutability": "view",
      "type": "function",
      "constant": true
    },
    {
      "inputs": [
        {
          "internalType": "address",
          "name": "",
          "type": "address"
        }
      ],
      "name": "doctorRoleMap",
      "outputs": [
        {
          "internalType": "bool",
          "name": "",
          "type": "bool"
        }
      ],
      "stateMutability": "view",
      "type": "function",
      "constant": true
    },
    {
      "inputs": [
        {
          "internalType": "uint256",
          "name": "",
          "type": "uint256"
        }
      ],
      "name": "doctors",
      "outputs": [
        {
          "internalType": "address",
          "name": "",
          "type": "address"
        }
      ],
      "stateMutability": "view",
      "type": "function",
      "constant": true
    },
    {
      "inputs": [
        {
          "internalType": "address",
          "name": "",
          "type": "address"
        }
      ],
      "name": "medicalMap",
      "outputs": [
        {
          "internalType": "string",
          "name": "patientName",
          "type": "string"
        },
        {
          "internalType": "string",
          "name": "bloodType",
          "type": "string"
        },
        {
          "internalType": "string",
          "name": "lastUpdate",
          "type": "string"
        },
        {
          "components": [
            {
              "internalType": "string",
              "name": "lastUpdate",
              "type": "string"
            },
            {
              "internalType": "string",
              "name": "doctorName",
              "type": "string"
            }
          ],
          "internalType": "struct MedicalData.MedicalInsData",
          "name": "medicalInsData",
          "type": "tuple"
        }
      ],
      "stateMutability": "view",
      "type": "function",
      "constant": true
    },
    {
      "inputs": [],
      "name": "owner",
      "outputs": [
        {
          "internalType": "address",
          "name": "",
          "type": "address"
        }
      ],
      "stateMutability": "view",
      "type": "function",
      "constant": true
    },
    {
      "inputs": [
        {
          "internalType": "address",
          "name": "",
          "type": "address"
        },
        {
          "internalType": "address",
          "name": "",
          "type": "address"
        }
      ],
      "name": "requireMap",
      "outputs": [
        {
          "internalType": "bool",
          "name": "",
          "type": "bool"
        }
      ],
      "stateMutability": "view",
      "type": "function",
      "constant": true
    },
    {
      "inputs": [
        {
          "internalType": "address",
          "name": "doctor",
          "type": "address"
        }
      ],
      "name": "approve",
      "outputs": [],
      "stateMutability": "nonpayable",
      "type": "function"
    },
    {
      "inputs": [
        {
          "internalType": "address",
          "name": "doctor",
          "type": "address"
        }
      ],
      "name": "changeStatus",
      "outputs": [],
      "stateMutability": "nonpayable",
      "type": "function"
    },
    {
      "inputs": [
        {
          "internalType": "address",
          "name": "patient",
          "type": "address"
        }
      ],
      "name": "claimApprove",
      "outputs": [],
      "stateMutability": "nonpayable",
      "type": "function"
    },
    {
      "inputs": [
        {
          "internalType": "address",
          "name": "patientAddr",
          "type": "address"
        },
        {
          "internalType": "string",
          "name": "patientName",
          "type": "string"
        },
        {
          "internalType": "string",
          "name": "bloodType",
          "type": "string"
        },
        {
          "internalType": "string",
          "name": "lastUpDate",
          "type": "string"
        },
        {
          "internalType": "string",
          "name": "doctorName",
          "type": "string"
        }
      ],
      "name": "createMedicalData",
      "outputs": [],
      "stateMutability": "nonpayable",
      "type": "function"
    },
    {
      "inputs": [
        {
          "internalType": "address",
          "name": "patientAddr",
          "type": "address"
        },
        {
          "internalType": "string",
          "name": "patientName",
          "type": "string"
        },
        {
          "internalType": "string",
          "name": "bloodType",
          "type": "string"
        },
        {
          "internalType": "string",
          "name": "lastUpDate",
          "type": "string"
        },
        {
          "internalType": "string",
          "name": "doctorName",
          "type": "string"
        }
      ],
      "name": "editMedicalData",
      "outputs": [],
      "stateMutability": "nonpayable",
      "type": "function"
    },
    {
      "inputs": [
        {
          "internalType": "address",
          "name": "patient",
          "type": "address"
        }
      ],
      "name": "deleteMedicalData",
      "outputs": [],
      "stateMutability": "nonpayable",
      "type": "function"
    },
    {
      "inputs": [],
      "name": "selectMedicalData",
      "outputs": [
        {
          "components": [
            {
              "internalType": "string",
              "name": "patientName",
              "type": "string"
            },
            {
              "internalType": "string",
              "name": "bloodType",
              "type": "string"
            },
            {
              "internalType": "string",
              "name": "lastUpdate",
              "type": "string"
            },
            {
              "components": [
                {
                  "internalType": "string",
                  "name": "lastUpdate",
                  "type": "string"
                },
                {
                  "internalType": "string",
                  "name": "doctorName",
                  "type": "string"
                }
              ],
              "internalType": "struct MedicalData.MedicalInsData",
              "name": "medicalInsData",
              "type": "tuple"
            }
          ],
          "internalType": "struct MedicalData.PatientMedicalData",
          "name": "",
          "type": "tuple"
        }
      ],
      "stateMutability": "view",
      "type": "function",
      "constant": true
    },
    {
      "inputs": [
        {
          "internalType": "address",
          "name": "patient",
          "type": "address"
        }
      ],
      "name": "selectPatientMedicalData",
      "outputs": [
        {
          "components": [
            {
              "internalType": "string",
              "name": "patientName",
              "type": "string"
            },
            {
              "internalType": "string",
              "name": "bloodType",
              "type": "string"
            },
            {
              "internalType": "string",
              "name": "lastUpdate",
              "type": "string"
            },
            {
              "components": [
                {
                  "internalType": "string",
                  "name": "lastUpdate",
                  "type": "string"
                },
                {
                  "internalType": "string",
                  "name": "doctorName",
                  "type": "string"
                }
              ],
              "internalType": "struct MedicalData.MedicalInsData",
              "name": "medicalInsData",
              "type": "tuple"
            }
          ],
          "internalType": "struct MedicalData.PatientMedicalData",
          "name": "",
          "type": "tuple"
        }
      ],
      "stateMutability": "view",
      "type": "function",
      "constant": true
    },
    {
      "inputs": [
        {
          "internalType": "address",
          "name": "doctorAddress",
          "type": "address"
        },
        {
          "internalType": "string",
          "name": "doctorName",
          "type": "string"
        }
      ],
      "name": "registDoctor",
      "outputs": [],
      "stateMutability": "nonpayable",
      "type": "function"
    }
  ],
  "bytecode": "0x60806040523480156200001157600080fd5b506040516200326738038062003267833981810160405281019062000037919062000525565b336000806101000a81548173ffffffffffffffffffffffffffffffffffffffff021916908373ffffffffffffffffffffffffffffffffffffffff16021790555060005b8251811015620002af576001838281518110620000c0577f4e487b7100000000000000000000000000000000000000000000000000000000600052603260045260246000fd5b60200260200101519080600181540180825580915050600190039060005260206000200160009091909190916101000a81548173ffffffffffffffffffffffffffffffffffffffff021916908373ffffffffffffffffffffffffffffffffffffffff16021790555081818151811062000162577f4e487b7100000000000000000000000000000000000000000000000000000000600052603260045260246000fd5b602002602001015160036000858481518110620001a8577f4e487b7100000000000000000000000000000000000000000000000000000000600052603260045260246000fd5b602002602001015173ffffffffffffffffffffffffffffffffffffffff1673ffffffffffffffffffffffffffffffffffffffff1681526020019081526020016000209080519060200190620001ff929190620002b8565b5060016004600085848151811062000240577f4e487b7100000000000000000000000000000000000000000000000000000000600052603260045260246000fd5b602002602001015173ffffffffffffffffffffffffffffffffffffffff1673ffffffffffffffffffffffffffffffffffffffff16815260200190815260200160002060006101000a81548160ff0219169083151502179055508080620002a69062000707565b9150506200007a565b505050620007fc565b828054620002c690620006d1565b90600052602060002090601f016020900481019282620002ea576000855562000336565b82601f106200030557805160ff191683800117855562000336565b8280016001018555821562000336579182015b828111156200033557825182559160200191906001019062000318565b5b50905062000345919062000349565b5090565b5b80821115620003645760008160009055506001016200034a565b5090565b60006200037f6200037984620005cc565b62000598565b905080838252602082019050828560208602820111156200039f57600080fd5b60005b85811015620003d35781620003b8888262000487565b845260208401935060208301925050600181019050620003a2565b5050509392505050565b6000620003f4620003ee84620005fb565b62000598565b9050808382526020820190508260005b858110156200043857815185016200041d8882620004f8565b84526020840193506020830192505060018101905062000404565b5050509392505050565b60006200045962000453846200062a565b62000598565b9050828152602081018484840111156200047257600080fd5b6200047f8482856200069b565b509392505050565b6000815190506200049881620007e2565b92915050565b600082601f830112620004b057600080fd5b8151620004c284826020860162000368565b91505092915050565b600082601f830112620004dd57600080fd5b8151620004ef848260208601620003dd565b91505092915050565b600082601f8301126200050a57600080fd5b81516200051c84826020860162000442565b91505092915050565b600080604083850312156200053957600080fd5b600083015167ffffffffffffffff8111156200055457600080fd5b62000562858286016200049e565b925050602083015167ffffffffffffffff8111156200058057600080fd5b6200058e85828601620004cb565b9150509250929050565b6000604051905081810181811067ffffffffffffffff82111715620005c257620005c1620007b3565b5b8060405250919050565b600067ffffffffffffffff821115620005ea57620005e9620007b3565b5b602082029050602081019050919050565b600067ffffffffffffffff821115620006195762000618620007b3565b5b602082029050602081019050919050565b600067ffffffffffffffff821115620006485762000647620007b3565b5b601f19601f8301169050602081019050919050565b60006200066a8262000671565b9050919050565b600073ffffffffffffffffffffffffffffffffffffffff82169050919050565b6000819050919050565b60005b83811015620006bb5780820151818401526020810190506200069e565b83811115620006cb576000848401525b50505050565b60006002820490506001821680620006ea57607f821691505b6020821081141562000701576200070062000784565b5b50919050565b6000620007148262000691565b91507fffffffffffffffffffffffffffffffffffffffffffffffffffffffffffffffff8214156200074a576200074962000755565b5b600182019050919050565b7f4e487b7100000000000000000000000000000000000000000000000000000000600052601160045260246000fd5b7f4e487b7100000000000000000000000000000000000000000000000000000000600052602260045260246000fd5b7f4e487b7100000000000000000000000000000000000000000000000000000000600052604160045260246000fd5b620007ed816200065d565b8114620007f957600080fd5b50565b612a5b806200080c6000396000f3fe608060405234801561001057600080fd5b50600436106101005760003560e01c80637f24710a1161009757806394b502d11161006657806394b502d1146102d1578063d1229aee146102ed578063daea85c514610309578063fd61bd921461032557610100565b80637f24710a146102495780638200a966146102795780638da5cb5b1461029557806390c1e638146102b357610100565b80636aa3f233116100d35780636aa3f2331461019d5780636efb1b84146101cd5780636f8eecfd146101fd578063794e217d1461021957610100565b80631fe51d90146101055780633b6d93901461013557806346ba4ceb146101655780635d2ec7cf14610181575b600080fd5b61011f600480360381019061011a91906120eb565b610358565b60405161012c9190612686565b60405180910390f35b61014f600480360381019061014a91906120c2565b610387565b60405161015c91906126a1565b60405180910390f35b61017f600480360381019061017a919061217b565b610427565b005b61019b600480360381019061019691906120c2565b61061f565b005b6101b760048036038101906101b291906120c2565b610783565b6040516101c49190612686565b60405180910390f35b6101e760048036038101906101e29190612252565b6107a3565b6040516101f491906125a3565b60405180910390f35b610217600480360381019061021291906120c2565b6107e2565b005b610233600480360381019061022e91906120eb565b610946565b6040516102409190612686565b60405180910390f35b610263600480360381019061025e91906120c2565b610975565b60405161027091906127a4565b60405180910390f35b610293600480360381019061028e9190612127565b610e21565b005b61029d610ffb565b6040516102aa91906125a3565b60405180910390f35b6102bb61101f565b6040516102c891906127a4565b60405180910390f35b6102eb60048036038101906102e6919061217b565b6113f7565b005b610307600480360381019061030291906120c2565b6116c1565b005b610323600480360381019061031e91906120c2565b611a16565b005b61033f600480360381019061033a91906120c2565b611c0f565b60405161034f94939291906126c3565b60405180910390f35b60056020528160005260406000206020528060005260406000206000915091509054906101000a900460ff1681565b600360205280600052604060002060009150905080546103a6906128de565b80601f01602080910402602001604051908101604052809291908181526020018280546103d2906128de565b801561041f5780601f106103f45761010080835404028352916020019161041f565b820191906000526020600020905b81548152906001019060200180831161040257829003601f168201915b505050505081565b60011515600460003373ffffffffffffffffffffffffffffffffffffffff1673ffffffffffffffffffffffffffffffffffffffff16815260200190815260200160002060009054906101000a900460ff161515146104ba576040517f08c379a00000000000000000000000000000000000000000000000000000000081526004016104b190612724565b60405180910390fd5b600060405180604001604052808481526020018381525090506000604051806080016040528087815260200186815260200185815260200183815250905080600260008973ffffffffffffffffffffffffffffffffffffffff1673ffffffffffffffffffffffffffffffffffffffff1681526020019081526020016000206000820151816000019080519060200190610554929190611f05565b506020820151816001019080519060200190610571929190611f05565b50604082015181600201908051906020019061058e929190611f05565b5060608201518160030160008201518160000190805190602001906105b4929190611f05565b5060208201518160010190805190602001906105d1929190611f05565b5050509050507f36d37aa514b1c78519f8a61a0ebc1d8a75a95150d9ba9f33d4656f5be7ece175878787878760405161060e959493929190612617565b60405180910390a150505050505050565b60011515600460003373ffffffffffffffffffffffffffffffffffffffff1673ffffffffffffffffffffffffffffffffffffffff16815260200190815260200160002060009054906101000a900460ff161515146106b2576040517f08c379a00000000000000000000000000000000000000000000000000000000081526004016106a990612724565b60405180910390fd5b6001600660003373ffffffffffffffffffffffffffffffffffffffff1673ffffffffffffffffffffffffffffffffffffffff16815260200190815260200160002060008373ffffffffffffffffffffffffffffffffffffffff1673ffffffffffffffffffffffffffffffffffffffff16815260200190815260200160002060006101000a81548160ff0219169083151502179055507fcbe9b38decde986abb73b6b7886822d593acaf5c22aaa47e3360ce71f2602bf233826040516107789291906125be565b60405180910390a150565b60046020528060005260406000206000915054906101000a900460ff1681565b600181815481106107b357600080fd5b906000526020600020016000915054906101000a900473ffffffffffffffffffffffffffffffffffffffff1681565b60001515600460003373ffffffffffffffffffffffffffffffffffffffff1673ffffffffffffffffffffffffffffffffffffffff16815260200190815260200160002060009054906101000a900460ff16151514610875576040517f08c379a000000000000000000000000000000000000000000000000000000000815260040161086c90612764565b60405180910390fd5b6000600560003373ffffffffffffffffffffffffffffffffffffffff1673ffffffffffffffffffffffffffffffffffffffff16815260200190815260200160002060008373ffffffffffffffffffffffffffffffffffffffff1673ffffffffffffffffffffffffffffffffffffffff16815260200190815260200160002060006101000a81548160ff0219169083151502179055507f8730e7f2743238cf595c2a262e2b3e6d4475c7170f64568864954543d4443e5e338260405161093b9291906125be565b60405180910390a150565b60066020528160005260406000206020528060005260406000206000915091509054906101000a900460ff1681565b61097d611f8b565b60011515600460003373ffffffffffffffffffffffffffffffffffffffff1673ffffffffffffffffffffffffffffffffffffffff16815260200190815260200160002060009054906101000a900460ff16151514610a10576040517f08c379a0000000000000000000000000000000000000000000000000000000008152600401610a0790612724565b60405180910390fd5b8160011515600560008373ffffffffffffffffffffffffffffffffffffffff1673ffffffffffffffffffffffffffffffffffffffff16815260200190815260200160002060003373ffffffffffffffffffffffffffffffffffffffff1673ffffffffffffffffffffffffffffffffffffffff16815260200190815260200160002060009054906101000a900460ff16151514610ae1576040517f08c379a0000000000000000000000000000000000000000000000000000000008152600401610ad890612744565b60405180910390fd5b600260008473ffffffffffffffffffffffffffffffffffffffff1673ffffffffffffffffffffffffffffffffffffffff168152602001908152602001600020604051806080016040529081600082018054610b3b906128de565b80601f0160208091040260200160405190810160405280929190818152602001828054610b67906128de565b8015610bb45780601f10610b8957610100808354040283529160200191610bb4565b820191906000526020600020905b815481529060010190602001808311610b9757829003601f168201915b50505050508152602001600182018054610bcd906128de565b80601f0160208091040260200160405190810160405280929190818152602001828054610bf9906128de565b8015610c465780601f10610c1b57610100808354040283529160200191610c46565b820191906000526020600020905b815481529060010190602001808311610c2957829003601f168201915b50505050508152602001600282018054610c5f906128de565b80601f0160208091040260200160405190810160405280929190818152602001828054610c8b906128de565b8015610cd85780601f10610cad57610100808354040283529160200191610cd8565b820191906000526020600020905b815481529060010190602001808311610cbb57829003601f168201915b5050505050815260200160038201604051806040016040529081600082018054610d01906128de565b80601f0160208091040260200160405190810160405280929190818152602001828054610d2d906128de565b8015610d7a5780601f10610d4f57610100808354040283529160200191610d7a565b820191906000526020600020905b815481529060010190602001808311610d5d57829003601f168201915b50505050508152602001600182018054610d93906128de565b80601f0160208091040260200160405190810160405280929190818152602001828054610dbf906128de565b8015610e0c5780601f10610de157610100808354040283529160200191610e0c565b820191906000526020600020905b815481529060010190602001808311610def57829003601f168201915b50505050508152505081525050915050919050565b3373ffffffffffffffffffffffffffffffffffffffff1660008054906101000a900473ffffffffffffffffffffffffffffffffffffffff1673ffffffffffffffffffffffffffffffffffffffff1614610eaf576040517f08c379a0000000000000000000000000000000000000000000000000000000008152600401610ea690612784565b60405180910390fd5b6001829080600181540180825580915050600190039060005260206000200160009091909190916101000a81548173ffffffffffffffffffffffffffffffffffffffff021916908373ffffffffffffffffffffffffffffffffffffffff16021790555080600360008473ffffffffffffffffffffffffffffffffffffffff1673ffffffffffffffffffffffffffffffffffffffff1681526020019081526020016000209080519060200190610f65929190611f05565b506001600460008473ffffffffffffffffffffffffffffffffffffffff1673ffffffffffffffffffffffffffffffffffffffff16815260200190815260200160002060006101000a81548160ff0219169083151502179055507f61bcd75d1ded61d8234e3d22b69fe8e58b0dfcd033d15ed609be8a58c785f4638282604051610fef9291906125e7565b60405180910390a15050565b60008054906101000a900473ffffffffffffffffffffffffffffffffffffffff1681565b611027611f8b565b60001515600460003373ffffffffffffffffffffffffffffffffffffffff1673ffffffffffffffffffffffffffffffffffffffff16815260200190815260200160002060009054906101000a900460ff161515146110ba576040517f08c379a00000000000000000000000000000000000000000000000000000000081526004016110b190612764565b60405180910390fd5b600260003373ffffffffffffffffffffffffffffffffffffffff1673ffffffffffffffffffffffffffffffffffffffff168152602001908152602001600020604051806080016040529081600082018054611114906128de565b80601f0160208091040260200160405190810160405280929190818152602001828054611140906128de565b801561118d5780601f106111625761010080835404028352916020019161118d565b820191906000526020600020905b81548152906001019060200180831161117057829003601f168201915b505050505081526020016001820180546111a6906128de565b80601f01602080910402602001604051908101604052809291908181526020018280546111d2906128de565b801561121f5780601f106111f45761010080835404028352916020019161121f565b820191906000526020600020905b81548152906001019060200180831161120257829003601f168201915b50505050508152602001600282018054611238906128de565b80601f0160208091040260200160405190810160405280929190818152602001828054611264906128de565b80156112b15780601f10611286576101008083540402835291602001916112b1565b820191906000526020600020905b81548152906001019060200180831161129457829003601f168201915b50505050508152602001600382016040518060400160405290816000820180546112da906128de565b80601f0160208091040260200160405190810160405280929190818152602001828054611306906128de565b80156113535780601f1061132857610100808354040283529160200191611353565b820191906000526020600020905b81548152906001019060200180831161133657829003601f168201915b5050505050815260200160018201805461136c906128de565b80601f0160208091040260200160405190810160405280929190818152602001828054611398906128de565b80156113e55780601f106113ba576101008083540402835291602001916113e5565b820191906000526020600020905b8154815290600101906020018083116113c857829003601f168201915b50505050508152505081525050905090565b60011515600460003373ffffffffffffffffffffffffffffffffffffffff1673ffffffffffffffffffffffffffffffffffffffff16815260200190815260200160002060009054906101000a900460ff1615151461148a576040517f08c379a000000000000000000000000000000000000000000000000000000000815260040161148190612724565b60405180910390fd5b8460011515600560008373ffffffffffffffffffffffffffffffffffffffff1673ffffffffffffffffffffffffffffffffffffffff16815260200190815260200160002060003373ffffffffffffffffffffffffffffffffffffffff1673ffffffffffffffffffffffffffffffffffffffff16815260200190815260200160002060009054906101000a900460ff1615151461155b576040517f08c379a000000000000000000000000000000000000000000000000000000000815260040161155290612744565b60405180910390fd5b600060405180604001604052808581526020018481525090506000604051806080016040528088815260200187815260200186815260200183815250905080600260008a73ffffffffffffffffffffffffffffffffffffffff1673ffffffffffffffffffffffffffffffffffffffff16815260200190815260200160002060008201518160000190805190602001906115f5929190611f05565b506020820151816001019080519060200190611612929190611f05565b50604082015181600201908051906020019061162f929190611f05565b506060820151816003016000820151816000019080519060200190611655929190611f05565b506020820151816001019080519060200190611672929190611f05565b5050509050507f3a9d2e3abbf1feead8ea242e633e03e77bac21532996e4e5c475451da77c87b388888888886040516116af959493929190612617565b60405180910390a15050505050505050565b60011515600460003373ffffffffffffffffffffffffffffffffffffffff1673ffffffffffffffffffffffffffffffffffffffff16815260200190815260200160002060009054906101000a900460ff16151514611754576040517f08c379a000000000000000000000000000000000000000000000000000000000815260040161174b90612724565b60405180910390fd5b8060011515600560008373ffffffffffffffffffffffffffffffffffffffff1673ffffffffffffffffffffffffffffffffffffffff16815260200190815260200160002060003373ffffffffffffffffffffffffffffffffffffffff1673ffffffffffffffffffffffffffffffffffffffff16815260200190815260200160002060009054906101000a900460ff16151514611825576040517f08c379a000000000000000000000000000000000000000000000000000000000815260040161181c90612744565b60405180910390fd5b600260008373ffffffffffffffffffffffffffffffffffffffff1673ffffffffffffffffffffffffffffffffffffffff168152602001908152602001600020600080820160006118759190611fb9565b6001820160006118859190611fb9565b6002820160006118959190611fb9565b60038201600080820160006118aa9190611fb9565b6001820160006118ba9190611fb9565b5050505060005b6001805490508110156119da576000600560008573ffffffffffffffffffffffffffffffffffffffff1673ffffffffffffffffffffffffffffffffffffffff16815260200190815260200160002060006001848154811061194b577f4e487b7100000000000000000000000000000000000000000000000000000000600052603260045260246000fd5b9060005260206000200160009054906101000a900473ffffffffffffffffffffffffffffffffffffffff1673ffffffffffffffffffffffffffffffffffffffff1673ffffffffffffffffffffffffffffffffffffffff16815260200190815260200160002060006101000a81548160ff02191690831515021790555080806119d290612910565b9150506118c1565b507fd7753f3b8a7bd1cdece74a0a97a24e6418c57a841e5607d0fecdff37cd358dbd82604051611a0a91906125a3565b60405180910390a15050565b60001515600460003373ffffffffffffffffffffffffffffffffffffffff1673ffffffffffffffffffffffffffffffffffffffff16815260200190815260200160002060009054906101000a900460ff16151514611aa9576040517f08c379a0000000000000000000000000000000000000000000000000000000008152600401611aa090612764565b60405180910390fd5b6001600560003373ffffffffffffffffffffffffffffffffffffffff1673ffffffffffffffffffffffffffffffffffffffff16815260200190815260200160002060008373ffffffffffffffffffffffffffffffffffffffff1673ffffffffffffffffffffffffffffffffffffffff16815260200190815260200160002060006101000a81548160ff0219169083151502179055506000600660008373ffffffffffffffffffffffffffffffffffffffff1673ffffffffffffffffffffffffffffffffffffffff16815260200190815260200160002060003373ffffffffffffffffffffffffffffffffffffffff1673ffffffffffffffffffffffffffffffffffffffff16815260200190815260200160002060006101000a81548160ff0219169083151502179055507faad2833c9fd7a3de33f301e5186ee84d1a5753ce32de6b97baedaac4b92b55fc3382604051611c049291906125be565b60405180910390a150565b6002602052806000526040600020600091509050806000018054611c32906128de565b80601f0160208091040260200160405190810160405280929190818152602001828054611c5e906128de565b8015611cab5780601f10611c8057610100808354040283529160200191611cab565b820191906000526020600020905b815481529060010190602001808311611c8e57829003601f168201915b505050505090806001018054611cc0906128de565b80601f0160208091040260200160405190810160405280929190818152602001828054611cec906128de565b8015611d395780601f10611d0e57610100808354040283529160200191611d39565b820191906000526020600020905b815481529060010190602001808311611d1c57829003601f168201915b505050505090806002018054611d4e906128de565b80601f0160208091040260200160405190810160405280929190818152602001828054611d7a906128de565b8015611dc75780601f10611d9c57610100808354040283529160200191611dc7565b820191906000526020600020905b815481529060010190602001808311611daa57829003601f168201915b50505050509080600301604051806040016040529081600082018054611dec906128de565b80601f0160208091040260200160405190810160405280929190818152602001828054611e18906128de565b8015611e655780601f10611e3a57610100808354040283529160200191611e65565b820191906000526020600020905b815481529060010190602001808311611e4857829003601f168201915b50505050508152602001600182018054611e7e906128de565b80601f0160208091040260200160405190810160405280929190818152602001828054611eaa906128de565b8015611ef75780601f10611ecc57610100808354040283529160200191611ef7565b820191906000526020600020905b815481529060010190602001808311611eda57829003601f168201915b505050505081525050905084565b828054611f11906128de565b90600052602060002090601f016020900481019282611f335760008555611f7a565b82601f10611f4c57805160ff1916838001178555611f7a565b82800160010185558215611f7a579182015b82811115611f79578251825591602001919060010190611f5e565b5b509050611f879190611ff9565b5090565b6040518060800160405280606081526020016060815260200160608152602001611fb3612016565b81525090565b508054611fc5906128de565b6000825580601f10611fd75750611ff6565b601f016020900490600052602060002090810190611ff59190611ff9565b5b50565b5b80821115612012576000816000905550600101611ffa565b5090565b604051806040016040528060608152602001606081525090565b600061204361203e846127f7565b6127c6565b90508281526020810184848401111561205b57600080fd5b61206684828561289c565b509392505050565b60008135905061207d816129f7565b92915050565b600082601f83011261209457600080fd5b81356120a4848260208601612030565b91505092915050565b6000813590506120bc81612a0e565b92915050565b6000602082840312156120d457600080fd5b60006120e28482850161206e565b91505092915050565b600080604083850312156120fe57600080fd5b600061210c8582860161206e565b925050602061211d8582860161206e565b9150509250929050565b6000806040838503121561213a57600080fd5b60006121488582860161206e565b925050602083013567ffffffffffffffff81111561216557600080fd5b61217185828601612083565b9150509250929050565b600080600080600060a0868803121561219357600080fd5b60006121a18882890161206e565b955050602086013567ffffffffffffffff8111156121be57600080fd5b6121ca88828901612083565b945050604086013567ffffffffffffffff8111156121e757600080fd5b6121f388828901612083565b935050606086013567ffffffffffffffff81111561221057600080fd5b61221c88828901612083565b925050608086013567ffffffffffffffff81111561223957600080fd5b61224588828901612083565b9150509295509295909350565b60006020828403121561226457600080fd5b6000612272848285016120ad565b91505092915050565b61228481612854565b82525050565b61229381612866565b82525050565b60006122a482612827565b6122ae8185612832565b93506122be8185602086016128ab565b6122c7816129e6565b840191505092915050565b60006122dd82612827565b6122e78185612843565b93506122f78185602086016128ab565b612300816129e6565b840191505092915050565b6000612318602383612843565b91507f6d73672e73656e64646572206d757374206861766520646f63746f7220726f6c60008301527f65212100000000000000000000000000000000000000000000000000000000006020830152604082019050919050565b600061237e602183612843565b91507f796f75206d75737420626520617070726f7665642062792070617469656e742160008301527f21000000000000000000000000000000000000000000000000000000000000006020830152604082019050919050565b60006123e4602483612843565b91507f6d73672e73656e64646572206d75737420686176652070617469656e7420726f60008301527f6c652121000000000000000000000000000000000000000000000000000000006020830152604082019050919050565b600061244a602583612843565b91507f6d73672e73656e646572206d757374206265206f776e6572277320616464726560008301527f73732021210000000000000000000000000000000000000000000000000000006020830152604082019050919050565b600060408301600083015184820360008601526124c08282612299565b915050602083015184820360208601526124da8282612299565b9150508091505092915050565b600060408301600083015184820360008601526125048282612299565b9150506020830151848203602086015261251e8282612299565b9150508091505092915050565b600060808301600083015184820360008601526125488282612299565b915050602083015184820360208601526125628282612299565b9150506040830151848203604086015261257c8282612299565b9150506060830151848203606086015261259682826124a3565b9150508091505092915050565b60006020820190506125b8600083018461227b565b92915050565b60006040820190506125d3600083018561227b565b6125e0602083018461227b565b9392505050565b60006040820190506125fc600083018561227b565b818103602083015261260e81846122d2565b90509392505050565b600060a08201905061262c600083018861227b565b818103602083015261263e81876122d2565b9050818103604083015261265281866122d2565b9050818103606083015261266681856122d2565b9050818103608083015261267a81846122d2565b90509695505050505050565b600060208201905061269b600083018461228a565b92915050565b600060208201905081810360008301526126bb81846122d2565b905092915050565b600060808201905081810360008301526126dd81876122d2565b905081810360208301526126f181866122d2565b9050818103604083015261270581856122d2565b9050818103606083015261271981846124e7565b905095945050505050565b6000602082019050818103600083015261273d8161230b565b9050919050565b6000602082019050818103600083015261275d81612371565b9050919050565b6000602082019050818103600083015261277d816123d7565b9050919050565b6000602082019050818103600083015261279d8161243d565b9050919050565b600060208201905081810360008301526127be818461252b565b905092915050565b6000604051905081810181811067ffffffffffffffff821117156127ed576127ec6129b7565b5b8060405250919050565b600067ffffffffffffffff821115612812576128116129b7565b5b601f19601f8301169050602081019050919050565b600081519050919050565b600082825260208201905092915050565b600082825260208201905092915050565b600061285f82612872565b9050919050565b60008115159050919050565b600073ffffffffffffffffffffffffffffffffffffffff82169050919050565b6000819050919050565b82818337600083830152505050565b60005b838110156128c95780820151818401526020810190506128ae565b838111156128d8576000848401525b50505050565b600060028204905060018216806128f657607f821691505b6020821081141561290a57612909612988565b5b50919050565b600061291b82612892565b91507fffffffffffffffffffffffffffffffffffffffffffffffffffffffffffffffff82141561294e5761294d612959565b5b600182019050919050565b7f4e487b7100000000000000000000000000000000000000000000000000000000600052601160045260246000fd5b7f4e487b7100000000000000000000000000000000000000000000000000000000600052602260045260246000fd5b7f4e487b7100000000000000000000000000000000000000000000000000000000600052604160045260246000fd5b6000601f19601f8301169050919050565b612a0081612854565b8114612a0b57600080fd5b50565b612a1781612892565b8114612a2257600080fd5b5056fea2646970667358221220ad21378789704a6308aaf42975898ed0a16bffb6a77bd8972d0073783bbb979664736f6c63430008000033",
  "immutableReferences": {},
  "source": "// SPDX-License-Identifier: MIT\npragma solidity >=0.8.0;\n\ncontract MedicalData {\n\n  // \n  struct MedicalInsData {\n    // \n    string lastUpdate;\n    // ()\n    string doctorName;\n  }\n\n  // \n  struct PatientMedicalData {\n    // \n    string patientName;\n    // \n    string bloodType;\n    // \n    string lastUpdate;\n    //  MedicalInsData\n    MedicalInsData medicalInsData;\n  }\n\n  // \n  address public owner;\n  // \n  address[] public doctors;\n  // Map\n  mapping (address => PatientMedicalData) public medicalMap;\n  // Map\n  mapping (address => string) public doctorMap;\n  // Map\n  mapping (address => bool) public doctorRoleMap;\n  // Map\n  mapping (address => mapping (address => bool)) public approveMap;\n  // Map\n  mapping (address => mapping (address => bool)) public requireMap;\n\n  // \n  modifier onlyPatient() {\n    require(doctorRoleMap[msg.sender] == false, \"msg.sendder must have patient role!!\");\n    _;\n  }\n\n  // \n  modifier onlyDoctor() {\n    require(doctorRoleMap[msg.sender] == true, \"msg.sendder must have doctor role!!\");\n    _;\n  }\n\n  // owner\n  modifier onlyOwner() {\n    require(owner == msg.sender, \"msg.sender must be owner's address !!\");\n    _;\n  }\n\n  // \n  modifier isApproved(address patient) {\n    require(approveMap[patient][msg.sender] == true, \"you must be approved by patient!!\");\n    _;\n  }\n\n  // \n  event Approved(address patient, address doctor);\n  event ChangedStatus(address patient, address doctor);\n  event RegistedDoctor(address doctorAddress, string doctorName);\n  event ClaimedApprove(address doctor, address patient);\n  event CreateMedicalData(address patientAddr, string patientName, string bloodType, string lastUpDate, string doctorName);\n  event EditMedicalData(address patientAddr, string patientName, string bloodType, string lastUpDate, string doctorName);\n  event DeleteMedicalData(address patientAddr);\n\n  /**\n   * \n   * @param _doctorAddrs \n   * @param _doctorNames \n   */\n  constructor(address[] memory _doctorAddrs, string[] memory _doctorNames) public {\n    // owner\n    owner = msg.sender;\n\n    for(uint i = 0; i < _doctorAddrs.length; i++) {\n      // \n      doctors.push(_doctorAddrs[i]);\n      // \n      doctorMap[_doctorAddrs[i]] = _doctorNames[i];\n      // \n      doctorRoleMap[_doctorAddrs[i]] = true;\n    }\n  }\n\n  /**\n   * \n   * @param doctor \n   */\n  function approve(address doctor) public onlyPatient {\n    // \n    approveMap[msg.sender][doctor] = true;\n    // false\n    requireMap[doctor][msg.sender] = false;\n\n    emit Approved(msg.sender, doctor);\n  }\n\n  /**\n   * \n   * @param doctor \n   */\n  function changeStatus(address doctor) public onlyPatient {\n    // \n    approveMap[msg.sender][doctor] = false;\n\n    emit ChangedStatus(msg.sender, doctor);\n  }\n\n  /**\n   * \n   * @param patient \n   */\n  function claimApprove(address patient) public onlyDoctor {\n    // \n    requireMap[msg.sender][patient] = true;\n\n    emit ClaimedApprove(msg.sender, patient);\n  }\n\n  /**\n   * \n   * @param patientAddr \n   * @param patientName \n   * @param bloodType \n   * @param lastUpDate \n   * @param doctorName ()\n   */\n  function createMedicalData(\n    address patientAddr,\n    string memory patientName, \n    string memory bloodType,\n    string memory lastUpDate,\n    string memory doctorName\n  ) public onlyDoctor {\n\n    // Struct\n    MedicalInsData memory medicalInsData = MedicalInsData(lastUpDate, doctorName);\n    // Struct\n    PatientMedicalData memory patientMedicalData = PatientMedicalData(patientName, bloodType, lastUpDate, medicalInsData);\n    // \n    medicalMap[patientAddr] = patientMedicalData;\n\n    emit CreateMedicalData(patientAddr, patientName, bloodType, lastUpDate, doctorName);\n  }\n \n  /**\n   * \n   * @param patientAddr \n   * @param patientName \n   * @param bloodType \n   * @param lastUpDate \n   * @param doctorName ()\n   */\n  function editMedicalData(\n    address patientAddr,\n    string memory patientName, \n    string memory bloodType,\n    string memory lastUpDate,\n    string memory doctorName\n  ) public onlyDoctor isApproved(patientAddr) {\n    // Struct\n    MedicalInsData memory newMedicalInsData = MedicalInsData(lastUpDate, doctorName);\n    // Struct\n    PatientMedicalData memory newPatientMedicalData = PatientMedicalData(patientName, bloodType, lastUpDate, newMedicalInsData);\n    // ()\n    medicalMap[patientAddr] = newPatientMedicalData;\n\n    emit EditMedicalData(patientAddr, patientName, bloodType, lastUpDate, doctorName);\n  }\n\n  /**\n   * \n   * @param patient \n   */\n  function deleteMedicalData(address patient) public onlyDoctor isApproved(patient) {\n    // \n    delete medicalMap[patient];\n    // \n    for(uint i = 0; i < doctors.length; i++) {\n      approveMap[patient][doctors[i]] = false;\n    }\n\n    emit DeleteMedicalData(patient);\n  }\n\n  /**\n   * \n   \n   */\n  function selectMedicalData() public view onlyPatient returns (PatientMedicalData memory) {\n    // \n    return medicalMap[msg.sender];\n  }\n\n  /**\n   * \n   * @param patient \n   */\n  function selectPatientMedicalData(address patient) \n    public \n    view \n    onlyDoctor \n    isApproved(patient)\n    returns (PatientMedicalData memory) \n  {\n    // \n    return medicalMap[patient];\n  }\n\n  /**\n   * \n   * @param doctorAddress \n   * @param doctorName \n   */\n  function registDoctor(address doctorAddress, string memory doctorName) public onlyOwner {\n    // \n    doctors.push(doctorAddress);\n    // \n    doctorMap[doctorAddress] = doctorName;\n    // \n    doctorRoleMap[doctorAddress] = true;\n\n    emit RegistedDoctor(doctorAddress, doctorName);\n  }\n}\n",
  "sourcePath": "/Users/harukikondo/git/Web3MedicalDApp/backend/contracts/MedicalData.sol",
  "compiler": {
    "name": "solc",
    "version": "0.8.0+commit.c7dfd78e.Emscripten.clang"
  },
  "schemaVersion": "3.4.4",
  "updatedAt": "2022-06-23T06:27:20.394Z",
  "networkType": "ethereum",
  "devdoc": {
    "kind": "dev",
    "methods": {
      "approve(address)": {
        "params": {
          "doctor": ""
        }
      },
      "changeStatus(address)": {
        "params": {
          "doctor": ""
        }
      },
      "claimApprove(address)": {
        "params": {
          "patient": ""
        }
      },
      "constructor": {
        "params": {
          "_doctorAddrs": "",
          "_doctorNames": ""
        }
      },
      "createMedicalData(address,string,string,string,string)": {
        "params": {
          "bloodType": "",
          "doctorName": "()",
          "lastUpDate": "",
          "patientAddr": "",
          "patientName": ""
        }
      },
      "deleteMedicalData(address)": {
        "params": {
          "patient": ""
        }
      },
      "editMedicalData(address,string,string,string,string)": {
        "params": {
          "bloodType": "",
          "doctorName": "()",
          "lastUpDate": "",
          "patientAddr": "",
          "patientName": ""
        }
      },
      "registDoctor(address,string)": {
        "params": {
          "doctorAddress": "",
          "doctorName": ""
        }
      },
      "selectPatientMedicalData(address)": {
        "params": {
          "patient": ""
        }
      }
    },
    "version": 1
  },
  "userdoc": {
    "kind": "user",
    "methods": {
      "approve(address)": {
        "notice": ""
      },
      "changeStatus(address)": {
        "notice": ""
      },
      "claimApprove(address)": {
        "notice": ""
      },
      "constructor": {
        "notice": ""
      },
      "createMedicalData(address,string,string,string,string)": {
        "notice": ""
      },
      "deleteMedicalData(address)": {
        "notice": ""
      },
      "editMedicalData(address,string,string,string,string)": {
        "notice": ""
      },
      "registDoctor(address,string)": {
        "notice": ""
      },
      "selectMedicalData()": {
        "notice": ""
      },
      "selectPatientMedicalData(address)": {
        "notice": ""
      }
    },
    "version": 1
  }
}