{
  "contractName": "MedicalData",
  "abi": [
    {
      "inputs": [
        {
          "internalType": "address[]",
          "name": "_doctorAddrs",
          "type": "address[]"
        },
        {
          "internalType": "string[]",
          "name": "_doctorNames",
          "type": "string[]"
        }
      ],
      "stateMutability": "nonpayable",
      "type": "constructor"
    },
    {
      "anonymous": false,
      "inputs": [
        {
          "indexed": false,
          "internalType": "address",
          "name": "patient",
          "type": "address"
        },
        {
          "indexed": false,
          "internalType": "address",
          "name": "doctor",
          "type": "address"
        }
      ],
      "name": "Approved",
      "type": "event"
    },
    {
      "anonymous": false,
      "inputs": [
        {
          "indexed": false,
          "internalType": "address",
          "name": "patient",
          "type": "address"
        },
        {
          "indexed": false,
          "internalType": "address",
          "name": "doctor",
          "type": "address"
        }
      ],
      "name": "ChangedStatus",
      "type": "event"
    },
    {
      "anonymous": false,
      "inputs": [
        {
          "indexed": false,
          "internalType": "address",
          "name": "doctor",
          "type": "address"
        },
        {
          "indexed": false,
          "internalType": "address",
          "name": "patient",
          "type": "address"
        }
      ],
      "name": "ClaimedApprove",
      "type": "event"
    },
    {
      "anonymous": false,
      "inputs": [
        {
          "indexed": false,
          "internalType": "address",
          "name": "patientAddr",
          "type": "address"
        },
        {
          "indexed": false,
          "internalType": "string",
          "name": "patientName",
          "type": "string"
        },
        {
          "indexed": false,
          "internalType": "string",
          "name": "bloodType",
          "type": "string"
        },
        {
          "indexed": false,
          "internalType": "string",
          "name": "lastUpDate",
          "type": "string"
        },
        {
          "indexed": false,
          "internalType": "string",
          "name": "doctorName",
          "type": "string"
        }
      ],
      "name": "CreateMedicalData",
      "type": "event"
    },
    {
      "anonymous": false,
      "inputs": [
        {
          "indexed": false,
          "internalType": "address",
          "name": "patientAddr",
          "type": "address"
        }
      ],
      "name": "DeleteMedicalData",
      "type": "event"
    },
    {
      "anonymous": false,
      "inputs": [
        {
          "indexed": false,
          "internalType": "address",
          "name": "patientAddr",
          "type": "address"
        },
        {
          "indexed": false,
          "internalType": "string",
          "name": "patientName",
          "type": "string"
        },
        {
          "indexed": false,
          "internalType": "string",
          "name": "bloodType",
          "type": "string"
        },
        {
          "indexed": false,
          "internalType": "string",
          "name": "lastUpDate",
          "type": "string"
        },
        {
          "indexed": false,
          "internalType": "string",
          "name": "doctorName",
          "type": "string"
        }
      ],
      "name": "EditMedicalData",
      "type": "event"
    },
    {
      "anonymous": false,
      "inputs": [
        {
          "indexed": false,
          "internalType": "address",
          "name": "doctorAddress",
          "type": "address"
        },
        {
          "indexed": false,
          "internalType": "string",
          "name": "doctorName",
          "type": "string"
        }
      ],
      "name": "RegistedDoctor",
      "type": "event"
    },
    {
      "inputs": [
        {
          "internalType": "address",
          "name": "",
          "type": "address"
        },
        {
          "internalType": "address",
          "name": "",
          "type": "address"
        }
      ],
      "name": "approveMap",
      "outputs": [
        {
          "internalType": "bool",
          "name": "",
          "type": "bool"
        }
      ],
      "stateMutability": "view",
      "type": "function",
      "constant": true
    },
    {
      "inputs": [
        {
          "internalType": "address",
          "name": "",
          "type": "address"
        }
      ],
      "name": "doctorMap",
      "outputs": [
        {
          "internalType": "string",
          "name": "",
          "type": "string"
        }
      ],
      "stateMutability": "view",
      "type": "function",
      "constant": true
    },
    {
      "inputs": [
        {
          "internalType": "address",
          "name": "",
          "type": "address"
        }
      ],
      "name": "doctorRoleMap",
      "outputs": [
        {
          "internalType": "bool",
          "name": "",
          "type": "bool"
        }
      ],
      "stateMutability": "view",
      "type": "function",
      "constant": true
    },
    {
      "inputs": [
        {
          "internalType": "uint256",
          "name": "",
          "type": "uint256"
        }
      ],
      "name": "doctors",
      "outputs": [
        {
          "internalType": "address",
          "name": "",
          "type": "address"
        }
      ],
      "stateMutability": "view",
      "type": "function",
      "constant": true
    },
    {
      "inputs": [
        {
          "internalType": "address",
          "name": "",
          "type": "address"
        }
      ],
      "name": "medicalMap",
      "outputs": [
        {
          "internalType": "string",
          "name": "patientName",
          "type": "string"
        },
        {
          "internalType": "string",
          "name": "bloodType",
          "type": "string"
        },
        {
          "internalType": "string",
          "name": "lastUpdate",
          "type": "string"
        },
        {
          "components": [
            {
              "internalType": "string",
              "name": "lastUpdate",
              "type": "string"
            },
            {
              "internalType": "string",
              "name": "doctorName",
              "type": "string"
            }
          ],
          "internalType": "struct MedicalData.MedicalInsData",
          "name": "medicalInsData",
          "type": "tuple"
        }
      ],
      "stateMutability": "view",
      "type": "function",
      "constant": true
    },
    {
      "inputs": [],
      "name": "owner",
      "outputs": [
        {
          "internalType": "address",
          "name": "",
          "type": "address"
        }
      ],
      "stateMutability": "view",
      "type": "function",
      "constant": true
    },
    {
      "inputs": [
        {
          "internalType": "address",
          "name": "",
          "type": "address"
        },
        {
          "internalType": "address",
          "name": "",
          "type": "address"
        }
      ],
      "name": "requireMap",
      "outputs": [
        {
          "internalType": "bool",
          "name": "",
          "type": "bool"
        }
      ],
      "stateMutability": "view",
      "type": "function",
      "constant": true
    },
    {
      "inputs": [
        {
          "internalType": "address",
          "name": "doctor",
          "type": "address"
        }
      ],
      "name": "approve",
      "outputs": [],
      "stateMutability": "nonpayable",
      "type": "function"
    },
    {
      "inputs": [
        {
          "internalType": "address",
          "name": "doctor",
          "type": "address"
        }
      ],
      "name": "changeStatus",
      "outputs": [],
      "stateMutability": "nonpayable",
      "type": "function"
    },
    {
      "inputs": [
        {
          "internalType": "address",
          "name": "patient",
          "type": "address"
        }
      ],
      "name": "claimApprove",
      "outputs": [],
      "stateMutability": "nonpayable",
      "type": "function"
    },
    {
      "inputs": [
        {
          "internalType": "address",
          "name": "patientAddr",
          "type": "address"
        },
        {
          "internalType": "string",
          "name": "patientName",
          "type": "string"
        },
        {
          "internalType": "string",
          "name": "bloodType",
          "type": "string"
        },
        {
          "internalType": "string",
          "name": "lastUpDate",
          "type": "string"
        },
        {
          "internalType": "string",
          "name": "doctorName",
          "type": "string"
        }
      ],
      "name": "createMedicalData",
      "outputs": [],
      "stateMutability": "nonpayable",
      "type": "function"
    },
    {
      "inputs": [
        {
          "internalType": "address",
          "name": "patientAddr",
          "type": "address"
        },
        {
          "internalType": "string",
          "name": "patientName",
          "type": "string"
        },
        {
          "internalType": "string",
          "name": "bloodType",
          "type": "string"
        },
        {
          "internalType": "string",
          "name": "lastUpDate",
          "type": "string"
        },
        {
          "internalType": "string",
          "name": "doctorName",
          "type": "string"
        }
      ],
      "name": "editMedicalData",
      "outputs": [],
      "stateMutability": "nonpayable",
      "type": "function"
    },
    {
      "inputs": [
        {
          "internalType": "address",
          "name": "patient",
          "type": "address"
        }
      ],
      "name": "deleteMedicalData",
      "outputs": [],
      "stateMutability": "nonpayable",
      "type": "function"
    },
    {
      "inputs": [],
      "name": "selectMedicalData",
      "outputs": [
        {
          "components": [
            {
              "internalType": "string",
              "name": "patientName",
              "type": "string"
            },
            {
              "internalType": "string",
              "name": "bloodType",
              "type": "string"
            },
            {
              "internalType": "string",
              "name": "lastUpdate",
              "type": "string"
            },
            {
              "components": [
                {
                  "internalType": "string",
                  "name": "lastUpdate",
                  "type": "string"
                },
                {
                  "internalType": "string",
                  "name": "doctorName",
                  "type": "string"
                }
              ],
              "internalType": "struct MedicalData.MedicalInsData",
              "name": "medicalInsData",
              "type": "tuple"
            }
          ],
          "internalType": "struct MedicalData.PatientMedicalData",
          "name": "",
          "type": "tuple"
        }
      ],
      "stateMutability": "view",
      "type": "function",
      "constant": true
    },
    {
      "inputs": [
        {
          "internalType": "address",
          "name": "patient",
          "type": "address"
        }
      ],
      "name": "selectPatientMedicalData",
      "outputs": [
        {
          "components": [
            {
              "internalType": "string",
              "name": "patientName",
              "type": "string"
            },
            {
              "internalType": "string",
              "name": "bloodType",
              "type": "string"
            },
            {
              "internalType": "string",
              "name": "lastUpdate",
              "type": "string"
            },
            {
              "components": [
                {
                  "internalType": "string",
                  "name": "lastUpdate",
                  "type": "string"
                },
                {
                  "internalType": "string",
                  "name": "doctorName",
                  "type": "string"
                }
              ],
              "internalType": "struct MedicalData.MedicalInsData",
              "name": "medicalInsData",
              "type": "tuple"
            }
          ],
          "internalType": "struct MedicalData.PatientMedicalData",
          "name": "",
          "type": "tuple"
        }
      ],
      "stateMutability": "view",
      "type": "function",
      "constant": true
    },
    {
      "inputs": [
        {
          "internalType": "address",
          "name": "doctorAddress",
          "type": "address"
        },
        {
          "internalType": "string",
          "name": "doctorName",
          "type": "string"
        }
      ],
      "name": "registDoctor",
      "outputs": [],
      "stateMutability": "nonpayable",
      "type": "function"
    },
    {
      "inputs": [],
      "name": "getDoctors",
      "outputs": [
        {
          "internalType": "address[]",
          "name": "",
          "type": "address[]"
        }
      ],
      "stateMutability": "view",
      "type": "function",
      "constant": true
    }
  ],
  "bytecode": "0x6080604052604051806040016040528060405180602001604052806000815250815260200160405180602001604052806000815250815250600760008201518160000190805190602001906200005792919062000565565b5060208201518160010190805190602001906200007692919062000565565b50505060405180608001604052806040518060200160405280600081525081526020016040518060200160405280600081525081526020016040518060200160405280600081525081526020016007604051806040016040529081600082018054620000e2906200097e565b80601f016020809104026020016040519081016040528092919081815260200182805462000110906200097e565b8015620001615780601f10620001355761010080835404028352916020019162000161565b820191906000526020600020905b8154815290600101906020018083116200014357829003601f168201915b505050505081526020016001820180546200017c906200097e565b80601f0160208091040260200160405190810160405280929190818152602001828054620001aa906200097e565b8015620001fb5780601f10620001cf57610100808354040283529160200191620001fb565b820191906000526020600020905b815481529060010190602001808311620001dd57829003601f168201915b505050505081525050815250600960008201518160000190805190602001906200022792919062000565565b5060208201518160010190805190602001906200024692919062000565565b5060408201518160020190805190602001906200026592919062000565565b5060608201518160030160008201518160000190805190602001906200028d92919062000565565b506020820151816001019080519060200190620002ac92919062000565565b5050505050348015620002be57600080fd5b506040516200377d3803806200377d8339818101604052810190620002e49190620007d2565b336000806101000a81548173ffffffffffffffffffffffffffffffffffffffff021916908373ffffffffffffffffffffffffffffffffffffffff16021790555060005b82518110156200055c5760018382815181106200036d577f4e487b7100000000000000000000000000000000000000000000000000000000600052603260045260246000fd5b60200260200101519080600181540180825580915050600190039060005260206000200160009091909190916101000a81548173ffffffffffffffffffffffffffffffffffffffff021916908373ffffffffffffffffffffffffffffffffffffffff1602179055508181815181106200040f577f4e487b7100000000000000000000000000000000000000000000000000000000600052603260045260246000fd5b60200260200101516003600085848151811062000455577f4e487b7100000000000000000000000000000000000000000000000000000000600052603260045260246000fd5b602002602001015173ffffffffffffffffffffffffffffffffffffffff1673ffffffffffffffffffffffffffffffffffffffff1681526020019081526020016000209080519060200190620004ac92919062000565565b50600160046000858481518110620004ed577f4e487b7100000000000000000000000000000000000000000000000000000000600052603260045260246000fd5b602002602001015173ffffffffffffffffffffffffffffffffffffffff1673ffffffffffffffffffffffffffffffffffffffff16815260200190815260200160002060006101000a81548160ff02191690831515021790555080806200055390620009b4565b91505062000327565b50505062000aa9565b82805462000573906200097e565b90600052602060002090601f016020900481019282620005975760008555620005e3565b82601f10620005b257805160ff1916838001178555620005e3565b82800160010185558215620005e3579182015b82811115620005e2578251825591602001919060010190620005c5565b5b509050620005f29190620005f6565b5090565b5b8082111562000611576000816000905550600101620005f7565b5090565b60006200062c620006268462000879565b62000845565b905080838252602082019050828560208602820111156200064c57600080fd5b60005b8581101562000680578162000665888262000734565b8452602084019350602083019250506001810190506200064f565b5050509392505050565b6000620006a16200069b84620008a8565b62000845565b9050808382526020820190508260005b85811015620006e55781518501620006ca8882620007a5565b845260208401935060208301925050600181019050620006b1565b5050509392505050565b6000620007066200070084620008d7565b62000845565b9050828152602081018484840111156200071f57600080fd5b6200072c84828562000948565b509392505050565b600081519050620007458162000a8f565b92915050565b600082601f8301126200075d57600080fd5b81516200076f84826020860162000615565b91505092915050565b600082601f8301126200078a57600080fd5b81516200079c8482602086016200068a565b91505092915050565b600082601f830112620007b757600080fd5b8151620007c9848260208601620006ef565b91505092915050565b60008060408385031215620007e657600080fd5b600083015167ffffffffffffffff8111156200080157600080fd5b6200080f858286016200074b565b925050602083015167ffffffffffffffff8111156200082d57600080fd5b6200083b8582860162000778565b9150509250929050565b6000604051905081810181811067ffffffffffffffff821117156200086f576200086e62000a60565b5b8060405250919050565b600067ffffffffffffffff82111562000897576200089662000a60565b5b602082029050602081019050919050565b600067ffffffffffffffff821115620008c657620008c562000a60565b5b602082029050602081019050919050565b600067ffffffffffffffff821115620008f557620008f462000a60565b5b601f19601f8301169050602081019050919050565b600062000917826200091e565b9050919050565b600073ffffffffffffffffffffffffffffffffffffffff82169050919050565b6000819050919050565b60005b83811015620009685780820151818401526020810190506200094b565b8381111562000978576000848401525b50505050565b600060028204905060018216806200099757607f821691505b60208210811415620009ae57620009ad62000a31565b5b50919050565b6000620009c1826200093e565b91507fffffffffffffffffffffffffffffffffffffffffffffffffffffffffffffffff821415620009f757620009f662000a02565b5b600182019050919050565b7f4e487b7100000000000000000000000000000000000000000000000000000000600052601160045260246000fd5b7f4e487b7100000000000000000000000000000000000000000000000000000000600052602260045260246000fd5b7f4e487b7100000000000000000000000000000000000000000000000000000000600052604160045260246000fd5b62000a9a816200090a565b811462000aa657600080fd5b50565b612cc48062000ab96000396000f3fe608060405234801561001057600080fd5b506004361061010b5760003560e01c80637f24710a116100a257806394b502d11161007157806394b502d1146102dc578063b13d5d94146102f8578063d1229aee14610316578063daea85c514610332578063fd61bd921461034e5761010b565b80637f24710a146102545780638200a966146102845780638da5cb5b146102a057806390c1e638146102be5761010b565b80636aa3f233116100de5780636aa3f233146101a85780636efb1b84146101d85780636f8eecfd14610208578063794e217d146102245761010b565b80631fe51d90146101105780633b6d93901461014057806346ba4ceb146101705780635d2ec7cf1461018c575b600080fd5b61012a60048036038101906101259190612274565b610381565b60405161013791906128b6565b60405180910390f35b61015a6004803603810190610155919061224b565b6103b0565b60405161016791906128d1565b60405180910390f35b61018a60048036038101906101859190612304565b610450565b005b6101a660048036038101906101a1919061224b565b61071a565b005b6101c260048036038101906101bd919061224b565b61087e565b6040516101cf91906128b6565b60405180910390f35b6101f260048036038101906101ed91906123db565b61089e565b6040516101ff91906127b1565b60405180910390f35b610222600480360381019061021d919061224b565b6108dd565b005b61023e60048036038101906102399190612274565b610a41565b60405161024b91906128b6565b60405180910390f35b61026e6004803603810190610269919061224b565b610a70565b60405161027b91906129d4565b60405180910390f35b61029e600480360381019061029991906122b0565b610f1c565b005b6102a86110f6565b6040516102b591906127b1565b60405180910390f35b6102c661111a565b6040516102d391906129d4565b60405180910390f35b6102f660048036038101906102f19190612304565b6114f2565b005b6103006117bc565b60405161030d9190612894565b60405180910390f35b610330600480360381019061032b919061224b565b61184a565b005b61034c6004803603810190610347919061224b565b611b9f565b005b6103686004803603810190610363919061224b565b611d98565b60405161037894939291906128f3565b60405180910390f35b60056020528160005260406000206020528060005260406000206000915091509054906101000a900460ff1681565b600360205280600052604060002060009150905080546103cf90612b47565b80601f01602080910402602001604051908101604052809291908181526020018280546103fb90612b47565b80156104485780601f1061041d57610100808354040283529160200191610448565b820191906000526020600020905b81548152906001019060200180831161042b57829003601f168201915b505050505081565b60011515600460003373ffffffffffffffffffffffffffffffffffffffff1673ffffffffffffffffffffffffffffffffffffffff16815260200190815260200160002060009054906101000a900460ff161515146104e3576040517f08c379a00000000000000000000000000000000000000000000000000000000081526004016104da90612954565b60405180910390fd5b8460011515600560008373ffffffffffffffffffffffffffffffffffffffff1673ffffffffffffffffffffffffffffffffffffffff16815260200190815260200160002060003373ffffffffffffffffffffffffffffffffffffffff1673ffffffffffffffffffffffffffffffffffffffff16815260200190815260200160002060009054906101000a900460ff161515146105b4576040517f08c379a00000000000000000000000000000000000000000000000000000000081526004016105ab90612974565b60405180910390fd5b600060405180604001604052808581526020018481525090506000604051806080016040528088815260200187815260200186815260200183815250905080600260008a73ffffffffffffffffffffffffffffffffffffffff1673ffffffffffffffffffffffffffffffffffffffff168152602001908152602001600020600082015181600001908051906020019061064e92919061208e565b50602082015181600101908051906020019061066b92919061208e565b50604082015181600201908051906020019061068892919061208e565b5060608201518160030160008201518160000190805190602001906106ae92919061208e565b5060208201518160010190805190602001906106cb92919061208e565b5050509050507f36d37aa514b1c78519f8a61a0ebc1d8a75a95150d9ba9f33d4656f5be7ece1758888888888604051610708959493929190612825565b60405180910390a15050505050505050565b60011515600460003373ffffffffffffffffffffffffffffffffffffffff1673ffffffffffffffffffffffffffffffffffffffff16815260200190815260200160002060009054906101000a900460ff161515146107ad576040517f08c379a00000000000000000000000000000000000000000000000000000000081526004016107a490612954565b60405180910390fd5b6001600660003373ffffffffffffffffffffffffffffffffffffffff1673ffffffffffffffffffffffffffffffffffffffff16815260200190815260200160002060008373ffffffffffffffffffffffffffffffffffffffff1673ffffffffffffffffffffffffffffffffffffffff16815260200190815260200160002060006101000a81548160ff0219169083151502179055507fcbe9b38decde986abb73b6b7886822d593acaf5c22aaa47e3360ce71f2602bf233826040516108739291906127cc565b60405180910390a150565b60046020528060005260406000206000915054906101000a900460ff1681565b600181815481106108ae57600080fd5b906000526020600020016000915054906101000a900473ffffffffffffffffffffffffffffffffffffffff1681565b60001515600460003373ffffffffffffffffffffffffffffffffffffffff1673ffffffffffffffffffffffffffffffffffffffff16815260200190815260200160002060009054906101000a900460ff16151514610970576040517f08c379a000000000000000000000000000000000000000000000000000000000815260040161096790612994565b60405180910390fd5b6000600560003373ffffffffffffffffffffffffffffffffffffffff1673ffffffffffffffffffffffffffffffffffffffff16815260200190815260200160002060008373ffffffffffffffffffffffffffffffffffffffff1673ffffffffffffffffffffffffffffffffffffffff16815260200190815260200160002060006101000a81548160ff0219169083151502179055507f8730e7f2743238cf595c2a262e2b3e6d4475c7170f64568864954543d4443e5e3382604051610a369291906127cc565b60405180910390a150565b60066020528160005260406000206020528060005260406000206000915091509054906101000a900460ff1681565b610a78612114565b60011515600460003373ffffffffffffffffffffffffffffffffffffffff1673ffffffffffffffffffffffffffffffffffffffff16815260200190815260200160002060009054906101000a900460ff16151514610b0b576040517f08c379a0000000000000000000000000000000000000000000000000000000008152600401610b0290612954565b60405180910390fd5b8160011515600560008373ffffffffffffffffffffffffffffffffffffffff1673ffffffffffffffffffffffffffffffffffffffff16815260200190815260200160002060003373ffffffffffffffffffffffffffffffffffffffff1673ffffffffffffffffffffffffffffffffffffffff16815260200190815260200160002060009054906101000a900460ff16151514610bdc576040517f08c379a0000000000000000000000000000000000000000000000000000000008152600401610bd390612974565b60405180910390fd5b600260008473ffffffffffffffffffffffffffffffffffffffff1673ffffffffffffffffffffffffffffffffffffffff168152602001908152602001600020604051806080016040529081600082018054610c3690612b47565b80601f0160208091040260200160405190810160405280929190818152602001828054610c6290612b47565b8015610caf5780601f10610c8457610100808354040283529160200191610caf565b820191906000526020600020905b815481529060010190602001808311610c9257829003601f168201915b50505050508152602001600182018054610cc890612b47565b80601f0160208091040260200160405190810160405280929190818152602001828054610cf490612b47565b8015610d415780601f10610d1657610100808354040283529160200191610d41565b820191906000526020600020905b815481529060010190602001808311610d2457829003601f168201915b50505050508152602001600282018054610d5a90612b47565b80601f0160208091040260200160405190810160405280929190818152602001828054610d8690612b47565b8015610dd35780601f10610da857610100808354040283529160200191610dd3565b820191906000526020600020905b815481529060010190602001808311610db657829003601f168201915b5050505050815260200160038201604051806040016040529081600082018054610dfc90612b47565b80601f0160208091040260200160405190810160405280929190818152602001828054610e2890612b47565b8015610e755780601f10610e4a57610100808354040283529160200191610e75565b820191906000526020600020905b815481529060010190602001808311610e5857829003601f168201915b50505050508152602001600182018054610e8e90612b47565b80601f0160208091040260200160405190810160405280929190818152602001828054610eba90612b47565b8015610f075780601f10610edc57610100808354040283529160200191610f07565b820191906000526020600020905b815481529060010190602001808311610eea57829003601f168201915b50505050508152505081525050915050919050565b3373ffffffffffffffffffffffffffffffffffffffff1660008054906101000a900473ffffffffffffffffffffffffffffffffffffffff1673ffffffffffffffffffffffffffffffffffffffff1614610faa576040517f08c379a0000000000000000000000000000000000000000000000000000000008152600401610fa1906129b4565b60405180910390fd5b6001829080600181540180825580915050600190039060005260206000200160009091909190916101000a81548173ffffffffffffffffffffffffffffffffffffffff021916908373ffffffffffffffffffffffffffffffffffffffff16021790555080600360008473ffffffffffffffffffffffffffffffffffffffff1673ffffffffffffffffffffffffffffffffffffffff168152602001908152602001600020908051906020019061106092919061208e565b506001600460008473ffffffffffffffffffffffffffffffffffffffff1673ffffffffffffffffffffffffffffffffffffffff16815260200190815260200160002060006101000a81548160ff0219169083151502179055507f61bcd75d1ded61d8234e3d22b69fe8e58b0dfcd033d15ed609be8a58c785f46382826040516110ea9291906127f5565b60405180910390a15050565b60008054906101000a900473ffffffffffffffffffffffffffffffffffffffff1681565b611122612114565b60001515600460003373ffffffffffffffffffffffffffffffffffffffff1673ffffffffffffffffffffffffffffffffffffffff16815260200190815260200160002060009054906101000a900460ff161515146111b5576040517f08c379a00000000000000000000000000000000000000000000000000000000081526004016111ac90612994565b60405180910390fd5b600260003373ffffffffffffffffffffffffffffffffffffffff1673ffffffffffffffffffffffffffffffffffffffff16815260200190815260200160002060405180608001604052908160008201805461120f90612b47565b80601f016020809104026020016040519081016040528092919081815260200182805461123b90612b47565b80156112885780601f1061125d57610100808354040283529160200191611288565b820191906000526020600020905b81548152906001019060200180831161126b57829003601f168201915b505050505081526020016001820180546112a190612b47565b80601f01602080910402602001604051908101604052809291908181526020018280546112cd90612b47565b801561131a5780601f106112ef5761010080835404028352916020019161131a565b820191906000526020600020905b8154815290600101906020018083116112fd57829003601f168201915b5050505050815260200160028201805461133390612b47565b80601f016020809104026020016040519081016040528092919081815260200182805461135f90612b47565b80156113ac5780601f10611381576101008083540402835291602001916113ac565b820191906000526020600020905b81548152906001019060200180831161138f57829003601f168201915b50505050508152602001600382016040518060400160405290816000820180546113d590612b47565b80601f016020809104026020016040519081016040528092919081815260200182805461140190612b47565b801561144e5780601f106114235761010080835404028352916020019161144e565b820191906000526020600020905b81548152906001019060200180831161143157829003601f168201915b5050505050815260200160018201805461146790612b47565b80601f016020809104026020016040519081016040528092919081815260200182805461149390612b47565b80156114e05780601f106114b5576101008083540402835291602001916114e0565b820191906000526020600020905b8154815290600101906020018083116114c357829003601f168201915b50505050508152505081525050905090565b60011515600460003373ffffffffffffffffffffffffffffffffffffffff1673ffffffffffffffffffffffffffffffffffffffff16815260200190815260200160002060009054906101000a900460ff16151514611585576040517f08c379a000000000000000000000000000000000000000000000000000000000815260040161157c90612954565b60405180910390fd5b8460011515600560008373ffffffffffffffffffffffffffffffffffffffff1673ffffffffffffffffffffffffffffffffffffffff16815260200190815260200160002060003373ffffffffffffffffffffffffffffffffffffffff1673ffffffffffffffffffffffffffffffffffffffff16815260200190815260200160002060009054906101000a900460ff16151514611656576040517f08c379a000000000000000000000000000000000000000000000000000000000815260040161164d90612974565b60405180910390fd5b600060405180604001604052808581526020018481525090506000604051806080016040528088815260200187815260200186815260200183815250905080600260008a73ffffffffffffffffffffffffffffffffffffffff1673ffffffffffffffffffffffffffffffffffffffff16815260200190815260200160002060008201518160000190805190602001906116f092919061208e565b50602082015181600101908051906020019061170d92919061208e565b50604082015181600201908051906020019061172a92919061208e565b50606082015181600301600082015181600001908051906020019061175092919061208e565b50602082015181600101908051906020019061176d92919061208e565b5050509050507f3a9d2e3abbf1feead8ea242e633e03e77bac21532996e4e5c475451da77c87b388888888886040516117aa959493929190612825565b60405180910390a15050505050505050565b6060600180548060200260200160405190810160405280929190818152602001828054801561184057602002820191906000526020600020905b8160009054906101000a900473ffffffffffffffffffffffffffffffffffffffff1673ffffffffffffffffffffffffffffffffffffffff16815260200190600101908083116117f6575b5050505050905090565b60011515600460003373ffffffffffffffffffffffffffffffffffffffff1673ffffffffffffffffffffffffffffffffffffffff16815260200190815260200160002060009054906101000a900460ff161515146118dd576040517f08c379a00000000000000000000000000000000000000000000000000000000081526004016118d490612954565b60405180910390fd5b8060011515600560008373ffffffffffffffffffffffffffffffffffffffff1673ffffffffffffffffffffffffffffffffffffffff16815260200190815260200160002060003373ffffffffffffffffffffffffffffffffffffffff1673ffffffffffffffffffffffffffffffffffffffff16815260200190815260200160002060009054906101000a900460ff161515146119ae576040517f08c379a00000000000000000000000000000000000000000000000000000000081526004016119a590612974565b60405180910390fd5b600260008373ffffffffffffffffffffffffffffffffffffffff1673ffffffffffffffffffffffffffffffffffffffff168152602001908152602001600020600080820160006119fe9190612142565b600182016000611a0e9190612142565b600282016000611a1e9190612142565b6003820160008082016000611a339190612142565b600182016000611a439190612142565b5050505060005b600180549050811015611b63576000600560008573ffffffffffffffffffffffffffffffffffffffff1673ffffffffffffffffffffffffffffffffffffffff168152602001908152602001600020600060018481548110611ad4577f4e487b7100000000000000000000000000000000000000000000000000000000600052603260045260246000fd5b9060005260206000200160009054906101000a900473ffffffffffffffffffffffffffffffffffffffff1673ffffffffffffffffffffffffffffffffffffffff1673ffffffffffffffffffffffffffffffffffffffff16815260200190815260200160002060006101000a81548160ff0219169083151502179055508080611b5b90612b79565b915050611a4a565b507fd7753f3b8a7bd1cdece74a0a97a24e6418c57a841e5607d0fecdff37cd358dbd82604051611b9391906127b1565b60405180910390a15050565b60001515600460003373ffffffffffffffffffffffffffffffffffffffff1673ffffffffffffffffffffffffffffffffffffffff16815260200190815260200160002060009054906101000a900460ff16151514611c32576040517f08c379a0000000000000000000000000000000000000000000000000000000008152600401611c2990612994565b60405180910390fd5b6001600560003373ffffffffffffffffffffffffffffffffffffffff1673ffffffffffffffffffffffffffffffffffffffff16815260200190815260200160002060008373ffffffffffffffffffffffffffffffffffffffff1673ffffffffffffffffffffffffffffffffffffffff16815260200190815260200160002060006101000a81548160ff0219169083151502179055506000600660008373ffffffffffffffffffffffffffffffffffffffff1673ffffffffffffffffffffffffffffffffffffffff16815260200190815260200160002060003373ffffffffffffffffffffffffffffffffffffffff1673ffffffffffffffffffffffffffffffffffffffff16815260200190815260200160002060006101000a81548160ff0219169083151502179055507faad2833c9fd7a3de33f301e5186ee84d1a5753ce32de6b97baedaac4b92b55fc3382604051611d8d9291906127cc565b60405180910390a150565b6002602052806000526040600020600091509050806000018054611dbb90612b47565b80601f0160208091040260200160405190810160405280929190818152602001828054611de790612b47565b8015611e345780601f10611e0957610100808354040283529160200191611e34565b820191906000526020600020905b815481529060010190602001808311611e1757829003601f168201915b505050505090806001018054611e4990612b47565b80601f0160208091040260200160405190810160405280929190818152602001828054611e7590612b47565b8015611ec25780601f10611e9757610100808354040283529160200191611ec2565b820191906000526020600020905b815481529060010190602001808311611ea557829003601f168201915b505050505090806002018054611ed790612b47565b80601f0160208091040260200160405190810160405280929190818152602001828054611f0390612b47565b8015611f505780601f10611f2557610100808354040283529160200191611f50565b820191906000526020600020905b815481529060010190602001808311611f3357829003601f168201915b50505050509080600301604051806040016040529081600082018054611f7590612b47565b80601f0160208091040260200160405190810160405280929190818152602001828054611fa190612b47565b8015611fee5780601f10611fc357610100808354040283529160200191611fee565b820191906000526020600020905b815481529060010190602001808311611fd157829003601f168201915b5050505050815260200160018201805461200790612b47565b80601f016020809104026020016040519081016040528092919081815260200182805461203390612b47565b80156120805780601f1061205557610100808354040283529160200191612080565b820191906000526020600020905b81548152906001019060200180831161206357829003601f168201915b505050505081525050905084565b82805461209a90612b47565b90600052602060002090601f0160209004810192826120bc5760008555612103565b82601f106120d557805160ff1916838001178555612103565b82800160010185558215612103579182015b828111156121025782518255916020019190600101906120e7565b5b5090506121109190612182565b5090565b604051806080016040528060608152602001606081526020016060815260200161213c61219f565b81525090565b50805461214e90612b47565b6000825580601f10612160575061217f565b601f01602090049060005260206000209081019061217e9190612182565b5b50565b5b8082111561219b576000816000905550600101612183565b5090565b604051806040016040528060608152602001606081525090565b60006121cc6121c784612a27565b6129f6565b9050828152602081018484840111156121e457600080fd5b6121ef848285612b05565b509392505050565b60008135905061220681612c60565b92915050565b600082601f83011261221d57600080fd5b813561222d8482602086016121b9565b91505092915050565b60008135905061224581612c77565b92915050565b60006020828403121561225d57600080fd5b600061226b848285016121f7565b91505092915050565b6000806040838503121561228757600080fd5b6000612295858286016121f7565b92505060206122a6858286016121f7565b9150509250929050565b600080604083850312156122c357600080fd5b60006122d1858286016121f7565b925050602083013567ffffffffffffffff8111156122ee57600080fd5b6122fa8582860161220c565b9150509250929050565b600080600080600060a0868803121561231c57600080fd5b600061232a888289016121f7565b955050602086013567ffffffffffffffff81111561234757600080fd5b6123538882890161220c565b945050604086013567ffffffffffffffff81111561237057600080fd5b61237c8882890161220c565b935050606086013567ffffffffffffffff81111561239957600080fd5b6123a58882890161220c565b925050608086013567ffffffffffffffff8111156123c257600080fd5b6123ce8882890161220c565b9150509295509295909350565b6000602082840312156123ed57600080fd5b60006123fb84828501612236565b91505092915050565b6000612410838361241c565b60208301905092915050565b61242581612abd565b82525050565b61243481612abd565b82525050565b600061244582612a67565b61244f8185612a8a565b935061245a83612a57565b8060005b8381101561248b5781516124728882612404565b975061247d83612a7d565b92505060018101905061245e565b5085935050505092915050565b6124a181612acf565b82525050565b60006124b282612a72565b6124bc8185612a9b565b93506124cc818560208601612b14565b6124d581612c4f565b840191505092915050565b60006124eb82612a72565b6124f58185612aac565b9350612505818560208601612b14565b61250e81612c4f565b840191505092915050565b6000612526602383612aac565b91507f6d73672e73656e64646572206d757374206861766520646f63746f7220726f6c60008301527f65212100000000000000000000000000000000000000000000000000000000006020830152604082019050919050565b600061258c602183612aac565b91507f796f75206d75737420626520617070726f7665642062792070617469656e742160008301527f21000000000000000000000000000000000000000000000000000000000000006020830152604082019050919050565b60006125f2602483612aac565b91507f6d73672e73656e64646572206d75737420686176652070617469656e7420726f60008301527f6c652121000000000000000000000000000000000000000000000000000000006020830152604082019050919050565b6000612658602583612aac565b91507f6d73672e73656e646572206d757374206265206f776e6572277320616464726560008301527f73732021210000000000000000000000000000000000000000000000000000006020830152604082019050919050565b600060408301600083015184820360008601526126ce82826124a7565b915050602083015184820360208601526126e882826124a7565b9150508091505092915050565b6000604083016000830151848203600086015261271282826124a7565b9150506020830151848203602086015261272c82826124a7565b9150508091505092915050565b6000608083016000830151848203600086015261275682826124a7565b9150506020830151848203602086015261277082826124a7565b9150506040830151848203604086015261278a82826124a7565b915050606083015184820360608601526127a482826126b1565b9150508091505092915050565b60006020820190506127c6600083018461242b565b92915050565b60006040820190506127e1600083018561242b565b6127ee602083018461242b565b9392505050565b600060408201905061280a600083018561242b565b818103602083015261281c81846124e0565b90509392505050565b600060a08201905061283a600083018861242b565b818103602083015261284c81876124e0565b9050818103604083015261286081866124e0565b9050818103606083015261287481856124e0565b9050818103608083015261288881846124e0565b90509695505050505050565b600060208201905081810360008301526128ae818461243a565b905092915050565b60006020820190506128cb6000830184612498565b92915050565b600060208201905081810360008301526128eb81846124e0565b905092915050565b6000608082019050818103600083015261290d81876124e0565b9050818103602083015261292181866124e0565b9050818103604083015261293581856124e0565b9050818103606083015261294981846126f5565b905095945050505050565b6000602082019050818103600083015261296d81612519565b9050919050565b6000602082019050818103600083015261298d8161257f565b9050919050565b600060208201905081810360008301526129ad816125e5565b9050919050565b600060208201905081810360008301526129cd8161264b565b9050919050565b600060208201905081810360008301526129ee8184612739565b905092915050565b6000604051905081810181811067ffffffffffffffff82111715612a1d57612a1c612c20565b5b8060405250919050565b600067ffffffffffffffff821115612a4257612a41612c20565b5b601f19601f8301169050602081019050919050565b6000819050602082019050919050565b600081519050919050565b600081519050919050565b6000602082019050919050565b600082825260208201905092915050565b600082825260208201905092915050565b600082825260208201905092915050565b6000612ac882612adb565b9050919050565b60008115159050919050565b600073ffffffffffffffffffffffffffffffffffffffff82169050919050565b6000819050919050565b82818337600083830152505050565b60005b83811015612b32578082015181840152602081019050612b17565b83811115612b41576000848401525b50505050565b60006002820490506001821680612b5f57607f821691505b60208210811415612b7357612b72612bf1565b5b50919050565b6000612b8482612afb565b91507fffffffffffffffffffffffffffffffffffffffffffffffffffffffffffffffff821415612bb757612bb6612bc2565b5b600182019050919050565b7f4e487b7100000000000000000000000000000000000000000000000000000000600052601160045260246000fd5b7f4e487b7100000000000000000000000000000000000000000000000000000000600052602260045260246000fd5b7f4e487b7100000000000000000000000000000000000000000000000000000000600052604160045260246000fd5b6000601f19601f8301169050919050565b612c6981612abd565b8114612c7457600080fd5b50565b612c8081612afb565b8114612c8b57600080fd5b5056fea26469706673582212201caa4d105955a9ab744f413f4ae49201d7641e98dace63a5a122e2e3d07783df64736f6c63430008000033",
  "immutableReferences": {},
  "source": "// SPDX-License-Identifier: MIT\npragma solidity >=0.8.0;\n\ncontract MedicalData {\n\n  // \n  struct MedicalInsData {\n    // \n    string lastUpdate;\n    // ()\n    string doctorName;\n  }\n\n  // \n  struct PatientMedicalData {\n    // \n    string patientName;\n    // \n    string bloodType;\n    // \n    string lastUpdate;\n    //  MedicalInsData\n    MedicalInsData medicalInsData;\n  }\n\n  // \n  address public owner;\n  // \n  address[] public doctors;\n  // Map\n  mapping (address => PatientMedicalData) public medicalMap;\n  // Map\n  mapping (address => string) public doctorMap;\n  // Map\n  mapping (address => bool) public doctorRoleMap;\n  // Map\n  mapping (address => mapping (address => bool)) public approveMap;\n  // Map\n  mapping (address => mapping (address => bool)) public requireMap;\n  // \n  MedicalInsData private dummyData = MedicalInsData('', '');\n  PatientMedicalData private dummyMedicalData = PatientMedicalData('', '', '', dummyData);\n\n  // \n  modifier onlyPatient() {\n    require(doctorRoleMap[msg.sender] == false, \"msg.sendder must have patient role!!\");\n    _;\n  }\n\n  // \n  modifier onlyDoctor() {\n    require(doctorRoleMap[msg.sender] == true, \"msg.sendder must have doctor role!!\");\n    _;\n  }\n\n  // owner\n  modifier onlyOwner() {\n    require(owner == msg.sender, \"msg.sender must be owner's address !!\");\n    _;\n  }\n\n  // \n  modifier isApproved(address patient) {\n    require(approveMap[patient][msg.sender] == true, \"you must be approved by patient!!\");\n    _;\n  }\n\n  // \n  event Approved(address patient, address doctor);\n  event ChangedStatus(address patient, address doctor);\n  event RegistedDoctor(address doctorAddress, string doctorName);\n  event ClaimedApprove(address doctor, address patient);\n  event CreateMedicalData(address patientAddr, string patientName, string bloodType, string lastUpDate, string doctorName);\n  event EditMedicalData(address patientAddr, string patientName, string bloodType, string lastUpDate, string doctorName);\n  event DeleteMedicalData(address patientAddr);\n\n  /**\n   * \n   * @param _doctorAddrs \n   * @param _doctorNames \n   */\n  constructor(address[] memory _doctorAddrs, string[] memory _doctorNames) {\n    // owner\n    owner = msg.sender;\n\n    for(uint i = 0; i < _doctorAddrs.length; i++) {\n      // \n      doctors.push(_doctorAddrs[i]);\n      // \n      doctorMap[_doctorAddrs[i]] = _doctorNames[i];\n      // \n      doctorRoleMap[_doctorAddrs[i]] = true;\n    }\n  }\n\n  /**\n   * \n   * @param doctor \n   */\n  function approve(address doctor) public onlyPatient {\n    // \n    approveMap[msg.sender][doctor] = true;\n    // false\n    requireMap[doctor][msg.sender] = false;\n\n    emit Approved(msg.sender, doctor);\n  }\n\n  /**\n   * \n   * @param doctor \n   */\n  function changeStatus(address doctor) public onlyPatient {\n    // \n    approveMap[msg.sender][doctor] = false;\n\n    emit ChangedStatus(msg.sender, doctor);\n  }\n\n  /**\n   * \n   * @param patient \n   */\n  function claimApprove(address patient) public onlyDoctor {\n    // \n    requireMap[msg.sender][patient] = true;\n\n    emit ClaimedApprove(msg.sender, patient);\n  }\n\n  /**\n   * \n   * @param patientAddr \n   * @param patientName \n   * @param bloodType \n   * @param lastUpDate \n   * @param doctorName ()\n   */\n  function createMedicalData(\n    address patientAddr,\n    string memory patientName, \n    string memory bloodType,\n    string memory lastUpDate,\n    string memory doctorName\n  ) public onlyDoctor isApproved(patientAddr) {\n    // Struct\n    MedicalInsData memory medicalInsData = MedicalInsData(lastUpDate, doctorName);\n    // Struct\n    PatientMedicalData memory patientMedicalData = PatientMedicalData(patientName, bloodType, lastUpDate, medicalInsData);\n    // \n    medicalMap[patientAddr] = patientMedicalData;\n\n    emit CreateMedicalData(patientAddr, patientName, bloodType, lastUpDate, doctorName);\n  }\n \n  /**\n   * \n   * @param patientAddr \n   * @param patientName \n   * @param bloodType \n   * @param lastUpDate \n   * @param doctorName ()\n   */\n  function editMedicalData(\n    address patientAddr,\n    string memory patientName, \n    string memory bloodType,\n    string memory lastUpDate,\n    string memory doctorName\n  ) public onlyDoctor isApproved(patientAddr) {\n    // Struct\n    MedicalInsData memory newMedicalInsData = MedicalInsData(lastUpDate, doctorName);\n    // Struct\n    PatientMedicalData memory newPatientMedicalData = PatientMedicalData(patientName, bloodType, lastUpDate, newMedicalInsData);\n    // ()\n    medicalMap[patientAddr] = newPatientMedicalData;\n\n    emit EditMedicalData(patientAddr, patientName, bloodType, lastUpDate, doctorName);\n  }\n\n  /**\n   * \n   * @param patient \n   */\n  function deleteMedicalData(address patient) public onlyDoctor isApproved(patient) {\n    // \n    delete medicalMap[patient];\n    // \n    for(uint i = 0; i < doctors.length; i++) {\n      approveMap[patient][doctors[i]] = false;\n    }\n\n    emit DeleteMedicalData(patient);\n  }\n\n  /**\n   * \n   \n   */\n  function selectMedicalData() public view onlyPatient returns (PatientMedicalData memory) {\n    // \n    return medicalMap[msg.sender];\n  }\n\n  /**\n   * \n   * @param patient \n   */\n  function selectPatientMedicalData(address patient) \n    public \n    view \n    onlyDoctor \n    isApproved(patient)\n    returns (PatientMedicalData memory) \n  {\n    // \n    return medicalMap[patient];\n  }\n\n  /**\n   * \n   * @param doctorAddress \n   * @param doctorName \n   */\n  function registDoctor(address doctorAddress, string memory doctorName) public onlyOwner {\n    // \n    doctors.push(doctorAddress);\n    // \n    doctorMap[doctorAddress] = doctorName;\n    // \n    doctorRoleMap[doctorAddress] = true;\n\n    emit RegistedDoctor(doctorAddress, doctorName);\n  }\n\n  /**\n   * \n   */\n  function getDoctors() public view returns (address[] memory) {\n    return doctors;\n  }\n}\n",
  "sourcePath": "/Users/harukikondo/git/Web3MedicalDApp/backend/contracts/MedicalData.sol",
  "compiler": {
    "name": "solc",
    "version": "0.8.0+commit.c7dfd78e.Emscripten.clang"
  },
  "schemaVersion": "3.4.4",
  "updatedAt": "2022-06-26T05:46:24.178Z",
  "networkType": "ethereum",
  "devdoc": {
    "kind": "dev",
    "methods": {
      "approve(address)": {
        "params": {
          "doctor": ""
        }
      },
      "changeStatus(address)": {
        "params": {
          "doctor": ""
        }
      },
      "claimApprove(address)": {
        "params": {
          "patient": ""
        }
      },
      "constructor": {
        "params": {
          "_doctorAddrs": "",
          "_doctorNames": ""
        }
      },
      "createMedicalData(address,string,string,string,string)": {
        "params": {
          "bloodType": "",
          "doctorName": "()",
          "lastUpDate": "",
          "patientAddr": "",
          "patientName": ""
        }
      },
      "deleteMedicalData(address)": {
        "params": {
          "patient": ""
        }
      },
      "editMedicalData(address,string,string,string,string)": {
        "params": {
          "bloodType": "",
          "doctorName": "()",
          "lastUpDate": "",
          "patientAddr": "",
          "patientName": ""
        }
      },
      "registDoctor(address,string)": {
        "params": {
          "doctorAddress": "",
          "doctorName": ""
        }
      },
      "selectPatientMedicalData(address)": {
        "params": {
          "patient": ""
        }
      }
    },
    "version": 1
  },
  "userdoc": {
    "kind": "user",
    "methods": {
      "approve(address)": {
        "notice": ""
      },
      "changeStatus(address)": {
        "notice": ""
      },
      "claimApprove(address)": {
        "notice": ""
      },
      "constructor": {
        "notice": ""
      },
      "createMedicalData(address,string,string,string,string)": {
        "notice": ""
      },
      "deleteMedicalData(address)": {
        "notice": ""
      },
      "editMedicalData(address,string,string,string,string)": {
        "notice": ""
      },
      "getDoctors()": {
        "notice": ""
      },
      "registDoctor(address,string)": {
        "notice": ""
      },
      "selectMedicalData()": {
        "notice": ""
      },
      "selectPatientMedicalData(address)": {
        "notice": ""
      }
    },
    "version": 1
  }
}