{
  "contractName": "MedicalData",
  "abi": [
    {
      "inputs": [
        {
          "internalType": "address[]",
          "name": "_doctorAddrs",
          "type": "address[]"
        },
        {
          "internalType": "string[]",
          "name": "_doctorNames",
          "type": "string[]"
        }
      ],
      "stateMutability": "nonpayable",
      "type": "constructor"
    },
    {
      "anonymous": false,
      "inputs": [
        {
          "indexed": false,
          "internalType": "address",
          "name": "patient",
          "type": "address"
        },
        {
          "indexed": false,
          "internalType": "address",
          "name": "doctor",
          "type": "address"
        }
      ],
      "name": "Approved",
      "type": "event"
    },
    {
      "anonymous": false,
      "inputs": [
        {
          "indexed": false,
          "internalType": "address",
          "name": "patient",
          "type": "address"
        },
        {
          "indexed": false,
          "internalType": "address",
          "name": "doctor",
          "type": "address"
        }
      ],
      "name": "ChangedStatus",
      "type": "event"
    },
    {
      "anonymous": false,
      "inputs": [
        {
          "indexed": false,
          "internalType": "address",
          "name": "doctor",
          "type": "address"
        },
        {
          "indexed": false,
          "internalType": "address",
          "name": "patient",
          "type": "address"
        }
      ],
      "name": "ClaimedApprove",
      "type": "event"
    },
    {
      "anonymous": false,
      "inputs": [
        {
          "indexed": false,
          "internalType": "address",
          "name": "patientAddr",
          "type": "address"
        },
        {
          "indexed": false,
          "internalType": "string",
          "name": "patientName",
          "type": "string"
        },
        {
          "indexed": false,
          "internalType": "string",
          "name": "bloodType",
          "type": "string"
        },
        {
          "indexed": false,
          "internalType": "string",
          "name": "lastUpDate",
          "type": "string"
        },
        {
          "indexed": false,
          "internalType": "string",
          "name": "doctorName",
          "type": "string"
        }
      ],
      "name": "CreateMedicalData",
      "type": "event"
    },
    {
      "anonymous": false,
      "inputs": [
        {
          "indexed": false,
          "internalType": "address",
          "name": "patientAddr",
          "type": "address"
        }
      ],
      "name": "DeleteMedicalData",
      "type": "event"
    },
    {
      "anonymous": false,
      "inputs": [
        {
          "indexed": false,
          "internalType": "address",
          "name": "patientAddr",
          "type": "address"
        },
        {
          "indexed": false,
          "internalType": "string",
          "name": "patientName",
          "type": "string"
        },
        {
          "indexed": false,
          "internalType": "string",
          "name": "bloodType",
          "type": "string"
        },
        {
          "indexed": false,
          "internalType": "string",
          "name": "lastUpDate",
          "type": "string"
        },
        {
          "indexed": false,
          "internalType": "string",
          "name": "doctorName",
          "type": "string"
        }
      ],
      "name": "EditMedicalData",
      "type": "event"
    },
    {
      "anonymous": false,
      "inputs": [
        {
          "indexed": false,
          "internalType": "address",
          "name": "patientAddr",
          "type": "address"
        },
        {
          "indexed": false,
          "internalType": "uint256",
          "name": "amount",
          "type": "uint256"
        }
      ],
      "name": "Pay",
      "type": "event"
    },
    {
      "anonymous": false,
      "inputs": [
        {
          "indexed": false,
          "internalType": "address",
          "name": "doctorAddress",
          "type": "address"
        },
        {
          "indexed": false,
          "internalType": "string",
          "name": "doctorName",
          "type": "string"
        }
      ],
      "name": "RegistedDoctor",
      "type": "event"
    },
    {
      "anonymous": false,
      "inputs": [
        {
          "indexed": false,
          "internalType": "address",
          "name": "doctorAddr",
          "type": "address"
        },
        {
          "indexed": false,
          "internalType": "uint256",
          "name": "amount",
          "type": "uint256"
        }
      ],
      "name": "Withdraw",
      "type": "event"
    },
    {
      "inputs": [
        {
          "internalType": "address",
          "name": "",
          "type": "address"
        },
        {
          "internalType": "address",
          "name": "",
          "type": "address"
        }
      ],
      "name": "approveMap",
      "outputs": [
        {
          "internalType": "bool",
          "name": "",
          "type": "bool"
        }
      ],
      "stateMutability": "view",
      "type": "function",
      "constant": true
    },
    {
      "inputs": [
        {
          "internalType": "address",
          "name": "",
          "type": "address"
        }
      ],
      "name": "doctorBalanceMap",
      "outputs": [
        {
          "internalType": "uint256",
          "name": "",
          "type": "uint256"
        }
      ],
      "stateMutability": "view",
      "type": "function",
      "constant": true
    },
    {
      "inputs": [
        {
          "internalType": "address",
          "name": "",
          "type": "address"
        }
      ],
      "name": "doctorMap",
      "outputs": [
        {
          "internalType": "string",
          "name": "",
          "type": "string"
        }
      ],
      "stateMutability": "view",
      "type": "function",
      "constant": true
    },
    {
      "inputs": [
        {
          "internalType": "address",
          "name": "",
          "type": "address"
        }
      ],
      "name": "doctorRoleMap",
      "outputs": [
        {
          "internalType": "bool",
          "name": "",
          "type": "bool"
        }
      ],
      "stateMutability": "view",
      "type": "function",
      "constant": true
    },
    {
      "inputs": [
        {
          "internalType": "uint256",
          "name": "",
          "type": "uint256"
        }
      ],
      "name": "doctors",
      "outputs": [
        {
          "internalType": "address",
          "name": "",
          "type": "address"
        }
      ],
      "stateMutability": "view",
      "type": "function",
      "constant": true
    },
    {
      "inputs": [
        {
          "internalType": "address",
          "name": "",
          "type": "address"
        }
      ],
      "name": "medicalMap",
      "outputs": [
        {
          "internalType": "string",
          "name": "patientName",
          "type": "string"
        },
        {
          "internalType": "string",
          "name": "bloodType",
          "type": "string"
        },
        {
          "internalType": "string",
          "name": "lastUpdate",
          "type": "string"
        },
        {
          "components": [
            {
              "internalType": "string",
              "name": "lastUpdate",
              "type": "string"
            },
            {
              "internalType": "string",
              "name": "doctorName",
              "type": "string"
            }
          ],
          "internalType": "struct MedicalData.MedicalInsData",
          "name": "medicalInsData",
          "type": "tuple"
        }
      ],
      "stateMutability": "view",
      "type": "function",
      "constant": true
    },
    {
      "inputs": [],
      "name": "owner",
      "outputs": [
        {
          "internalType": "address",
          "name": "",
          "type": "address"
        }
      ],
      "stateMutability": "view",
      "type": "function",
      "constant": true
    },
    {
      "inputs": [
        {
          "internalType": "address",
          "name": "",
          "type": "address"
        },
        {
          "internalType": "address",
          "name": "",
          "type": "address"
        }
      ],
      "name": "requireMap",
      "outputs": [
        {
          "internalType": "bool",
          "name": "",
          "type": "bool"
        }
      ],
      "stateMutability": "view",
      "type": "function",
      "constant": true
    },
    {
      "inputs": [
        {
          "internalType": "address",
          "name": "doctor",
          "type": "address"
        }
      ],
      "name": "approve",
      "outputs": [],
      "stateMutability": "nonpayable",
      "type": "function"
    },
    {
      "inputs": [
        {
          "internalType": "address",
          "name": "doctor",
          "type": "address"
        }
      ],
      "name": "changeStatus",
      "outputs": [],
      "stateMutability": "nonpayable",
      "type": "function"
    },
    {
      "inputs": [
        {
          "internalType": "address",
          "name": "patient",
          "type": "address"
        }
      ],
      "name": "claimApprove",
      "outputs": [],
      "stateMutability": "nonpayable",
      "type": "function"
    },
    {
      "inputs": [
        {
          "internalType": "address",
          "name": "patientAddr",
          "type": "address"
        },
        {
          "internalType": "string",
          "name": "patientName",
          "type": "string"
        },
        {
          "internalType": "string",
          "name": "bloodType",
          "type": "string"
        },
        {
          "internalType": "string",
          "name": "lastUpDate",
          "type": "string"
        },
        {
          "internalType": "string",
          "name": "doctorName",
          "type": "string"
        }
      ],
      "name": "createMedicalData",
      "outputs": [],
      "stateMutability": "nonpayable",
      "type": "function"
    },
    {
      "inputs": [
        {
          "internalType": "address",
          "name": "patientAddr",
          "type": "address"
        },
        {
          "internalType": "string",
          "name": "patientName",
          "type": "string"
        },
        {
          "internalType": "string",
          "name": "bloodType",
          "type": "string"
        },
        {
          "internalType": "string",
          "name": "lastUpDate",
          "type": "string"
        },
        {
          "internalType": "string",
          "name": "doctorName",
          "type": "string"
        }
      ],
      "name": "editMedicalData",
      "outputs": [],
      "stateMutability": "nonpayable",
      "type": "function"
    },
    {
      "inputs": [
        {
          "internalType": "address",
          "name": "patient",
          "type": "address"
        }
      ],
      "name": "deleteMedicalData",
      "outputs": [],
      "stateMutability": "nonpayable",
      "type": "function"
    },
    {
      "inputs": [],
      "name": "selectMedicalData",
      "outputs": [
        {
          "components": [
            {
              "internalType": "string",
              "name": "patientName",
              "type": "string"
            },
            {
              "internalType": "string",
              "name": "bloodType",
              "type": "string"
            },
            {
              "internalType": "string",
              "name": "lastUpdate",
              "type": "string"
            },
            {
              "components": [
                {
                  "internalType": "string",
                  "name": "lastUpdate",
                  "type": "string"
                },
                {
                  "internalType": "string",
                  "name": "doctorName",
                  "type": "string"
                }
              ],
              "internalType": "struct MedicalData.MedicalInsData",
              "name": "medicalInsData",
              "type": "tuple"
            }
          ],
          "internalType": "struct MedicalData.PatientMedicalData",
          "name": "",
          "type": "tuple"
        }
      ],
      "stateMutability": "view",
      "type": "function",
      "constant": true
    },
    {
      "inputs": [
        {
          "internalType": "address",
          "name": "patient",
          "type": "address"
        }
      ],
      "name": "selectPatientMedicalData",
      "outputs": [
        {
          "components": [
            {
              "internalType": "string",
              "name": "patientName",
              "type": "string"
            },
            {
              "internalType": "string",
              "name": "bloodType",
              "type": "string"
            },
            {
              "internalType": "string",
              "name": "lastUpdate",
              "type": "string"
            },
            {
              "components": [
                {
                  "internalType": "string",
                  "name": "lastUpdate",
                  "type": "string"
                },
                {
                  "internalType": "string",
                  "name": "doctorName",
                  "type": "string"
                }
              ],
              "internalType": "struct MedicalData.MedicalInsData",
              "name": "medicalInsData",
              "type": "tuple"
            }
          ],
          "internalType": "struct MedicalData.PatientMedicalData",
          "name": "",
          "type": "tuple"
        }
      ],
      "stateMutability": "view",
      "type": "function",
      "constant": true
    },
    {
      "inputs": [
        {
          "internalType": "address",
          "name": "doctorAddress",
          "type": "address"
        },
        {
          "internalType": "string",
          "name": "doctorName",
          "type": "string"
        }
      ],
      "name": "registDoctor",
      "outputs": [],
      "stateMutability": "nonpayable",
      "type": "function"
    },
    {
      "inputs": [],
      "name": "getDoctors",
      "outputs": [
        {
          "internalType": "address[]",
          "name": "",
          "type": "address[]"
        }
      ],
      "stateMutability": "view",
      "type": "function",
      "constant": true
    },
    {
      "inputs": [],
      "name": "getDoctorInfo",
      "outputs": [
        {
          "components": [
            {
              "internalType": "address",
              "name": "doctorAddr",
              "type": "address"
            },
            {
              "internalType": "string",
              "name": "doctorName",
              "type": "string"
            },
            {
              "internalType": "bool",
              "name": "isRequire",
              "type": "bool"
            },
            {
              "internalType": "bool",
              "name": "isApprove",
              "type": "bool"
            }
          ],
          "internalType": "struct MedicalData.DoctorInfo[]",
          "name": "result",
          "type": "tuple[]"
        }
      ],
      "stateMutability": "view",
      "type": "function",
      "constant": true
    },
    {
      "inputs": [
        {
          "internalType": "address",
          "name": "doctorAddr",
          "type": "address"
        },
        {
          "internalType": "uint256",
          "name": "amount",
          "type": "uint256"
        }
      ],
      "name": "pay",
      "outputs": [],
      "stateMutability": "payable",
      "type": "function",
      "payable": true
    },
    {
      "inputs": [],
      "name": "withdraw",
      "outputs": [],
      "stateMutability": "payable",
      "type": "function",
      "payable": true
    }
  ],
  "bytecode": "0x60806040523480156200001157600080fd5b506040516200434638038062004346833981810160405281019062000037919062000525565b336000806101000a81548173ffffffffffffffffffffffffffffffffffffffff021916908373ffffffffffffffffffffffffffffffffffffffff16021790555060005b8251811015620002af576001838281518110620000c0577f4e487b7100000000000000000000000000000000000000000000000000000000600052603260045260246000fd5b60200260200101519080600181540180825580915050600190039060005260206000200160009091909190916101000a81548173ffffffffffffffffffffffffffffffffffffffff021916908373ffffffffffffffffffffffffffffffffffffffff16021790555081818151811062000162577f4e487b7100000000000000000000000000000000000000000000000000000000600052603260045260246000fd5b602002602001015160036000858481518110620001a8577f4e487b7100000000000000000000000000000000000000000000000000000000600052603260045260246000fd5b602002602001015173ffffffffffffffffffffffffffffffffffffffff1673ffffffffffffffffffffffffffffffffffffffff1681526020019081526020016000209080519060200190620001ff929190620002b8565b5060016004600085848151811062000240577f4e487b7100000000000000000000000000000000000000000000000000000000600052603260045260246000fd5b602002602001015173ffffffffffffffffffffffffffffffffffffffff1673ffffffffffffffffffffffffffffffffffffffff16815260200190815260200160002060006101000a81548160ff0219169083151502179055508080620002a69062000707565b9150506200007a565b505050620007fc565b828054620002c690620006d1565b90600052602060002090601f016020900481019282620002ea576000855562000336565b82601f106200030557805160ff191683800117855562000336565b8280016001018555821562000336579182015b828111156200033557825182559160200191906001019062000318565b5b50905062000345919062000349565b5090565b5b80821115620003645760008160009055506001016200034a565b5090565b60006200037f6200037984620005cc565b62000598565b905080838252602082019050828560208602820111156200039f57600080fd5b60005b85811015620003d35781620003b8888262000487565b845260208401935060208301925050600181019050620003a2565b5050509392505050565b6000620003f4620003ee84620005fb565b62000598565b9050808382526020820190508260005b858110156200043857815185016200041d8882620004f8565b84526020840193506020830192505060018101905062000404565b5050509392505050565b60006200045962000453846200062a565b62000598565b9050828152602081018484840111156200047257600080fd5b6200047f8482856200069b565b509392505050565b6000815190506200049881620007e2565b92915050565b600082601f830112620004b057600080fd5b8151620004c284826020860162000368565b91505092915050565b600082601f830112620004dd57600080fd5b8151620004ef848260208601620003dd565b91505092915050565b600082601f8301126200050a57600080fd5b81516200051c84826020860162000442565b91505092915050565b600080604083850312156200053957600080fd5b600083015167ffffffffffffffff8111156200055457600080fd5b62000562858286016200049e565b925050602083015167ffffffffffffffff8111156200058057600080fd5b6200058e85828601620004cb565b9150509250929050565b6000604051905081810181811067ffffffffffffffff82111715620005c257620005c1620007b3565b5b8060405250919050565b600067ffffffffffffffff821115620005ea57620005e9620007b3565b5b602082029050602081019050919050565b600067ffffffffffffffff821115620006195762000618620007b3565b5b602082029050602081019050919050565b600067ffffffffffffffff821115620006485762000647620007b3565b5b601f19601f8301169050602081019050919050565b60006200066a8262000671565b9050919050565b600073ffffffffffffffffffffffffffffffffffffffff82169050919050565b6000819050919050565b60005b83811015620006bb5780820151818401526020810190506200069e565b83811115620006cb576000848401525b50505050565b60006002820490506001821680620006ea57607f821691505b6020821081141562000701576200070062000784565b5b50919050565b6000620007148262000691565b91507fffffffffffffffffffffffffffffffffffffffffffffffffffffffffffffffff8214156200074a576200074962000755565b5b600182019050919050565b7f4e487b7100000000000000000000000000000000000000000000000000000000600052601160045260246000fd5b7f4e487b7100000000000000000000000000000000000000000000000000000000600052602260045260246000fd5b7f4e487b7100000000000000000000000000000000000000000000000000000000600052604160045260246000fd5b620007ed816200065d565b8114620007f957600080fd5b50565b613b3a806200080c6000396000f3fe60806040526004361061012a5760003560e01c80637f24710a116100ab578063b13d5d941161006f578063b13d5d9414610407578063b380f5c614610432578063c40768761461045d578063d1229aee14610479578063daea85c5146104a2578063fd61bd92146104cb5761012a565b80637f24710a146103225780638200a9661461035f5780638da5cb5b1461038857806390c1e638146103b357806394b502d1146103de5761012a565b80635d2ec7cf116100f25780635d2ec7cf146102195780636aa3f233146102425780636efb1b841461027f5780636f8eecfd146102bc578063794e217d146102e55761012a565b80631fe51d901461012f5780632227d64e1461016c5780633b6d9390146101a95780633ccfd60b146101e657806346ba4ceb146101f0575b600080fd5b34801561013b57600080fd5b5061015660048036038101906101519190612d55565b61050b565b6040516101639190613617565b60405180910390f35b34801561017857600080fd5b50610193600480360381019061018e9190612d2c565b61053a565b6040516101a091906137b7565b60405180910390f35b3480156101b557600080fd5b506101d060048036038101906101cb9190612d2c565b610552565b6040516101dd9190613632565b60405180910390f35b6101ee6105f2565b005b3480156101fc57600080fd5b5061021760048036038101906102129190612de5565b610879565b005b34801561022557600080fd5b50610240600480360381019061023b9190612d2c565b610b43565b005b34801561024e57600080fd5b5061026960048036038101906102649190612d2c565b610ca7565b6040516102769190613617565b60405180910390f35b34801561028b57600080fd5b506102a660048036038101906102a19190612ef8565b610cc7565b6040516102b391906134c7565b60405180910390f35b3480156102c857600080fd5b506102e360048036038101906102de9190612d2c565b610d06565b005b3480156102f157600080fd5b5061030c60048036038101906103079190612d55565b610e6a565b6040516103199190613617565b60405180910390f35b34801561032e57600080fd5b5061034960048036038101906103449190612d2c565b610e99565b6040516103569190613795565b60405180910390f35b34801561036b57600080fd5b5061038660048036038101906103819190612d91565b611345565b005b34801561039457600080fd5b5061039d61151f565b6040516103aa91906134c7565b60405180910390f35b3480156103bf57600080fd5b506103c8611543565b6040516103d59190613795565b60405180910390f35b3480156103ea57600080fd5b5061040560048036038101906104009190612de5565b61191b565b005b34801561041357600080fd5b5061041c611be5565b60405161042991906135d3565b60405180910390f35b34801561043e57600080fd5b50610447611c73565b60405161045491906135f5565b60405180910390f35b61047760048036038101906104729190612ebc565b61211e565b005b34801561048557600080fd5b506104a0600480360381019061049b9190612d2c565b6122e9565b005b3480156104ae57600080fd5b506104c960048036038101906104c49190612d2c565b61263e565b005b3480156104d757600080fd5b506104f260048036038101906104ed9190612d2c565b612837565b6040516105029493929190613654565b60405180910390f35b60066020528160005260406000206020528060005260406000206000915091509054906101000a900460ff1681565b60056020528060005260406000206000915090505481565b60036020528060005260406000206000915090508054610571906139bd565b80601f016020809104026020016040519081016040528092919081815260200182805461059d906139bd565b80156105ea5780601f106105bf576101008083540402835291602001916105ea565b820191906000526020600020905b8154815290600101906020018083116105cd57829003601f168201915b505050505081565b60011515600460003373ffffffffffffffffffffffffffffffffffffffff1673ffffffffffffffffffffffffffffffffffffffff16815260200190815260200160002060009054906101000a900460ff16151514610685576040517f08c379a000000000000000000000000000000000000000000000000000000000815260040161067c906136f5565b60405180910390fd5b6000600560003373ffffffffffffffffffffffffffffffffffffffff1673ffffffffffffffffffffffffffffffffffffffff1681526020019081526020016000205411610707576040517f08c379a00000000000000000000000000000000000000000000000000000000081526004016106fe90613735565b60405180910390fd5b6000600560003373ffffffffffffffffffffffffffffffffffffffff1673ffffffffffffffffffffffffffffffffffffffff16815260200190815260200160002054905060003373ffffffffffffffffffffffffffffffffffffffff1682604051610771906134b2565b60006040518083038185875af1925050503d80600081146107ae576040519150601f19603f3d011682016040523d82523d6000602084013e6107b3565b606091505b50509050806107f7576040517f08c379a00000000000000000000000000000000000000000000000000000000081526004016107ee906136b5565b60405180910390fd5b6000600560003373ffffffffffffffffffffffffffffffffffffffff1673ffffffffffffffffffffffffffffffffffffffff168152602001908152602001600020819055507f884edad9ce6fa2440d8a54cc123490eb96d2768479d49ff9c7366125a9424364338360405161086d9291906135aa565b60405180910390a15050565b60011515600460003373ffffffffffffffffffffffffffffffffffffffff1673ffffffffffffffffffffffffffffffffffffffff16815260200190815260200160002060009054906101000a900460ff1615151461090c576040517f08c379a0000000000000000000000000000000000000000000000000000000008152600401610903906136f5565b60405180910390fd5b8460011515600660008373ffffffffffffffffffffffffffffffffffffffff1673ffffffffffffffffffffffffffffffffffffffff16815260200190815260200160002060003373ffffffffffffffffffffffffffffffffffffffff1673ffffffffffffffffffffffffffffffffffffffff16815260200190815260200160002060009054906101000a900460ff161515146109dd576040517f08c379a00000000000000000000000000000000000000000000000000000000081526004016109d490613715565b60405180910390fd5b600060405180604001604052808581526020018481525090506000604051806080016040528088815260200187815260200186815260200183815250905080600260008a73ffffffffffffffffffffffffffffffffffffffff1673ffffffffffffffffffffffffffffffffffffffff1681526020019081526020016000206000820151816000019080519060200190610a77929190612b2d565b506020820151816001019080519060200190610a94929190612b2d565b506040820151816002019080519060200190610ab1929190612b2d565b506060820151816003016000820151816000019080519060200190610ad7929190612b2d565b506020820151816001019080519060200190610af4929190612b2d565b5050509050507f36d37aa514b1c78519f8a61a0ebc1d8a75a95150d9ba9f33d4656f5be7ece1758888888888604051610b3195949392919061353b565b60405180910390a15050505050505050565b60011515600460003373ffffffffffffffffffffffffffffffffffffffff1673ffffffffffffffffffffffffffffffffffffffff16815260200190815260200160002060009054906101000a900460ff16151514610bd6576040517f08c379a0000000000000000000000000000000000000000000000000000000008152600401610bcd906136f5565b60405180910390fd5b6001600760003373ffffffffffffffffffffffffffffffffffffffff1673ffffffffffffffffffffffffffffffffffffffff16815260200190815260200160002060008373ffffffffffffffffffffffffffffffffffffffff1673ffffffffffffffffffffffffffffffffffffffff16815260200190815260200160002060006101000a81548160ff0219169083151502179055507fcbe9b38decde986abb73b6b7886822d593acaf5c22aaa47e3360ce71f2602bf23382604051610c9c9291906134e2565b60405180910390a150565b60046020528060005260406000206000915054906101000a900460ff1681565b60018181548110610cd757600080fd5b906000526020600020016000915054906101000a900473ffffffffffffffffffffffffffffffffffffffff1681565b60001515600460003373ffffffffffffffffffffffffffffffffffffffff1673ffffffffffffffffffffffffffffffffffffffff16815260200190815260200160002060009054906101000a900460ff16151514610d99576040517f08c379a0000000000000000000000000000000000000000000000000000000008152600401610d9090613755565b60405180910390fd5b6000600660003373ffffffffffffffffffffffffffffffffffffffff1673ffffffffffffffffffffffffffffffffffffffff16815260200190815260200160002060008373ffffffffffffffffffffffffffffffffffffffff1673ffffffffffffffffffffffffffffffffffffffff16815260200190815260200160002060006101000a81548160ff0219169083151502179055507f8730e7f2743238cf595c2a262e2b3e6d4475c7170f64568864954543d4443e5e3382604051610e5f9291906134e2565b60405180910390a150565b60076020528160005260406000206020528060005260406000206000915091509054906101000a900460ff1681565b610ea1612bb3565b60011515600460003373ffffffffffffffffffffffffffffffffffffffff1673ffffffffffffffffffffffffffffffffffffffff16815260200190815260200160002060009054906101000a900460ff16151514610f34576040517f08c379a0000000000000000000000000000000000000000000000000000000008152600401610f2b906136f5565b60405180910390fd5b8160011515600660008373ffffffffffffffffffffffffffffffffffffffff1673ffffffffffffffffffffffffffffffffffffffff16815260200190815260200160002060003373ffffffffffffffffffffffffffffffffffffffff1673ffffffffffffffffffffffffffffffffffffffff16815260200190815260200160002060009054906101000a900460ff16151514611005576040517f08c379a0000000000000000000000000000000000000000000000000000000008152600401610ffc90613715565b60405180910390fd5b600260008473ffffffffffffffffffffffffffffffffffffffff1673ffffffffffffffffffffffffffffffffffffffff16815260200190815260200160002060405180608001604052908160008201805461105f906139bd565b80601f016020809104026020016040519081016040528092919081815260200182805461108b906139bd565b80156110d85780601f106110ad576101008083540402835291602001916110d8565b820191906000526020600020905b8154815290600101906020018083116110bb57829003601f168201915b505050505081526020016001820180546110f1906139bd565b80601f016020809104026020016040519081016040528092919081815260200182805461111d906139bd565b801561116a5780601f1061113f5761010080835404028352916020019161116a565b820191906000526020600020905b81548152906001019060200180831161114d57829003601f168201915b50505050508152602001600282018054611183906139bd565b80601f01602080910402602001604051908101604052809291908181526020018280546111af906139bd565b80156111fc5780601f106111d1576101008083540402835291602001916111fc565b820191906000526020600020905b8154815290600101906020018083116111df57829003601f168201915b5050505050815260200160038201604051806040016040529081600082018054611225906139bd565b80601f0160208091040260200160405190810160405280929190818152602001828054611251906139bd565b801561129e5780601f106112735761010080835404028352916020019161129e565b820191906000526020600020905b81548152906001019060200180831161128157829003601f168201915b505050505081526020016001820180546112b7906139bd565b80601f01602080910402602001604051908101604052809291908181526020018280546112e3906139bd565b80156113305780601f1061130557610100808354040283529160200191611330565b820191906000526020600020905b81548152906001019060200180831161131357829003601f168201915b50505050508152505081525050915050919050565b3373ffffffffffffffffffffffffffffffffffffffff1660008054906101000a900473ffffffffffffffffffffffffffffffffffffffff1673ffffffffffffffffffffffffffffffffffffffff16146113d3576040517f08c379a00000000000000000000000000000000000000000000000000000000081526004016113ca90613775565b60405180910390fd5b6001829080600181540180825580915050600190039060005260206000200160009091909190916101000a81548173ffffffffffffffffffffffffffffffffffffffff021916908373ffffffffffffffffffffffffffffffffffffffff16021790555080600360008473ffffffffffffffffffffffffffffffffffffffff1673ffffffffffffffffffffffffffffffffffffffff1681526020019081526020016000209080519060200190611489929190612b2d565b506001600460008473ffffffffffffffffffffffffffffffffffffffff1673ffffffffffffffffffffffffffffffffffffffff16815260200190815260200160002060006101000a81548160ff0219169083151502179055507f61bcd75d1ded61d8234e3d22b69fe8e58b0dfcd033d15ed609be8a58c785f463828260405161151392919061350b565b60405180910390a15050565b60008054906101000a900473ffffffffffffffffffffffffffffffffffffffff1681565b61154b612bb3565b60001515600460003373ffffffffffffffffffffffffffffffffffffffff1673ffffffffffffffffffffffffffffffffffffffff16815260200190815260200160002060009054906101000a900460ff161515146115de576040517f08c379a00000000000000000000000000000000000000000000000000000000081526004016115d590613755565b60405180910390fd5b600260003373ffffffffffffffffffffffffffffffffffffffff1673ffffffffffffffffffffffffffffffffffffffff168152602001908152602001600020604051806080016040529081600082018054611638906139bd565b80601f0160208091040260200160405190810160405280929190818152602001828054611664906139bd565b80156116b15780601f10611686576101008083540402835291602001916116b1565b820191906000526020600020905b81548152906001019060200180831161169457829003601f168201915b505050505081526020016001820180546116ca906139bd565b80601f01602080910402602001604051908101604052809291908181526020018280546116f6906139bd565b80156117435780601f1061171857610100808354040283529160200191611743565b820191906000526020600020905b81548152906001019060200180831161172657829003601f168201915b5050505050815260200160028201805461175c906139bd565b80601f0160208091040260200160405190810160405280929190818152602001828054611788906139bd565b80156117d55780601f106117aa576101008083540402835291602001916117d5565b820191906000526020600020905b8154815290600101906020018083116117b857829003601f168201915b50505050508152602001600382016040518060400160405290816000820180546117fe906139bd565b80601f016020809104026020016040519081016040528092919081815260200182805461182a906139bd565b80156118775780601f1061184c57610100808354040283529160200191611877565b820191906000526020600020905b81548152906001019060200180831161185a57829003601f168201915b50505050508152602001600182018054611890906139bd565b80601f01602080910402602001604051908101604052809291908181526020018280546118bc906139bd565b80156119095780601f106118de57610100808354040283529160200191611909565b820191906000526020600020905b8154815290600101906020018083116118ec57829003601f168201915b50505050508152505081525050905090565b60011515600460003373ffffffffffffffffffffffffffffffffffffffff1673ffffffffffffffffffffffffffffffffffffffff16815260200190815260200160002060009054906101000a900460ff161515146119ae576040517f08c379a00000000000000000000000000000000000000000000000000000000081526004016119a5906136f5565b60405180910390fd5b8460011515600660008373ffffffffffffffffffffffffffffffffffffffff1673ffffffffffffffffffffffffffffffffffffffff16815260200190815260200160002060003373ffffffffffffffffffffffffffffffffffffffff1673ffffffffffffffffffffffffffffffffffffffff16815260200190815260200160002060009054906101000a900460ff16151514611a7f576040517f08c379a0000000000000000000000000000000000000000000000000000000008152600401611a7690613715565b60405180910390fd5b600060405180604001604052808581526020018481525090506000604051806080016040528088815260200187815260200186815260200183815250905080600260008a73ffffffffffffffffffffffffffffffffffffffff1673ffffffffffffffffffffffffffffffffffffffff1681526020019081526020016000206000820151816000019080519060200190611b19929190612b2d565b506020820151816001019080519060200190611b36929190612b2d565b506040820151816002019080519060200190611b53929190612b2d565b506060820151816003016000820151816000019080519060200190611b79929190612b2d565b506020820151816001019080519060200190611b96929190612b2d565b5050509050507f3a9d2e3abbf1feead8ea242e633e03e77bac21532996e4e5c475451da77c87b38888888888604051611bd395949392919061353b565b60405180910390a15050505050505050565b60606001805480602002602001604051908101604052809291908181526020018280548015611c6957602002820191906000526020600020905b8160009054906101000a900473ffffffffffffffffffffffffffffffffffffffff1673ffffffffffffffffffffffffffffffffffffffff1681526020019060010190808311611c1f575b5050505050905090565b6060600060018054905090508067ffffffffffffffff811115611cbf577f4e487b7100000000000000000000000000000000000000000000000000000000600052604160045260246000fd5b604051908082528060200260200182016040528015611cf857816020015b611ce5612be1565b815260200190600190039081611cdd5790505b50915060005b818110156121195760006003600060018481548110611d46577f4e487b7100000000000000000000000000000000000000000000000000000000600052603260045260246000fd5b9060005260206000200160009054906101000a900473ffffffffffffffffffffffffffffffffffffffff1673ffffffffffffffffffffffffffffffffffffffff1673ffffffffffffffffffffffffffffffffffffffff1681526020019081526020016000208054611db6906139bd565b80601f0160208091040260200160405190810160405280929190818152602001828054611de2906139bd565b8015611e2f5780601f10611e0457610100808354040283529160200191611e2f565b820191906000526020600020905b815481529060010190602001808311611e1257829003601f168201915b5050505050905060006007600060018581548110611e76577f4e487b7100000000000000000000000000000000000000000000000000000000600052603260045260246000fd5b9060005260206000200160009054906101000a900473ffffffffffffffffffffffffffffffffffffffff1673ffffffffffffffffffffffffffffffffffffffff1673ffffffffffffffffffffffffffffffffffffffff16815260200190815260200160002060003373ffffffffffffffffffffffffffffffffffffffff1673ffffffffffffffffffffffffffffffffffffffff16815260200190815260200160002060009054906101000a900460ff1690506000600660003373ffffffffffffffffffffffffffffffffffffffff1673ffffffffffffffffffffffffffffffffffffffff168152602001908152602001600020600060018681548110611fa5577f4e487b7100000000000000000000000000000000000000000000000000000000600052603260045260246000fd5b9060005260206000200160009054906101000a900473ffffffffffffffffffffffffffffffffffffffff1673ffffffffffffffffffffffffffffffffffffffff1673ffffffffffffffffffffffffffffffffffffffff16815260200190815260200160002060009054906101000a900460ff1690506000604051806080016040528060018781548110612061577f4e487b7100000000000000000000000000000000000000000000000000000000600052603260045260246000fd5b9060005260206000200160009054906101000a900473ffffffffffffffffffffffffffffffffffffffff1673ffffffffffffffffffffffffffffffffffffffff16815260200185815260200184151581526020018315158152509050808786815181106120f7577f4e487b7100000000000000000000000000000000000000000000000000000000600052603260045260246000fd5b6020026020010181905250505050508080612111906139ef565b915050611cfe565b505090565b60001515600460003373ffffffffffffffffffffffffffffffffffffffff1673ffffffffffffffffffffffffffffffffffffffff16815260200190815260200160002060009054906101000a900460ff161515146121b1576040517f08c379a00000000000000000000000000000000000000000000000000000000081526004016121a890613755565b60405180910390fd5b8060003373ffffffffffffffffffffffffffffffffffffffff16319050818111612210576040517f08c379a0000000000000000000000000000000000000000000000000000000008152600401612207906136d5565b60405180910390fd5b6000600560008673ffffffffffffffffffffffffffffffffffffffff1673ffffffffffffffffffffffffffffffffffffffff1681526020019081526020016000205490506000848261226291906138dd565b905080600560008873ffffffffffffffffffffffffffffffffffffffff1673ffffffffffffffffffffffffffffffffffffffff168152602001908152602001600020819055507f357b676c439b9e49b4410f8eb8680bee4223724802d8e3fd422e1756f87b475f33866040516122d99291906135aa565b60405180910390a1505050505050565b60011515600460003373ffffffffffffffffffffffffffffffffffffffff1673ffffffffffffffffffffffffffffffffffffffff16815260200190815260200160002060009054906101000a900460ff1615151461237c576040517f08c379a0000000000000000000000000000000000000000000000000000000008152600401612373906136f5565b60405180910390fd5b8060011515600660008373ffffffffffffffffffffffffffffffffffffffff1673ffffffffffffffffffffffffffffffffffffffff16815260200190815260200160002060003373ffffffffffffffffffffffffffffffffffffffff1673ffffffffffffffffffffffffffffffffffffffff16815260200190815260200160002060009054906101000a900460ff1615151461244d576040517f08c379a000000000000000000000000000000000000000000000000000000000815260040161244490613715565b60405180910390fd5b600260008373ffffffffffffffffffffffffffffffffffffffff1673ffffffffffffffffffffffffffffffffffffffff1681526020019081526020016000206000808201600061249d9190612c23565b6001820160006124ad9190612c23565b6002820160006124bd9190612c23565b60038201600080820160006124d29190612c23565b6001820160006124e29190612c23565b5050505060005b600180549050811015612602576000600660008573ffffffffffffffffffffffffffffffffffffffff1673ffffffffffffffffffffffffffffffffffffffff168152602001908152602001600020600060018481548110612573577f4e487b7100000000000000000000000000000000000000000000000000000000600052603260045260246000fd5b9060005260206000200160009054906101000a900473ffffffffffffffffffffffffffffffffffffffff1673ffffffffffffffffffffffffffffffffffffffff1673ffffffffffffffffffffffffffffffffffffffff16815260200190815260200160002060006101000a81548160ff02191690831515021790555080806125fa906139ef565b9150506124e9565b507fd7753f3b8a7bd1cdece74a0a97a24e6418c57a841e5607d0fecdff37cd358dbd8260405161263291906134c7565b60405180910390a15050565b60001515600460003373ffffffffffffffffffffffffffffffffffffffff1673ffffffffffffffffffffffffffffffffffffffff16815260200190815260200160002060009054906101000a900460ff161515146126d1576040517f08c379a00000000000000000000000000000000000000000000000000000000081526004016126c890613755565b60405180910390fd5b6001600660003373ffffffffffffffffffffffffffffffffffffffff1673ffffffffffffffffffffffffffffffffffffffff16815260200190815260200160002060008373ffffffffffffffffffffffffffffffffffffffff1673ffffffffffffffffffffffffffffffffffffffff16815260200190815260200160002060006101000a81548160ff0219169083151502179055506000600760008373ffffffffffffffffffffffffffffffffffffffff1673ffffffffffffffffffffffffffffffffffffffff16815260200190815260200160002060003373ffffffffffffffffffffffffffffffffffffffff1673ffffffffffffffffffffffffffffffffffffffff16815260200190815260200160002060006101000a81548160ff0219169083151502179055507faad2833c9fd7a3de33f301e5186ee84d1a5753ce32de6b97baedaac4b92b55fc338260405161282c9291906134e2565b60405180910390a150565b600260205280600052604060002060009150905080600001805461285a906139bd565b80601f0160208091040260200160405190810160405280929190818152602001828054612886906139bd565b80156128d35780601f106128a8576101008083540402835291602001916128d3565b820191906000526020600020905b8154815290600101906020018083116128b657829003601f168201915b5050505050908060010180546128e8906139bd565b80601f0160208091040260200160405190810160405280929190818152602001828054612914906139bd565b80156129615780601f1061293657610100808354040283529160200191612961565b820191906000526020600020905b81548152906001019060200180831161294457829003601f168201915b505050505090806002018054612976906139bd565b80601f01602080910402602001604051908101604052809291908181526020018280546129a2906139bd565b80156129ef5780601f106129c4576101008083540402835291602001916129ef565b820191906000526020600020905b8154815290600101906020018083116129d257829003601f168201915b50505050509080600301604051806040016040529081600082018054612a14906139bd565b80601f0160208091040260200160405190810160405280929190818152602001828054612a40906139bd565b8015612a8d5780601f10612a6257610100808354040283529160200191612a8d565b820191906000526020600020905b815481529060010190602001808311612a7057829003601f168201915b50505050508152602001600182018054612aa6906139bd565b80601f0160208091040260200160405190810160405280929190818152602001828054612ad2906139bd565b8015612b1f5780601f10612af457610100808354040283529160200191612b1f565b820191906000526020600020905b815481529060010190602001808311612b0257829003601f168201915b505050505081525050905084565b828054612b39906139bd565b90600052602060002090601f016020900481019282612b5b5760008555612ba2565b82601f10612b7457805160ff1916838001178555612ba2565b82800160010185558215612ba2579182015b82811115612ba1578251825591602001919060010190612b86565b5b509050612baf9190612c63565b5090565b6040518060800160405280606081526020016060815260200160608152602001612bdb612c80565b81525090565b6040518060800160405280600073ffffffffffffffffffffffffffffffffffffffff168152602001606081526020016000151581526020016000151581525090565b508054612c2f906139bd565b6000825580601f10612c415750612c60565b601f016020900490600052602060002090810190612c5f9190612c63565b5b50565b5b80821115612c7c576000816000905550600101612c64565b5090565b604051806040016040528060608152602001606081525090565b6000612cad612ca884613803565b6137d2565b905082815260208101848484011115612cc557600080fd5b612cd084828561397b565b509392505050565b600081359050612ce781613ad6565b92915050565b600082601f830112612cfe57600080fd5b8135612d0e848260208601612c9a565b91505092915050565b600081359050612d2681613aed565b92915050565b600060208284031215612d3e57600080fd5b6000612d4c84828501612cd8565b91505092915050565b60008060408385031215612d6857600080fd5b6000612d7685828601612cd8565b9250506020612d8785828601612cd8565b9150509250929050565b60008060408385031215612da457600080fd5b6000612db285828601612cd8565b925050602083013567ffffffffffffffff811115612dcf57600080fd5b612ddb85828601612ced565b9150509250929050565b600080600080600060a08688031215612dfd57600080fd5b6000612e0b88828901612cd8565b955050602086013567ffffffffffffffff811115612e2857600080fd5b612e3488828901612ced565b945050604086013567ffffffffffffffff811115612e5157600080fd5b612e5d88828901612ced565b935050606086013567ffffffffffffffff811115612e7a57600080fd5b612e8688828901612ced565b925050608086013567ffffffffffffffff811115612ea357600080fd5b612eaf88828901612ced565b9150509295509295909350565b60008060408385031215612ecf57600080fd5b6000612edd85828601612cd8565b9250506020612eee85828601612d17565b9150509250929050565b600060208284031215612f0a57600080fd5b6000612f1884828501612d17565b91505092915050565b6000612f2d8383612f4d565b60208301905092915050565b6000612f458383613340565b905092915050565b612f5681613933565b82525050565b612f6581613933565b82525050565b6000612f7682613853565b612f80818561388e565b9350612f8b83613833565b8060005b83811015612fbc578151612fa38882612f21565b9750612fae83613874565b925050600181019050612f8f565b5085935050505092915050565b6000612fd48261385e565b612fde818561389f565b935083602082028501612ff085613843565b8060005b8581101561302c578484038952815161300d8582612f39565b945061301883613881565b925060208a01995050600181019050612ff4565b50829750879550505050505092915050565b61304781613945565b82525050565b61305681613945565b82525050565b600061306782613869565b61307181856138bb565b935061308181856020860161398a565b61308a81613ac5565b840191505092915050565b60006130a082613869565b6130aa81856138cc565b93506130ba81856020860161398a565b6130c381613ac5565b840191505092915050565b60006130db6010836138cc565b91507f7769746864726177206661696c65642e000000000000000000000000000000006000830152602082019050919050565b600061311b6019836138cc565b91507f4e6f206574686572206c65667420746f207769746864726177000000000000006000830152602082019050919050565b600061315b6023836138cc565b91507f6d73672e73656e64646572206d757374206861766520646f63746f7220726f6c60008301527f65212100000000000000000000000000000000000000000000000000000000006020830152604082019050919050565b60006131c16021836138cc565b91507f796f75206d75737420626520617070726f7665642062792070617469656e742160008301527f21000000000000000000000000000000000000000000000000000000000000006020830152604082019050919050565b60006132276000836138b0565b9150600082019050919050565b60006132416011836138cc565b91507f62616c616e6365206973207a65726f21210000000000000000000000000000006000830152602082019050919050565b60006132816024836138cc565b91507f6d73672e73656e64646572206d75737420686176652070617469656e7420726f60008301527f6c652121000000000000000000000000000000000000000000000000000000006020830152604082019050919050565b60006132e76025836138cc565b91507f6d73672e73656e646572206d757374206265206f776e6572277320616464726560008301527f73732021210000000000000000000000000000000000000000000000000000006020830152604082019050919050565b60006080830160008301516133586000860182612f4d565b5060208301518482036020860152613370828261305c565b9150506040830151613385604086018261303e565b506060830151613398606086018261303e565b508091505092915050565b600060408301600083015184820360008601526133c0828261305c565b915050602083015184820360208601526133da828261305c565b9150508091505092915050565b60006040830160008301518482036000860152613404828261305c565b9150506020830151848203602086015261341e828261305c565b9150508091505092915050565b60006080830160008301518482036000860152613448828261305c565b91505060208301518482036020860152613462828261305c565b9150506040830151848203604086015261347c828261305c565b9150506060830151848203606086015261349682826133a3565b9150508091505092915050565b6134ac81613971565b82525050565b60006134bd8261321a565b9150819050919050565b60006020820190506134dc6000830184612f5c565b92915050565b60006040820190506134f76000830185612f5c565b6135046020830184612f5c565b9392505050565b60006040820190506135206000830185612f5c565b81810360208301526135328184613095565b90509392505050565b600060a0820190506135506000830188612f5c565b81810360208301526135628187613095565b905081810360408301526135768186613095565b9050818103606083015261358a8185613095565b9050818103608083015261359e8184613095565b90509695505050505050565b60006040820190506135bf6000830185612f5c565b6135cc60208301846134a3565b9392505050565b600060208201905081810360008301526135ed8184612f6b565b905092915050565b6000602082019050818103600083015261360f8184612fc9565b905092915050565b600060208201905061362c600083018461304d565b92915050565b6000602082019050818103600083015261364c8184613095565b905092915050565b6000608082019050818103600083015261366e8187613095565b905081810360208301526136828186613095565b905081810360408301526136968185613095565b905081810360608301526136aa81846133e7565b905095945050505050565b600060208201905081810360008301526136ce816130ce565b9050919050565b600060208201905081810360008301526136ee8161310e565b9050919050565b6000602082019050818103600083015261370e8161314e565b9050919050565b6000602082019050818103600083015261372e816131b4565b9050919050565b6000602082019050818103600083015261374e81613234565b9050919050565b6000602082019050818103600083015261376e81613274565b9050919050565b6000602082019050818103600083015261378e816132da565b9050919050565b600060208201905081810360008301526137af818461342b565b905092915050565b60006020820190506137cc60008301846134a3565b92915050565b6000604051905081810181811067ffffffffffffffff821117156137f9576137f8613a96565b5b8060405250919050565b600067ffffffffffffffff82111561381e5761381d613a96565b5b601f19601f8301169050602081019050919050565b6000819050602082019050919050565b6000819050602082019050919050565b600081519050919050565b600081519050919050565b600081519050919050565b6000602082019050919050565b6000602082019050919050565b600082825260208201905092915050565b600082825260208201905092915050565b600081905092915050565b600082825260208201905092915050565b600082825260208201905092915050565b60006138e882613971565b91506138f383613971565b9250827fffffffffffffffffffffffffffffffffffffffffffffffffffffffffffffffff0382111561392857613927613a38565b5b828201905092915050565b600061393e82613951565b9050919050565b60008115159050919050565b600073ffffffffffffffffffffffffffffffffffffffff82169050919050565b6000819050919050565b82818337600083830152505050565b60005b838110156139a857808201518184015260208101905061398d565b838111156139b7576000848401525b50505050565b600060028204905060018216806139d557607f821691505b602082108114156139e9576139e8613a67565b5b50919050565b60006139fa82613971565b91507fffffffffffffffffffffffffffffffffffffffffffffffffffffffffffffffff821415613a2d57613a2c613a38565b5b600182019050919050565b7f4e487b7100000000000000000000000000000000000000000000000000000000600052601160045260246000fd5b7f4e487b7100000000000000000000000000000000000000000000000000000000600052602260045260246000fd5b7f4e487b7100000000000000000000000000000000000000000000000000000000600052604160045260246000fd5b6000601f19601f8301169050919050565b613adf81613933565b8114613aea57600080fd5b50565b613af681613971565b8114613b0157600080fd5b5056fea26469706673582212206583383f56267a7aabddb26ae1c26698bc1efaf59270655f9a8f8d5bf6322c2064736f6c63430008000033",
  "immutableReferences": {},
  "source": "// SPDX-License-Identifier: MIT\npragma solidity >=0.8.0;\n\ncontract MedicalData {\n    // \n    struct MedicalInsData {\n        // \n        string lastUpdate;\n        // ()\n        string doctorName;\n    }\n\n    // \n    struct PatientMedicalData {\n        // \n        string patientName;\n        // \n        string bloodType;\n        // \n        string lastUpdate;\n        //  MedicalInsData\n        MedicalInsData medicalInsData;\n    }\n\n    // \n    struct DoctorInfo {\n        // \n        address doctorAddr;\n        // \n        string doctorName;\n        // \n        bool isRequire;\n        // \n        bool isApprove;\n    }\n\n    // \n    address public owner;\n    // \n    address[] public doctors;\n    // Map\n    mapping(address => PatientMedicalData) public medicalMap;\n    // Map\n    mapping(address => string) public doctorMap;\n    // Map\n    mapping(address => bool) public doctorRoleMap;\n    //  Map\n    mapping(address => uint256) public doctorBalanceMap;\n    // Map\n    mapping(address => mapping(address => bool)) public approveMap;\n    // Map\n    mapping(address => mapping(address => bool)) public requireMap;\n\n    // \n    modifier onlyPatient() {\n        require(\n            doctorRoleMap[msg.sender] == false,\n            \"msg.sendder must have patient role!!\"\n        );\n        _;\n    }\n\n    // \n    modifier onlyDoctor() {\n        require(\n            doctorRoleMap[msg.sender] == true,\n            \"msg.sendder must have doctor role!!\"\n        );\n        _;\n    }\n\n    // owner\n    modifier onlyOwner() {\n        require(owner == msg.sender, \"msg.sender must be owner's address !!\");\n        _;\n    }\n\n    // \n    modifier isApproved(address patient) {\n        require(\n            approveMap[patient][msg.sender] == true,\n            \"you must be approved by patient!!\"\n        );\n        _;\n    }\n\n    // 0\n    modifier zeroAmount(uint256 amount) {\n        uint256 balance = address(msg.sender).balance;\n        require(balance > amount, \"No ether left to withdraw\");\n        _;\n    }\n\n    // \n    event Approved(address patient, address doctor);\n    event ChangedStatus(address patient, address doctor);\n    event RegistedDoctor(address doctorAddress, string doctorName);\n    event ClaimedApprove(address doctor, address patient);\n    event CreateMedicalData(\n        address patientAddr,\n        string patientName,\n        string bloodType,\n        string lastUpDate,\n        string doctorName\n    );\n    event EditMedicalData(\n        address patientAddr,\n        string patientName,\n        string bloodType,\n        string lastUpDate,\n        string doctorName\n    );\n    event DeleteMedicalData(address patientAddr);\n    event Pay(address patientAddr, uint256 amount);\n    event Withdraw(address doctorAddr, uint256 amount);\n\n    /**\n     * \n     * @param _doctorAddrs \n     * @param _doctorNames \n     */\n    constructor(address[] memory _doctorAddrs, string[] memory _doctorNames) {\n        // owner\n        owner = msg.sender;\n\n        for (uint256 i = 0; i < _doctorAddrs.length; i++) {\n            // \n            doctors.push(_doctorAddrs[i]);\n            // \n            doctorMap[_doctorAddrs[i]] = _doctorNames[i];\n            // \n            doctorRoleMap[_doctorAddrs[i]] = true;\n        }\n    }\n\n    /**\n     * \n     * @param doctor \n     */\n    function approve(address doctor) public onlyPatient {\n        // \n        approveMap[msg.sender][doctor] = true;\n        // false\n        requireMap[doctor][msg.sender] = false;\n        // \n        emit Approved(msg.sender, doctor);\n    }\n\n    /**\n     * \n     * @param doctor \n     */\n    function changeStatus(address doctor) public onlyPatient {\n        // \n        approveMap[msg.sender][doctor] = false;\n        // \n        emit ChangedStatus(msg.sender, doctor);\n    }\n\n    /**\n     * \n     * @param patient \n     */\n    function claimApprove(address patient) public onlyDoctor {\n        // \n        requireMap[msg.sender][patient] = true;\n\n        emit ClaimedApprove(msg.sender, patient);\n    }\n\n    /**\n     * \n     * @param patientAddr \n     * @param patientName \n     * @param bloodType \n     * @param lastUpDate \n     * @param doctorName ()\n     */\n    function createMedicalData(\n        address patientAddr,\n        string memory patientName,\n        string memory bloodType,\n        string memory lastUpDate,\n        string memory doctorName\n    ) public onlyDoctor isApproved(patientAddr) {\n        // Struct\n        MedicalInsData memory medicalInsData = MedicalInsData(\n            lastUpDate,\n            doctorName\n        );\n        // Struct\n        PatientMedicalData memory patientMedicalData = PatientMedicalData(\n            patientName,\n            bloodType,\n            lastUpDate,\n            medicalInsData\n        );\n        // \n        medicalMap[patientAddr] = patientMedicalData;\n        // \n        emit CreateMedicalData(\n            patientAddr,\n            patientName,\n            bloodType,\n            lastUpDate,\n            doctorName\n        );\n    }\n\n    /**\n     * \n     * @param patientAddr \n     * @param patientName \n     * @param bloodType \n     * @param lastUpDate \n     * @param doctorName ()\n     */\n    function editMedicalData(\n        address patientAddr,\n        string memory patientName,\n        string memory bloodType,\n        string memory lastUpDate,\n        string memory doctorName\n    ) public onlyDoctor isApproved(patientAddr) {\n        // Struct\n        MedicalInsData memory newMedicalInsData = MedicalInsData(\n            lastUpDate,\n            doctorName\n        );\n        // Struct\n        PatientMedicalData memory newPatientMedicalData = PatientMedicalData(\n            patientName,\n            bloodType,\n            lastUpDate,\n            newMedicalInsData\n        );\n        // ()\n        medicalMap[patientAddr] = newPatientMedicalData;\n        // \n        emit EditMedicalData(\n            patientAddr,\n            patientName,\n            bloodType,\n            lastUpDate,\n            doctorName\n        );\n    }\n\n    /**\n     * \n     * @param patient \n     */\n    function deleteMedicalData(address patient)\n        public\n        onlyDoctor\n        isApproved(patient)\n    {\n        // \n        delete medicalMap[patient];\n        // \n        for (uint256 i = 0; i < doctors.length; i++) {\n            approveMap[patient][doctors[i]] = false;\n        }\n        // \n        emit DeleteMedicalData(patient);\n    }\n\n    /**\n     * \n     */\n    function selectMedicalData()\n        public\n        view\n        onlyPatient\n        returns (PatientMedicalData memory)\n    {\n        // \n        return medicalMap[msg.sender];\n    }\n\n    /**\n     * \n     * @param patient \n     */\n    function selectPatientMedicalData(address patient)\n        public\n        view\n        onlyDoctor\n        isApproved(patient)\n        returns (PatientMedicalData memory)\n    {\n        // \n        return medicalMap[patient];\n    }\n\n    /**\n     * \n     * @param doctorAddress \n     * @param doctorName \n     */\n    function registDoctor(address doctorAddress, string memory doctorName)\n        public\n        onlyOwner\n    {\n        // \n        doctors.push(doctorAddress);\n        // \n        doctorMap[doctorAddress] = doctorName;\n        // \n        doctorRoleMap[doctorAddress] = true;\n\n        emit RegistedDoctor(doctorAddress, doctorName);\n    }\n\n    /**\n     * \n     */\n    function getDoctors() public view returns (address[] memory) {\n        return doctors;\n    }\n\n    /**\n     * \n     */\n    function getDoctorInfo() public view returns (DoctorInfo[] memory result) {\n        // \n        uint256 size = doctors.length;\n        // \n        result = new DoctorInfo[](size);\n        // DoctorInfo\n        for (uint256 i = 0; i < size; i++) {\n            // \n            string memory doctorName = doctorMap[doctors[i]];\n            // \n            bool isRequired = requireMap[doctors[i]][msg.sender];\n            // \n            bool approved = approveMap[msg.sender][doctors[i]];\n            // DoctorInfo\n            DoctorInfo memory res = DoctorInfo(\n                doctors[i],\n                doctorName,\n                isRequired,\n                approved\n            );\n            result[i] = res;\n        }\n\n        return result;\n    }\n\n    /**\n     * \n     * @param doctorAddr \n     * @param amount \n     */\n    function pay(address doctorAddr, uint256 amount)\n        public\n        payable\n        onlyPatient\n        zeroAmount(amount)\n    {\n        // \n        uint256 currentBalance = doctorBalanceMap[doctorAddr];\n        // \n        uint256 newBalance = currentBalance + amount;\n        // \n        doctorBalanceMap[doctorAddr] = newBalance;\n        // \n        emit Pay(msg.sender, amount);\n    }\n\n    /**\n     * \n     */\n    function withdraw() public payable onlyDoctor {\n        // \n        require(doctorBalanceMap[msg.sender] > 0, \"balance is zero!!\");\n        // \n        uint256 amount = doctorBalanceMap[msg.sender];\n        // send amount to doctorAddress\n        (bool success, ) = payable(msg.sender).call{value: amount}(\"\");\n        require(success, \"withdraw failed.\");\n        // 0\n        doctorBalanceMap[msg.sender] = 0;\n        // \n        emit Withdraw(msg.sender, amount);\n    }\n}\n",
  "sourcePath": "/Users/harukikondo/git/Web3MedicalDApp/backend/contracts/MedicalData.sol",
  "compiler": {
    "name": "solc",
    "version": "0.8.0+commit.c7dfd78e.Emscripten.clang"
  },
  "schemaVersion": "3.4.3",
  "updatedAt": "2022-07-04T09:06:43.190Z",
  "networkType": "ethereum",
  "devdoc": {
    "kind": "dev",
    "methods": {
      "approve(address)": {
        "params": {
          "doctor": ""
        }
      },
      "changeStatus(address)": {
        "params": {
          "doctor": ""
        }
      },
      "claimApprove(address)": {
        "params": {
          "patient": ""
        }
      },
      "constructor": {
        "params": {
          "_doctorAddrs": "",
          "_doctorNames": ""
        }
      },
      "createMedicalData(address,string,string,string,string)": {
        "params": {
          "bloodType": "",
          "doctorName": "()",
          "lastUpDate": "",
          "patientAddr": "",
          "patientName": ""
        }
      },
      "deleteMedicalData(address)": {
        "params": {
          "patient": ""
        }
      },
      "editMedicalData(address,string,string,string,string)": {
        "params": {
          "bloodType": "",
          "doctorName": "()",
          "lastUpDate": "",
          "patientAddr": "",
          "patientName": ""
        }
      },
      "pay(address,uint256)": {
        "params": {
          "amount": "",
          "doctorAddr": ""
        }
      },
      "registDoctor(address,string)": {
        "params": {
          "doctorAddress": "",
          "doctorName": ""
        }
      },
      "selectPatientMedicalData(address)": {
        "params": {
          "patient": ""
        }
      }
    },
    "version": 1
  },
  "userdoc": {
    "kind": "user",
    "methods": {
      "approve(address)": {
        "notice": ""
      },
      "changeStatus(address)": {
        "notice": ""
      },
      "claimApprove(address)": {
        "notice": ""
      },
      "constructor": {
        "notice": ""
      },
      "createMedicalData(address,string,string,string,string)": {
        "notice": ""
      },
      "deleteMedicalData(address)": {
        "notice": ""
      },
      "editMedicalData(address,string,string,string,string)": {
        "notice": ""
      },
      "getDoctorInfo()": {
        "notice": ""
      },
      "getDoctors()": {
        "notice": ""
      },
      "pay(address,uint256)": {
        "notice": ""
      },
      "registDoctor(address,string)": {
        "notice": ""
      },
      "selectMedicalData()": {
        "notice": ""
      },
      "selectPatientMedicalData(address)": {
        "notice": ""
      },
      "withdraw()": {
        "notice": ""
      }
    },
    "version": 1
  }
}