{
  "contractName": "MedicalData",
  "abi": [
    {
      "inputs": [
        {
          "internalType": "address[]",
          "name": "_doctorAddrs",
          "type": "address[]"
        },
        {
          "internalType": "string[]",
          "name": "_doctorNames",
          "type": "string[]"
        }
      ],
      "stateMutability": "nonpayable",
      "type": "constructor"
    },
    {
      "anonymous": false,
      "inputs": [
        {
          "indexed": false,
          "internalType": "address",
          "name": "patient",
          "type": "address"
        },
        {
          "indexed": false,
          "internalType": "address",
          "name": "doctor",
          "type": "address"
        }
      ],
      "name": "Approved",
      "type": "event"
    },
    {
      "anonymous": false,
      "inputs": [
        {
          "indexed": false,
          "internalType": "address",
          "name": "patient",
          "type": "address"
        },
        {
          "indexed": false,
          "internalType": "address",
          "name": "doctor",
          "type": "address"
        }
      ],
      "name": "ChangedStatus",
      "type": "event"
    },
    {
      "anonymous": false,
      "inputs": [
        {
          "indexed": false,
          "internalType": "address",
          "name": "doctor",
          "type": "address"
        },
        {
          "indexed": false,
          "internalType": "address",
          "name": "patient",
          "type": "address"
        }
      ],
      "name": "ClaimedApprove",
      "type": "event"
    },
    {
      "anonymous": false,
      "inputs": [
        {
          "indexed": false,
          "internalType": "address",
          "name": "patientAddr",
          "type": "address"
        },
        {
          "indexed": false,
          "internalType": "string",
          "name": "patientName",
          "type": "string"
        },
        {
          "indexed": false,
          "internalType": "string",
          "name": "bloodType",
          "type": "string"
        },
        {
          "indexed": false,
          "internalType": "string",
          "name": "lastUpDate",
          "type": "string"
        },
        {
          "indexed": false,
          "internalType": "string",
          "name": "doctorName",
          "type": "string"
        }
      ],
      "name": "CreateMedicalData",
      "type": "event"
    },
    {
      "anonymous": false,
      "inputs": [
        {
          "indexed": false,
          "internalType": "address",
          "name": "patientAddr",
          "type": "address"
        }
      ],
      "name": "DeleteMedicalData",
      "type": "event"
    },
    {
      "anonymous": false,
      "inputs": [
        {
          "indexed": false,
          "internalType": "address",
          "name": "patientAddr",
          "type": "address"
        },
        {
          "indexed": false,
          "internalType": "string",
          "name": "patientName",
          "type": "string"
        },
        {
          "indexed": false,
          "internalType": "string",
          "name": "bloodType",
          "type": "string"
        },
        {
          "indexed": false,
          "internalType": "string",
          "name": "lastUpDate",
          "type": "string"
        },
        {
          "indexed": false,
          "internalType": "string",
          "name": "doctorName",
          "type": "string"
        }
      ],
      "name": "EditMedicalData",
      "type": "event"
    },
    {
      "anonymous": false,
      "inputs": [
        {
          "indexed": false,
          "internalType": "address",
          "name": "doctorAddress",
          "type": "address"
        },
        {
          "indexed": false,
          "internalType": "string",
          "name": "doctorName",
          "type": "string"
        }
      ],
      "name": "RegistedDoctor",
      "type": "event"
    },
    {
      "inputs": [
        {
          "internalType": "address",
          "name": "",
          "type": "address"
        },
        {
          "internalType": "address",
          "name": "",
          "type": "address"
        }
      ],
      "name": "approveMap",
      "outputs": [
        {
          "internalType": "bool",
          "name": "",
          "type": "bool"
        }
      ],
      "stateMutability": "view",
      "type": "function",
      "constant": true
    },
    {
      "inputs": [
        {
          "internalType": "address",
          "name": "",
          "type": "address"
        }
      ],
      "name": "doctorMap",
      "outputs": [
        {
          "internalType": "string",
          "name": "",
          "type": "string"
        }
      ],
      "stateMutability": "view",
      "type": "function",
      "constant": true
    },
    {
      "inputs": [
        {
          "internalType": "address",
          "name": "",
          "type": "address"
        }
      ],
      "name": "doctorRoleMap",
      "outputs": [
        {
          "internalType": "bool",
          "name": "",
          "type": "bool"
        }
      ],
      "stateMutability": "view",
      "type": "function",
      "constant": true
    },
    {
      "inputs": [
        {
          "internalType": "uint256",
          "name": "",
          "type": "uint256"
        }
      ],
      "name": "doctors",
      "outputs": [
        {
          "internalType": "address",
          "name": "",
          "type": "address"
        }
      ],
      "stateMutability": "view",
      "type": "function",
      "constant": true
    },
    {
      "inputs": [
        {
          "internalType": "address",
          "name": "",
          "type": "address"
        }
      ],
      "name": "medicalMap",
      "outputs": [
        {
          "internalType": "string",
          "name": "patientName",
          "type": "string"
        },
        {
          "internalType": "string",
          "name": "bloodType",
          "type": "string"
        },
        {
          "internalType": "string",
          "name": "lastUpdate",
          "type": "string"
        },
        {
          "components": [
            {
              "internalType": "string",
              "name": "lastUpdate",
              "type": "string"
            },
            {
              "internalType": "string",
              "name": "doctorName",
              "type": "string"
            }
          ],
          "internalType": "struct MedicalData.MedicalInsData",
          "name": "medicalInsData",
          "type": "tuple"
        }
      ],
      "stateMutability": "view",
      "type": "function",
      "constant": true
    },
    {
      "inputs": [],
      "name": "owner",
      "outputs": [
        {
          "internalType": "address",
          "name": "",
          "type": "address"
        }
      ],
      "stateMutability": "view",
      "type": "function",
      "constant": true
    },
    {
      "inputs": [
        {
          "internalType": "address",
          "name": "",
          "type": "address"
        },
        {
          "internalType": "address",
          "name": "",
          "type": "address"
        }
      ],
      "name": "requireMap",
      "outputs": [
        {
          "internalType": "bool",
          "name": "",
          "type": "bool"
        }
      ],
      "stateMutability": "view",
      "type": "function",
      "constant": true
    },
    {
      "inputs": [
        {
          "internalType": "address",
          "name": "doctor",
          "type": "address"
        }
      ],
      "name": "approve",
      "outputs": [],
      "stateMutability": "nonpayable",
      "type": "function"
    },
    {
      "inputs": [
        {
          "internalType": "address",
          "name": "doctor",
          "type": "address"
        }
      ],
      "name": "changeStatus",
      "outputs": [],
      "stateMutability": "nonpayable",
      "type": "function"
    },
    {
      "inputs": [
        {
          "internalType": "address",
          "name": "patient",
          "type": "address"
        }
      ],
      "name": "claimApprove",
      "outputs": [],
      "stateMutability": "nonpayable",
      "type": "function"
    },
    {
      "inputs": [
        {
          "internalType": "address",
          "name": "patientAddr",
          "type": "address"
        },
        {
          "internalType": "string",
          "name": "patientName",
          "type": "string"
        },
        {
          "internalType": "string",
          "name": "bloodType",
          "type": "string"
        },
        {
          "internalType": "string",
          "name": "lastUpDate",
          "type": "string"
        },
        {
          "internalType": "string",
          "name": "doctorName",
          "type": "string"
        }
      ],
      "name": "createMedicalData",
      "outputs": [],
      "stateMutability": "nonpayable",
      "type": "function"
    },
    {
      "inputs": [
        {
          "internalType": "address",
          "name": "patientAddr",
          "type": "address"
        },
        {
          "internalType": "string",
          "name": "patientName",
          "type": "string"
        },
        {
          "internalType": "string",
          "name": "bloodType",
          "type": "string"
        },
        {
          "internalType": "string",
          "name": "lastUpDate",
          "type": "string"
        },
        {
          "internalType": "string",
          "name": "doctorName",
          "type": "string"
        }
      ],
      "name": "editMedicalData",
      "outputs": [],
      "stateMutability": "nonpayable",
      "type": "function"
    },
    {
      "inputs": [
        {
          "internalType": "address",
          "name": "patient",
          "type": "address"
        }
      ],
      "name": "deleteMedicalData",
      "outputs": [],
      "stateMutability": "nonpayable",
      "type": "function"
    },
    {
      "inputs": [],
      "name": "selectMedicalData",
      "outputs": [
        {
          "components": [
            {
              "internalType": "string",
              "name": "patientName",
              "type": "string"
            },
            {
              "internalType": "string",
              "name": "bloodType",
              "type": "string"
            },
            {
              "internalType": "string",
              "name": "lastUpdate",
              "type": "string"
            },
            {
              "components": [
                {
                  "internalType": "string",
                  "name": "lastUpdate",
                  "type": "string"
                },
                {
                  "internalType": "string",
                  "name": "doctorName",
                  "type": "string"
                }
              ],
              "internalType": "struct MedicalData.MedicalInsData",
              "name": "medicalInsData",
              "type": "tuple"
            }
          ],
          "internalType": "struct MedicalData.PatientMedicalData",
          "name": "",
          "type": "tuple"
        }
      ],
      "stateMutability": "view",
      "type": "function",
      "constant": true
    },
    {
      "inputs": [
        {
          "internalType": "address",
          "name": "patient",
          "type": "address"
        }
      ],
      "name": "selectPatientMedicalData",
      "outputs": [
        {
          "components": [
            {
              "internalType": "string",
              "name": "patientName",
              "type": "string"
            },
            {
              "internalType": "string",
              "name": "bloodType",
              "type": "string"
            },
            {
              "internalType": "string",
              "name": "lastUpdate",
              "type": "string"
            },
            {
              "components": [
                {
                  "internalType": "string",
                  "name": "lastUpdate",
                  "type": "string"
                },
                {
                  "internalType": "string",
                  "name": "doctorName",
                  "type": "string"
                }
              ],
              "internalType": "struct MedicalData.MedicalInsData",
              "name": "medicalInsData",
              "type": "tuple"
            }
          ],
          "internalType": "struct MedicalData.PatientMedicalData",
          "name": "",
          "type": "tuple"
        }
      ],
      "stateMutability": "view",
      "type": "function",
      "constant": true
    },
    {
      "inputs": [
        {
          "internalType": "address",
          "name": "doctorAddress",
          "type": "address"
        },
        {
          "internalType": "string",
          "name": "doctorName",
          "type": "string"
        }
      ],
      "name": "registDoctor",
      "outputs": [],
      "stateMutability": "nonpayable",
      "type": "function"
    },
    {
      "inputs": [],
      "name": "getDoctors",
      "outputs": [
        {
          "internalType": "address[]",
          "name": "",
          "type": "address[]"
        }
      ],
      "stateMutability": "view",
      "type": "function",
      "constant": true
    },
    {
      "inputs": [],
      "name": "getDoctorInfo",
      "outputs": [
        {
          "components": [
            {
              "internalType": "address",
              "name": "doctorAddr",
              "type": "address"
            },
            {
              "internalType": "string",
              "name": "doctorName",
              "type": "string"
            },
            {
              "internalType": "bool",
              "name": "isRequire",
              "type": "bool"
            },
            {
              "internalType": "bool",
              "name": "isApprove",
              "type": "bool"
            }
          ],
          "internalType": "struct MedicalData.DoctorInfo[]",
          "name": "result",
          "type": "tuple[]"
        }
      ],
      "stateMutability": "view",
      "type": "function",
      "constant": true
    }
  ],
  "bytecode": "0x60806040523480156200001157600080fd5b5060405162003b3c38038062003b3c833981810160405281019062000037919062000525565b336000806101000a81548173ffffffffffffffffffffffffffffffffffffffff021916908373ffffffffffffffffffffffffffffffffffffffff16021790555060005b8251811015620002af576001838281518110620000c0577f4e487b7100000000000000000000000000000000000000000000000000000000600052603260045260246000fd5b60200260200101519080600181540180825580915050600190039060005260206000200160009091909190916101000a81548173ffffffffffffffffffffffffffffffffffffffff021916908373ffffffffffffffffffffffffffffffffffffffff16021790555081818151811062000162577f4e487b7100000000000000000000000000000000000000000000000000000000600052603260045260246000fd5b602002602001015160036000858481518110620001a8577f4e487b7100000000000000000000000000000000000000000000000000000000600052603260045260246000fd5b602002602001015173ffffffffffffffffffffffffffffffffffffffff1673ffffffffffffffffffffffffffffffffffffffff1681526020019081526020016000209080519060200190620001ff929190620002b8565b5060016004600085848151811062000240577f4e487b7100000000000000000000000000000000000000000000000000000000600052603260045260246000fd5b602002602001015173ffffffffffffffffffffffffffffffffffffffff1673ffffffffffffffffffffffffffffffffffffffff16815260200190815260200160002060006101000a81548160ff0219169083151502179055508080620002a69062000707565b9150506200007a565b505050620007fc565b828054620002c690620006d1565b90600052602060002090601f016020900481019282620002ea576000855562000336565b82601f106200030557805160ff191683800117855562000336565b8280016001018555821562000336579182015b828111156200033557825182559160200191906001019062000318565b5b50905062000345919062000349565b5090565b5b80821115620003645760008160009055506001016200034a565b5090565b60006200037f6200037984620005cc565b62000598565b905080838252602082019050828560208602820111156200039f57600080fd5b60005b85811015620003d35781620003b8888262000487565b845260208401935060208301925050600181019050620003a2565b5050509392505050565b6000620003f4620003ee84620005fb565b62000598565b9050808382526020820190508260005b858110156200043857815185016200041d8882620004f8565b84526020840193506020830192505060018101905062000404565b5050509392505050565b60006200045962000453846200062a565b62000598565b9050828152602081018484840111156200047257600080fd5b6200047f8482856200069b565b509392505050565b6000815190506200049881620007e2565b92915050565b600082601f830112620004b057600080fd5b8151620004c284826020860162000368565b91505092915050565b600082601f830112620004dd57600080fd5b8151620004ef848260208601620003dd565b91505092915050565b600082601f8301126200050a57600080fd5b81516200051c84826020860162000442565b91505092915050565b600080604083850312156200053957600080fd5b600083015167ffffffffffffffff8111156200055457600080fd5b62000562858286016200049e565b925050602083015167ffffffffffffffff8111156200058057600080fd5b6200058e85828601620004cb565b9150509250929050565b6000604051905081810181811067ffffffffffffffff82111715620005c257620005c1620007b3565b5b8060405250919050565b600067ffffffffffffffff821115620005ea57620005e9620007b3565b5b602082029050602081019050919050565b600067ffffffffffffffff821115620006195762000618620007b3565b5b602082029050602081019050919050565b600067ffffffffffffffff821115620006485762000647620007b3565b5b601f19601f8301169050602081019050919050565b60006200066a8262000671565b9050919050565b600073ffffffffffffffffffffffffffffffffffffffff82169050919050565b6000819050919050565b60005b83811015620006bb5780820151818401526020810190506200069e565b83811115620006cb576000848401525b50505050565b60006002820490506001821680620006ea57607f821691505b6020821081141562000701576200070062000784565b5b50919050565b6000620007148262000691565b91507fffffffffffffffffffffffffffffffffffffffffffffffffffffffffffffffff8214156200074a576200074962000755565b5b600182019050919050565b7f4e487b7100000000000000000000000000000000000000000000000000000000600052601160045260246000fd5b7f4e487b7100000000000000000000000000000000000000000000000000000000600052602260045260246000fd5b7f4e487b7100000000000000000000000000000000000000000000000000000000600052604160045260246000fd5b620007ed816200065d565b8114620007f957600080fd5b50565b613330806200080c6000396000f3fe608060405234801561001057600080fd5b50600436106101165760003560e01c80638200a966116100a2578063b13d5d9411610071578063b13d5d9414610303578063b380f5c614610321578063d1229aee1461033f578063daea85c51461035b578063fd61bd921461037757610116565b80638200a9661461028f5780638da5cb5b146102ab57806390c1e638146102c957806394b502d1146102e757610116565b80636aa3f233116100e95780636aa3f233146101b35780636efb1b84146101e35780636f8eecfd14610213578063794e217d1461022f5780637f24710a1461025f57610116565b80631fe51d901461011b5780633b6d93901461014b57806346ba4ceb1461017b5780635d2ec7cf14610197575b600080fd5b6101356004803603810190610130919061278a565b6103aa565b6040516101429190612ee9565b60405180910390f35b61016560048036038101906101609190612761565b6103d9565b6040516101729190612f04565b60405180910390f35b6101956004803603810190610190919061281a565b610479565b005b6101b160048036038101906101ac9190612761565b610743565b005b6101cd60048036038101906101c89190612761565b6108a7565b6040516101da9190612ee9565b60405180910390f35b6101fd60048036038101906101f891906128f1565b6108c7565b60405161020a9190612dc2565b60405180910390f35b61022d60048036038101906102289190612761565b610906565b005b6102496004803603810190610244919061278a565b610a6a565b6040516102569190612ee9565b60405180910390f35b61027960048036038101906102749190612761565b610a99565b6040516102869190613007565b60405180910390f35b6102a960048036038101906102a491906127c6565b610f45565b005b6102b361111f565b6040516102c09190612dc2565b60405180910390f35b6102d1611143565b6040516102de9190613007565b60405180910390f35b61030160048036038101906102fc919061281a565b61151b565b005b61030b6117e5565b6040516103189190612ea5565b60405180910390f35b610329611873565b6040516103369190612ec7565b60405180910390f35b61035960048036038101906103549190612761565b611d1e565b005b61037560048036038101906103709190612761565b612073565b005b610391600480360381019061038c9190612761565b61226c565b6040516103a19493929190612f26565b60405180910390f35b60056020528160005260406000206020528060005260406000206000915091509054906101000a900460ff1681565b600360205280600052604060002060009150905080546103f8906131b3565b80601f0160208091040260200160405190810160405280929190818152602001828054610424906131b3565b80156104715780601f1061044657610100808354040283529160200191610471565b820191906000526020600020905b81548152906001019060200180831161045457829003601f168201915b505050505081565b60011515600460003373ffffffffffffffffffffffffffffffffffffffff1673ffffffffffffffffffffffffffffffffffffffff16815260200190815260200160002060009054906101000a900460ff1615151461050c576040517f08c379a000000000000000000000000000000000000000000000000000000000815260040161050390612f87565b60405180910390fd5b8460011515600560008373ffffffffffffffffffffffffffffffffffffffff1673ffffffffffffffffffffffffffffffffffffffff16815260200190815260200160002060003373ffffffffffffffffffffffffffffffffffffffff1673ffffffffffffffffffffffffffffffffffffffff16815260200190815260200160002060009054906101000a900460ff161515146105dd576040517f08c379a00000000000000000000000000000000000000000000000000000000081526004016105d490612fa7565b60405180910390fd5b600060405180604001604052808581526020018481525090506000604051806080016040528088815260200187815260200186815260200183815250905080600260008a73ffffffffffffffffffffffffffffffffffffffff1673ffffffffffffffffffffffffffffffffffffffff1681526020019081526020016000206000820151816000019080519060200190610677929190612562565b506020820151816001019080519060200190610694929190612562565b5060408201518160020190805190602001906106b1929190612562565b5060608201518160030160008201518160000190805190602001906106d7929190612562565b5060208201518160010190805190602001906106f4929190612562565b5050509050507f36d37aa514b1c78519f8a61a0ebc1d8a75a95150d9ba9f33d4656f5be7ece1758888888888604051610731959493929190612e36565b60405180910390a15050505050505050565b60011515600460003373ffffffffffffffffffffffffffffffffffffffff1673ffffffffffffffffffffffffffffffffffffffff16815260200190815260200160002060009054906101000a900460ff161515146107d6576040517f08c379a00000000000000000000000000000000000000000000000000000000081526004016107cd90612f87565b60405180910390fd5b6001600660003373ffffffffffffffffffffffffffffffffffffffff1673ffffffffffffffffffffffffffffffffffffffff16815260200190815260200160002060008373ffffffffffffffffffffffffffffffffffffffff1673ffffffffffffffffffffffffffffffffffffffff16815260200190815260200160002060006101000a81548160ff0219169083151502179055507fcbe9b38decde986abb73b6b7886822d593acaf5c22aaa47e3360ce71f2602bf2338260405161089c929190612ddd565b60405180910390a150565b60046020528060005260406000206000915054906101000a900460ff1681565b600181815481106108d757600080fd5b906000526020600020016000915054906101000a900473ffffffffffffffffffffffffffffffffffffffff1681565b60001515600460003373ffffffffffffffffffffffffffffffffffffffff1673ffffffffffffffffffffffffffffffffffffffff16815260200190815260200160002060009054906101000a900460ff16151514610999576040517f08c379a000000000000000000000000000000000000000000000000000000000815260040161099090612fc7565b60405180910390fd5b6000600560003373ffffffffffffffffffffffffffffffffffffffff1673ffffffffffffffffffffffffffffffffffffffff16815260200190815260200160002060008373ffffffffffffffffffffffffffffffffffffffff1673ffffffffffffffffffffffffffffffffffffffff16815260200190815260200160002060006101000a81548160ff0219169083151502179055507f8730e7f2743238cf595c2a262e2b3e6d4475c7170f64568864954543d4443e5e3382604051610a5f929190612ddd565b60405180910390a150565b60066020528160005260406000206020528060005260406000206000915091509054906101000a900460ff1681565b610aa16125e8565b60011515600460003373ffffffffffffffffffffffffffffffffffffffff1673ffffffffffffffffffffffffffffffffffffffff16815260200190815260200160002060009054906101000a900460ff16151514610b34576040517f08c379a0000000000000000000000000000000000000000000000000000000008152600401610b2b90612f87565b60405180910390fd5b8160011515600560008373ffffffffffffffffffffffffffffffffffffffff1673ffffffffffffffffffffffffffffffffffffffff16815260200190815260200160002060003373ffffffffffffffffffffffffffffffffffffffff1673ffffffffffffffffffffffffffffffffffffffff16815260200190815260200160002060009054906101000a900460ff16151514610c05576040517f08c379a0000000000000000000000000000000000000000000000000000000008152600401610bfc90612fa7565b60405180910390fd5b600260008473ffffffffffffffffffffffffffffffffffffffff1673ffffffffffffffffffffffffffffffffffffffff168152602001908152602001600020604051806080016040529081600082018054610c5f906131b3565b80601f0160208091040260200160405190810160405280929190818152602001828054610c8b906131b3565b8015610cd85780601f10610cad57610100808354040283529160200191610cd8565b820191906000526020600020905b815481529060010190602001808311610cbb57829003601f168201915b50505050508152602001600182018054610cf1906131b3565b80601f0160208091040260200160405190810160405280929190818152602001828054610d1d906131b3565b8015610d6a5780601f10610d3f57610100808354040283529160200191610d6a565b820191906000526020600020905b815481529060010190602001808311610d4d57829003601f168201915b50505050508152602001600282018054610d83906131b3565b80601f0160208091040260200160405190810160405280929190818152602001828054610daf906131b3565b8015610dfc5780601f10610dd157610100808354040283529160200191610dfc565b820191906000526020600020905b815481529060010190602001808311610ddf57829003601f168201915b5050505050815260200160038201604051806040016040529081600082018054610e25906131b3565b80601f0160208091040260200160405190810160405280929190818152602001828054610e51906131b3565b8015610e9e5780601f10610e7357610100808354040283529160200191610e9e565b820191906000526020600020905b815481529060010190602001808311610e8157829003601f168201915b50505050508152602001600182018054610eb7906131b3565b80601f0160208091040260200160405190810160405280929190818152602001828054610ee3906131b3565b8015610f305780601f10610f0557610100808354040283529160200191610f30565b820191906000526020600020905b815481529060010190602001808311610f1357829003601f168201915b50505050508152505081525050915050919050565b3373ffffffffffffffffffffffffffffffffffffffff1660008054906101000a900473ffffffffffffffffffffffffffffffffffffffff1673ffffffffffffffffffffffffffffffffffffffff1614610fd3576040517f08c379a0000000000000000000000000000000000000000000000000000000008152600401610fca90612fe7565b60405180910390fd5b6001829080600181540180825580915050600190039060005260206000200160009091909190916101000a81548173ffffffffffffffffffffffffffffffffffffffff021916908373ffffffffffffffffffffffffffffffffffffffff16021790555080600360008473ffffffffffffffffffffffffffffffffffffffff1673ffffffffffffffffffffffffffffffffffffffff1681526020019081526020016000209080519060200190611089929190612562565b506001600460008473ffffffffffffffffffffffffffffffffffffffff1673ffffffffffffffffffffffffffffffffffffffff16815260200190815260200160002060006101000a81548160ff0219169083151502179055507f61bcd75d1ded61d8234e3d22b69fe8e58b0dfcd033d15ed609be8a58c785f4638282604051611113929190612e06565b60405180910390a15050565b60008054906101000a900473ffffffffffffffffffffffffffffffffffffffff1681565b61114b6125e8565b60001515600460003373ffffffffffffffffffffffffffffffffffffffff1673ffffffffffffffffffffffffffffffffffffffff16815260200190815260200160002060009054906101000a900460ff161515146111de576040517f08c379a00000000000000000000000000000000000000000000000000000000081526004016111d590612fc7565b60405180910390fd5b600260003373ffffffffffffffffffffffffffffffffffffffff1673ffffffffffffffffffffffffffffffffffffffff168152602001908152602001600020604051806080016040529081600082018054611238906131b3565b80601f0160208091040260200160405190810160405280929190818152602001828054611264906131b3565b80156112b15780601f10611286576101008083540402835291602001916112b1565b820191906000526020600020905b81548152906001019060200180831161129457829003601f168201915b505050505081526020016001820180546112ca906131b3565b80601f01602080910402602001604051908101604052809291908181526020018280546112f6906131b3565b80156113435780601f1061131857610100808354040283529160200191611343565b820191906000526020600020905b81548152906001019060200180831161132657829003601f168201915b5050505050815260200160028201805461135c906131b3565b80601f0160208091040260200160405190810160405280929190818152602001828054611388906131b3565b80156113d55780601f106113aa576101008083540402835291602001916113d5565b820191906000526020600020905b8154815290600101906020018083116113b857829003601f168201915b50505050508152602001600382016040518060400160405290816000820180546113fe906131b3565b80601f016020809104026020016040519081016040528092919081815260200182805461142a906131b3565b80156114775780601f1061144c57610100808354040283529160200191611477565b820191906000526020600020905b81548152906001019060200180831161145a57829003601f168201915b50505050508152602001600182018054611490906131b3565b80601f01602080910402602001604051908101604052809291908181526020018280546114bc906131b3565b80156115095780601f106114de57610100808354040283529160200191611509565b820191906000526020600020905b8154815290600101906020018083116114ec57829003601f168201915b50505050508152505081525050905090565b60011515600460003373ffffffffffffffffffffffffffffffffffffffff1673ffffffffffffffffffffffffffffffffffffffff16815260200190815260200160002060009054906101000a900460ff161515146115ae576040517f08c379a00000000000000000000000000000000000000000000000000000000081526004016115a590612f87565b60405180910390fd5b8460011515600560008373ffffffffffffffffffffffffffffffffffffffff1673ffffffffffffffffffffffffffffffffffffffff16815260200190815260200160002060003373ffffffffffffffffffffffffffffffffffffffff1673ffffffffffffffffffffffffffffffffffffffff16815260200190815260200160002060009054906101000a900460ff1615151461167f576040517f08c379a000000000000000000000000000000000000000000000000000000000815260040161167690612fa7565b60405180910390fd5b600060405180604001604052808581526020018481525090506000604051806080016040528088815260200187815260200186815260200183815250905080600260008a73ffffffffffffffffffffffffffffffffffffffff1673ffffffffffffffffffffffffffffffffffffffff1681526020019081526020016000206000820151816000019080519060200190611719929190612562565b506020820151816001019080519060200190611736929190612562565b506040820151816002019080519060200190611753929190612562565b506060820151816003016000820151816000019080519060200190611779929190612562565b506020820151816001019080519060200190611796929190612562565b5050509050507f3a9d2e3abbf1feead8ea242e633e03e77bac21532996e4e5c475451da77c87b388888888886040516117d3959493929190612e36565b60405180910390a15050505050505050565b6060600180548060200260200160405190810160405280929190818152602001828054801561186957602002820191906000526020600020905b8160009054906101000a900473ffffffffffffffffffffffffffffffffffffffff1673ffffffffffffffffffffffffffffffffffffffff168152602001906001019080831161181f575b5050505050905090565b6060600060018054905090508067ffffffffffffffff8111156118bf577f4e487b7100000000000000000000000000000000000000000000000000000000600052604160045260246000fd5b6040519080825280602002602001820160405280156118f857816020015b6118e5612616565b8152602001906001900390816118dd5790505b50915060005b81811015611d195760006003600060018481548110611946577f4e487b7100000000000000000000000000000000000000000000000000000000600052603260045260246000fd5b9060005260206000200160009054906101000a900473ffffffffffffffffffffffffffffffffffffffff1673ffffffffffffffffffffffffffffffffffffffff1673ffffffffffffffffffffffffffffffffffffffff16815260200190815260200160002080546119b6906131b3565b80601f01602080910402602001604051908101604052809291908181526020018280546119e2906131b3565b8015611a2f5780601f10611a0457610100808354040283529160200191611a2f565b820191906000526020600020905b815481529060010190602001808311611a1257829003601f168201915b5050505050905060006006600060018581548110611a76577f4e487b7100000000000000000000000000000000000000000000000000000000600052603260045260246000fd5b9060005260206000200160009054906101000a900473ffffffffffffffffffffffffffffffffffffffff1673ffffffffffffffffffffffffffffffffffffffff1673ffffffffffffffffffffffffffffffffffffffff16815260200190815260200160002060003373ffffffffffffffffffffffffffffffffffffffff1673ffffffffffffffffffffffffffffffffffffffff16815260200190815260200160002060009054906101000a900460ff1690506000600560003373ffffffffffffffffffffffffffffffffffffffff1673ffffffffffffffffffffffffffffffffffffffff168152602001908152602001600020600060018681548110611ba5577f4e487b7100000000000000000000000000000000000000000000000000000000600052603260045260246000fd5b9060005260206000200160009054906101000a900473ffffffffffffffffffffffffffffffffffffffff1673ffffffffffffffffffffffffffffffffffffffff1673ffffffffffffffffffffffffffffffffffffffff16815260200190815260200160002060009054906101000a900460ff1690506000604051806080016040528060018781548110611c61577f4e487b7100000000000000000000000000000000000000000000000000000000600052603260045260246000fd5b9060005260206000200160009054906101000a900473ffffffffffffffffffffffffffffffffffffffff1673ffffffffffffffffffffffffffffffffffffffff1681526020018581526020018415158152602001831515815250905080878681518110611cf7577f4e487b7100000000000000000000000000000000000000000000000000000000600052603260045260246000fd5b6020026020010181905250505050508080611d11906131e5565b9150506118fe565b505090565b60011515600460003373ffffffffffffffffffffffffffffffffffffffff1673ffffffffffffffffffffffffffffffffffffffff16815260200190815260200160002060009054906101000a900460ff16151514611db1576040517f08c379a0000000000000000000000000000000000000000000000000000000008152600401611da890612f87565b60405180910390fd5b8060011515600560008373ffffffffffffffffffffffffffffffffffffffff1673ffffffffffffffffffffffffffffffffffffffff16815260200190815260200160002060003373ffffffffffffffffffffffffffffffffffffffff1673ffffffffffffffffffffffffffffffffffffffff16815260200190815260200160002060009054906101000a900460ff16151514611e82576040517f08c379a0000000000000000000000000000000000000000000000000000000008152600401611e7990612fa7565b60405180910390fd5b600260008373ffffffffffffffffffffffffffffffffffffffff1673ffffffffffffffffffffffffffffffffffffffff16815260200190815260200160002060008082016000611ed29190612658565b600182016000611ee29190612658565b600282016000611ef29190612658565b6003820160008082016000611f079190612658565b600182016000611f179190612658565b5050505060005b600180549050811015612037576000600560008573ffffffffffffffffffffffffffffffffffffffff1673ffffffffffffffffffffffffffffffffffffffff168152602001908152602001600020600060018481548110611fa8577f4e487b7100000000000000000000000000000000000000000000000000000000600052603260045260246000fd5b9060005260206000200160009054906101000a900473ffffffffffffffffffffffffffffffffffffffff1673ffffffffffffffffffffffffffffffffffffffff1673ffffffffffffffffffffffffffffffffffffffff16815260200190815260200160002060006101000a81548160ff021916908315150217905550808061202f906131e5565b915050611f1e565b507fd7753f3b8a7bd1cdece74a0a97a24e6418c57a841e5607d0fecdff37cd358dbd826040516120679190612dc2565b60405180910390a15050565b60001515600460003373ffffffffffffffffffffffffffffffffffffffff1673ffffffffffffffffffffffffffffffffffffffff16815260200190815260200160002060009054906101000a900460ff16151514612106576040517f08c379a00000000000000000000000000000000000000000000000000000000081526004016120fd90612fc7565b60405180910390fd5b6001600560003373ffffffffffffffffffffffffffffffffffffffff1673ffffffffffffffffffffffffffffffffffffffff16815260200190815260200160002060008373ffffffffffffffffffffffffffffffffffffffff1673ffffffffffffffffffffffffffffffffffffffff16815260200190815260200160002060006101000a81548160ff0219169083151502179055506000600660008373ffffffffffffffffffffffffffffffffffffffff1673ffffffffffffffffffffffffffffffffffffffff16815260200190815260200160002060003373ffffffffffffffffffffffffffffffffffffffff1673ffffffffffffffffffffffffffffffffffffffff16815260200190815260200160002060006101000a81548160ff0219169083151502179055507faad2833c9fd7a3de33f301e5186ee84d1a5753ce32de6b97baedaac4b92b55fc3382604051612261929190612ddd565b60405180910390a150565b600260205280600052604060002060009150905080600001805461228f906131b3565b80601f01602080910402602001604051908101604052809291908181526020018280546122bb906131b3565b80156123085780601f106122dd57610100808354040283529160200191612308565b820191906000526020600020905b8154815290600101906020018083116122eb57829003601f168201915b50505050509080600101805461231d906131b3565b80601f0160208091040260200160405190810160405280929190818152602001828054612349906131b3565b80156123965780601f1061236b57610100808354040283529160200191612396565b820191906000526020600020905b81548152906001019060200180831161237957829003601f168201915b5050505050908060020180546123ab906131b3565b80601f01602080910402602001604051908101604052809291908181526020018280546123d7906131b3565b80156124245780601f106123f957610100808354040283529160200191612424565b820191906000526020600020905b81548152906001019060200180831161240757829003601f168201915b50505050509080600301604051806040016040529081600082018054612449906131b3565b80601f0160208091040260200160405190810160405280929190818152602001828054612475906131b3565b80156124c25780601f10612497576101008083540402835291602001916124c2565b820191906000526020600020905b8154815290600101906020018083116124a557829003601f168201915b505050505081526020016001820180546124db906131b3565b80601f0160208091040260200160405190810160405280929190818152602001828054612507906131b3565b80156125545780601f1061252957610100808354040283529160200191612554565b820191906000526020600020905b81548152906001019060200180831161253757829003601f168201915b505050505081525050905084565b82805461256e906131b3565b90600052602060002090601f01602090048101928261259057600085556125d7565b82601f106125a957805160ff19168380011785556125d7565b828001600101855582156125d7579182015b828111156125d65782518255916020019190600101906125bb565b5b5090506125e49190612698565b5090565b60405180608001604052806060815260200160608152602001606081526020016126106126b5565b81525090565b6040518060800160405280600073ffffffffffffffffffffffffffffffffffffffff168152602001606081526020016000151581526020016000151581525090565b508054612664906131b3565b6000825580601f106126765750612695565b601f0160209004906000526020600020908101906126949190612698565b5b50565b5b808211156126b1576000816000905550600101612699565b5090565b604051806040016040528060608152602001606081525090565b60006126e26126dd8461305a565b613029565b9050828152602081018484840111156126fa57600080fd5b612705848285613171565b509392505050565b60008135905061271c816132cc565b92915050565b600082601f83011261273357600080fd5b81356127438482602086016126cf565b91505092915050565b60008135905061275b816132e3565b92915050565b60006020828403121561277357600080fd5b60006127818482850161270d565b91505092915050565b6000806040838503121561279d57600080fd5b60006127ab8582860161270d565b92505060206127bc8582860161270d565b9150509250929050565b600080604083850312156127d957600080fd5b60006127e78582860161270d565b925050602083013567ffffffffffffffff81111561280457600080fd5b61281085828601612722565b9150509250929050565b600080600080600060a0868803121561283257600080fd5b60006128408882890161270d565b955050602086013567ffffffffffffffff81111561285d57600080fd5b61286988828901612722565b945050604086013567ffffffffffffffff81111561288657600080fd5b61289288828901612722565b935050606086013567ffffffffffffffff8111156128af57600080fd5b6128bb88828901612722565b925050608086013567ffffffffffffffff8111156128d857600080fd5b6128e488828901612722565b9150509295509295909350565b60006020828403121561290357600080fd5b60006129118482850161274c565b91505092915050565b60006129268383612946565b60208301905092915050565b600061293e8383612c5f565b905092915050565b61294f81613129565b82525050565b61295e81613129565b82525050565b600061296f826130aa565b61297981856130e5565b93506129848361308a565b8060005b838110156129b557815161299c888261291a565b97506129a7836130cb565b925050600181019050612988565b5085935050505092915050565b60006129cd826130b5565b6129d781856130f6565b9350836020820285016129e98561309a565b8060005b85811015612a255784840389528151612a068582612932565b9450612a11836130d8565b925060208a019950506001810190506129ed565b50829750879550505050505092915050565b612a408161313b565b82525050565b612a4f8161313b565b82525050565b6000612a60826130c0565b612a6a8185613107565b9350612a7a818560208601613180565b612a83816132bb565b840191505092915050565b6000612a99826130c0565b612aa38185613118565b9350612ab3818560208601613180565b612abc816132bb565b840191505092915050565b6000612ad4602383613118565b91507f6d73672e73656e64646572206d757374206861766520646f63746f7220726f6c60008301527f65212100000000000000000000000000000000000000000000000000000000006020830152604082019050919050565b6000612b3a602183613118565b91507f796f75206d75737420626520617070726f7665642062792070617469656e742160008301527f21000000000000000000000000000000000000000000000000000000000000006020830152604082019050919050565b6000612ba0602483613118565b91507f6d73672e73656e64646572206d75737420686176652070617469656e7420726f60008301527f6c652121000000000000000000000000000000000000000000000000000000006020830152604082019050919050565b6000612c06602583613118565b91507f6d73672e73656e646572206d757374206265206f776e6572277320616464726560008301527f73732021210000000000000000000000000000000000000000000000000000006020830152604082019050919050565b6000608083016000830151612c776000860182612946565b5060208301518482036020860152612c8f8282612a55565b9150506040830151612ca46040860182612a37565b506060830151612cb76060860182612a37565b508091505092915050565b60006040830160008301518482036000860152612cdf8282612a55565b91505060208301518482036020860152612cf98282612a55565b9150508091505092915050565b60006040830160008301518482036000860152612d238282612a55565b91505060208301518482036020860152612d3d8282612a55565b9150508091505092915050565b60006080830160008301518482036000860152612d678282612a55565b91505060208301518482036020860152612d818282612a55565b91505060408301518482036040860152612d9b8282612a55565b91505060608301518482036060860152612db58282612cc2565b9150508091505092915050565b6000602082019050612dd76000830184612955565b92915050565b6000604082019050612df26000830185612955565b612dff6020830184612955565b9392505050565b6000604082019050612e1b6000830185612955565b8181036020830152612e2d8184612a8e565b90509392505050565b600060a082019050612e4b6000830188612955565b8181036020830152612e5d8187612a8e565b90508181036040830152612e718186612a8e565b90508181036060830152612e858185612a8e565b90508181036080830152612e998184612a8e565b90509695505050505050565b60006020820190508181036000830152612ebf8184612964565b905092915050565b60006020820190508181036000830152612ee181846129c2565b905092915050565b6000602082019050612efe6000830184612a46565b92915050565b60006020820190508181036000830152612f1e8184612a8e565b905092915050565b60006080820190508181036000830152612f408187612a8e565b90508181036020830152612f548186612a8e565b90508181036040830152612f688185612a8e565b90508181036060830152612f7c8184612d06565b905095945050505050565b60006020820190508181036000830152612fa081612ac7565b9050919050565b60006020820190508181036000830152612fc081612b2d565b9050919050565b60006020820190508181036000830152612fe081612b93565b9050919050565b6000602082019050818103600083015261300081612bf9565b9050919050565b600060208201905081810360008301526130218184612d4a565b905092915050565b6000604051905081810181811067ffffffffffffffff821117156130505761304f61328c565b5b8060405250919050565b600067ffffffffffffffff8211156130755761307461328c565b5b601f19601f8301169050602081019050919050565b6000819050602082019050919050565b6000819050602082019050919050565b600081519050919050565b600081519050919050565b600081519050919050565b6000602082019050919050565b6000602082019050919050565b600082825260208201905092915050565b600082825260208201905092915050565b600082825260208201905092915050565b600082825260208201905092915050565b600061313482613147565b9050919050565b60008115159050919050565b600073ffffffffffffffffffffffffffffffffffffffff82169050919050565b6000819050919050565b82818337600083830152505050565b60005b8381101561319e578082015181840152602081019050613183565b838111156131ad576000848401525b50505050565b600060028204905060018216806131cb57607f821691505b602082108114156131df576131de61325d565b5b50919050565b60006131f082613167565b91507fffffffffffffffffffffffffffffffffffffffffffffffffffffffffffffffff8214156132235761322261322e565b5b600182019050919050565b7f4e487b7100000000000000000000000000000000000000000000000000000000600052601160045260246000fd5b7f4e487b7100000000000000000000000000000000000000000000000000000000600052602260045260246000fd5b7f4e487b7100000000000000000000000000000000000000000000000000000000600052604160045260246000fd5b6000601f19601f8301169050919050565b6132d581613129565b81146132e057600080fd5b50565b6132ec81613167565b81146132f757600080fd5b5056fea26469706673582212202faa7c405f5fb6e3e70cbda9a878acd13183826628fa96aba39988dc72c69a2164736f6c63430008000033",
  "immutableReferences": {},
  "source": "// SPDX-License-Identifier: MIT\npragma solidity >=0.8.0;\n\ncontract MedicalData {\n\n  // \n  struct MedicalInsData {\n    // \n    string lastUpdate;\n    // ()\n    string doctorName;\n  }\n\n  // \n  struct PatientMedicalData {\n    // \n    string patientName;\n    // \n    string bloodType;\n    // \n    string lastUpdate;\n    //  MedicalInsData\n    MedicalInsData medicalInsData;\n  }\n\n  // \n  struct DoctorInfo {\n    // \n    address doctorAddr;\n    // \n    string doctorName;\n    // \n    bool isRequire;\n    // \n    bool isApprove;\n  }\n\n  // \n  address public owner;\n  // \n  address[] public doctors;\n  // Map\n  mapping (address => PatientMedicalData) public medicalMap;\n  // Map\n  mapping (address => string) public doctorMap;\n  // Map\n  mapping (address => bool) public doctorRoleMap;\n  // Map\n  mapping (address => mapping (address => bool)) public approveMap;\n  // Map\n  mapping (address => mapping (address => bool)) public requireMap;\n\n  // \n  modifier onlyPatient() {\n    require(doctorRoleMap[msg.sender] == false, \"msg.sendder must have patient role!!\");\n    _;\n  }\n\n  // \n  modifier onlyDoctor() {\n    require(doctorRoleMap[msg.sender] == true, \"msg.sendder must have doctor role!!\");\n    _;\n  }\n\n  // owner\n  modifier onlyOwner() {\n    require(owner == msg.sender, \"msg.sender must be owner's address !!\");\n    _;\n  }\n\n  // \n  modifier isApproved(address patient) {\n    require(approveMap[patient][msg.sender] == true, \"you must be approved by patient!!\");\n    _;\n  }\n\n  // \n  event Approved(address patient, address doctor);\n  event ChangedStatus(address patient, address doctor);\n  event RegistedDoctor(address doctorAddress, string doctorName);\n  event ClaimedApprove(address doctor, address patient);\n  event CreateMedicalData(address patientAddr, string patientName, string bloodType, string lastUpDate, string doctorName);\n  event EditMedicalData(address patientAddr, string patientName, string bloodType, string lastUpDate, string doctorName);\n  event DeleteMedicalData(address patientAddr);\n\n  /**\n   * \n   * @param _doctorAddrs \n   * @param _doctorNames \n   */\n  constructor(address[] memory _doctorAddrs, string[] memory _doctorNames) {\n    // owner\n    owner = msg.sender;\n\n    for(uint i = 0; i < _doctorAddrs.length; i++) {\n      // \n      doctors.push(_doctorAddrs[i]);\n      // \n      doctorMap[_doctorAddrs[i]] = _doctorNames[i];\n      // \n      doctorRoleMap[_doctorAddrs[i]] = true;\n    }\n  }\n\n  /**\n   * \n   * @param doctor \n   */\n  function approve(address doctor) public onlyPatient {\n    // \n    approveMap[msg.sender][doctor] = true;\n    // false\n    requireMap[doctor][msg.sender] = false;\n\n    emit Approved(msg.sender, doctor);\n  }\n\n  /**\n   * \n   * @param doctor \n   */\n  function changeStatus(address doctor) public onlyPatient {\n    // \n    approveMap[msg.sender][doctor] = false;\n\n    emit ChangedStatus(msg.sender, doctor);\n  }\n\n  /**\n   * \n   * @param patient \n   */\n  function claimApprove(address patient) public onlyDoctor {\n    // \n    requireMap[msg.sender][patient] = true;\n\n    emit ClaimedApprove(msg.sender, patient);\n  }\n\n  /**\n   * \n   * @param patientAddr \n   * @param patientName \n   * @param bloodType \n   * @param lastUpDate \n   * @param doctorName ()\n   */\n  function createMedicalData(\n    address patientAddr,\n    string memory patientName, \n    string memory bloodType,\n    string memory lastUpDate,\n    string memory doctorName\n  ) public onlyDoctor isApproved(patientAddr) {\n    // Struct\n    MedicalInsData memory medicalInsData = MedicalInsData(lastUpDate, doctorName);\n    // Struct\n    PatientMedicalData memory patientMedicalData = PatientMedicalData(patientName, bloodType, lastUpDate, medicalInsData);\n    // \n    medicalMap[patientAddr] = patientMedicalData;\n\n    emit CreateMedicalData(patientAddr, patientName, bloodType, lastUpDate, doctorName);\n  }\n \n  /**\n   * \n   * @param patientAddr \n   * @param patientName \n   * @param bloodType \n   * @param lastUpDate \n   * @param doctorName ()\n   */\n  function editMedicalData(\n    address patientAddr,\n    string memory patientName, \n    string memory bloodType,\n    string memory lastUpDate,\n    string memory doctorName\n  ) public onlyDoctor isApproved(patientAddr) {\n    // Struct\n    MedicalInsData memory newMedicalInsData = MedicalInsData(lastUpDate, doctorName);\n    // Struct\n    PatientMedicalData memory newPatientMedicalData = PatientMedicalData(patientName, bloodType, lastUpDate, newMedicalInsData);\n    // ()\n    medicalMap[patientAddr] = newPatientMedicalData;\n\n    emit EditMedicalData(patientAddr, patientName, bloodType, lastUpDate, doctorName);\n  }\n\n  /**\n   * \n   * @param patient \n   */\n  function deleteMedicalData(address patient) public onlyDoctor isApproved(patient) {\n    // \n    delete medicalMap[patient];\n    // \n    for(uint i = 0; i < doctors.length; i++) {\n      approveMap[patient][doctors[i]] = false;\n    }\n\n    emit DeleteMedicalData(patient);\n  }\n\n  /**\n   * \n   \n   */\n  function selectMedicalData() public view onlyPatient returns (PatientMedicalData memory) {\n    // \n    return medicalMap[msg.sender];\n  }\n\n  /**\n   * \n   * @param patient \n   */\n  function selectPatientMedicalData(address patient) \n    public \n    view \n    onlyDoctor \n    isApproved(patient)\n    returns (PatientMedicalData memory) \n  {\n    // \n    return medicalMap[patient];\n  }\n\n  /**\n   * \n   * @param doctorAddress \n   * @param doctorName \n   */\n  function registDoctor(address doctorAddress, string memory doctorName) public onlyOwner {\n    // \n    doctors.push(doctorAddress);\n    // \n    doctorMap[doctorAddress] = doctorName;\n    // \n    doctorRoleMap[doctorAddress] = true;\n\n    emit RegistedDoctor(doctorAddress, doctorName);\n  }\n\n  /**\n   * \n   */\n  function getDoctors() public view returns (address[] memory) {\n    return doctors;\n  }\n\n  /**\n   * \n   */\n  function getDoctorInfo() public view returns (DoctorInfo[] memory result) {\n    // \n    uint256 size = doctors.length;\n    // \n    result = new DoctorInfo[](size);\n    // DoctorInfo\n    for(uint i = 0; i < size; i++) {\n      // \n      string memory doctorName = doctorMap[doctors[i]];\n      // \n      bool isRequired = requireMap[doctors[i]][msg.sender];\n      // \n      bool approved = approveMap[msg.sender][doctors[i]];\n      // DoctorInfo\n      DoctorInfo memory res = DoctorInfo(doctors[i], doctorName, isRequired, approved);\n      result[i] = res;\n    }\n\n    return result;\n  }\n}\n",
  "sourcePath": "/Users/harukikondo/git/Web3MedicalDApp/backend/contracts/MedicalData.sol",
  "compiler": {
    "name": "solc",
    "version": "0.8.0+commit.c7dfd78e.Emscripten.clang"
  },
  "schemaVersion": "3.4.4",
  "updatedAt": "2022-06-26T11:45:47.140Z",
  "networkType": "ethereum",
  "devdoc": {
    "kind": "dev",
    "methods": {
      "approve(address)": {
        "params": {
          "doctor": ""
        }
      },
      "changeStatus(address)": {
        "params": {
          "doctor": ""
        }
      },
      "claimApprove(address)": {
        "params": {
          "patient": ""
        }
      },
      "constructor": {
        "params": {
          "_doctorAddrs": "",
          "_doctorNames": ""
        }
      },
      "createMedicalData(address,string,string,string,string)": {
        "params": {
          "bloodType": "",
          "doctorName": "()",
          "lastUpDate": "",
          "patientAddr": "",
          "patientName": ""
        }
      },
      "deleteMedicalData(address)": {
        "params": {
          "patient": ""
        }
      },
      "editMedicalData(address,string,string,string,string)": {
        "params": {
          "bloodType": "",
          "doctorName": "()",
          "lastUpDate": "",
          "patientAddr": "",
          "patientName": ""
        }
      },
      "registDoctor(address,string)": {
        "params": {
          "doctorAddress": "",
          "doctorName": ""
        }
      },
      "selectPatientMedicalData(address)": {
        "params": {
          "patient": ""
        }
      }
    },
    "version": 1
  },
  "userdoc": {
    "kind": "user",
    "methods": {
      "approve(address)": {
        "notice": ""
      },
      "changeStatus(address)": {
        "notice": ""
      },
      "claimApprove(address)": {
        "notice": ""
      },
      "constructor": {
        "notice": ""
      },
      "createMedicalData(address,string,string,string,string)": {
        "notice": ""
      },
      "deleteMedicalData(address)": {
        "notice": ""
      },
      "editMedicalData(address,string,string,string,string)": {
        "notice": ""
      },
      "getDoctorInfo()": {
        "notice": ""
      },
      "getDoctors()": {
        "notice": ""
      },
      "registDoctor(address,string)": {
        "notice": ""
      },
      "selectMedicalData()": {
        "notice": ""
      },
      "selectPatientMedicalData(address)": {
        "notice": ""
      }
    },
    "version": 1
  }
}