{
  "contractName": "MedicalData",
  "abi": [
    {
      "inputs": [
        {
          "internalType": "address[]",
          "name": "_doctorAddrs",
          "type": "address[]"
        },
        {
          "internalType": "string[]",
          "name": "_doctorNames",
          "type": "string[]"
        }
      ],
      "stateMutability": "nonpayable",
      "type": "constructor"
    },
    {
      "anonymous": false,
      "inputs": [
        {
          "indexed": false,
          "internalType": "address",
          "name": "patient",
          "type": "address"
        },
        {
          "indexed": false,
          "internalType": "address",
          "name": "doctor",
          "type": "address"
        }
      ],
      "name": "Approved",
      "type": "event"
    },
    {
      "anonymous": false,
      "inputs": [
        {
          "indexed": false,
          "internalType": "address",
          "name": "patient",
          "type": "address"
        },
        {
          "indexed": false,
          "internalType": "address",
          "name": "doctor",
          "type": "address"
        }
      ],
      "name": "ChangedStatus",
      "type": "event"
    },
    {
      "anonymous": false,
      "inputs": [
        {
          "indexed": false,
          "internalType": "address",
          "name": "doctor",
          "type": "address"
        },
        {
          "indexed": false,
          "internalType": "address",
          "name": "patient",
          "type": "address"
        }
      ],
      "name": "ClaimedApprove",
      "type": "event"
    },
    {
      "anonymous": false,
      "inputs": [
        {
          "indexed": false,
          "internalType": "address",
          "name": "patientAddr",
          "type": "address"
        },
        {
          "indexed": false,
          "internalType": "string",
          "name": "patientName",
          "type": "string"
        },
        {
          "indexed": false,
          "internalType": "string",
          "name": "bloodType",
          "type": "string"
        },
        {
          "indexed": false,
          "internalType": "string",
          "name": "lastUpDate",
          "type": "string"
        },
        {
          "indexed": false,
          "internalType": "string",
          "name": "doctorName",
          "type": "string"
        }
      ],
      "name": "CreateMedicalData",
      "type": "event"
    },
    {
      "anonymous": false,
      "inputs": [
        {
          "indexed": false,
          "internalType": "address",
          "name": "patientAddr",
          "type": "address"
        }
      ],
      "name": "DeleteMedicalData",
      "type": "event"
    },
    {
      "anonymous": false,
      "inputs": [
        {
          "indexed": false,
          "internalType": "address",
          "name": "patientAddr",
          "type": "address"
        },
        {
          "indexed": false,
          "internalType": "string",
          "name": "patientName",
          "type": "string"
        },
        {
          "indexed": false,
          "internalType": "string",
          "name": "bloodType",
          "type": "string"
        },
        {
          "indexed": false,
          "internalType": "string",
          "name": "lastUpDate",
          "type": "string"
        },
        {
          "indexed": false,
          "internalType": "string",
          "name": "doctorName",
          "type": "string"
        }
      ],
      "name": "EditMedicalData",
      "type": "event"
    },
    {
      "anonymous": false,
      "inputs": [
        {
          "indexed": false,
          "internalType": "address",
          "name": "patientAddr",
          "type": "address"
        },
        {
          "indexed": false,
          "internalType": "address",
          "name": "doctorAddr",
          "type": "address"
        }
      ],
      "name": "Pay",
      "type": "event"
    },
    {
      "anonymous": false,
      "inputs": [
        {
          "indexed": false,
          "internalType": "address",
          "name": "doctorAddress",
          "type": "address"
        },
        {
          "indexed": false,
          "internalType": "string",
          "name": "doctorName",
          "type": "string"
        }
      ],
      "name": "RegistedDoctor",
      "type": "event"
    },
    {
      "inputs": [],
      "name": "PRICE",
      "outputs": [
        {
          "internalType": "uint256",
          "name": "",
          "type": "uint256"
        }
      ],
      "stateMutability": "view",
      "type": "function",
      "constant": true
    },
    {
      "inputs": [
        {
          "internalType": "address",
          "name": "",
          "type": "address"
        },
        {
          "internalType": "address",
          "name": "",
          "type": "address"
        }
      ],
      "name": "approveMap",
      "outputs": [
        {
          "internalType": "bool",
          "name": "",
          "type": "bool"
        }
      ],
      "stateMutability": "view",
      "type": "function",
      "constant": true
    },
    {
      "inputs": [
        {
          "internalType": "address",
          "name": "",
          "type": "address"
        }
      ],
      "name": "doctorMap",
      "outputs": [
        {
          "internalType": "string",
          "name": "",
          "type": "string"
        }
      ],
      "stateMutability": "view",
      "type": "function",
      "constant": true
    },
    {
      "inputs": [
        {
          "internalType": "address",
          "name": "",
          "type": "address"
        }
      ],
      "name": "doctorRoleMap",
      "outputs": [
        {
          "internalType": "bool",
          "name": "",
          "type": "bool"
        }
      ],
      "stateMutability": "view",
      "type": "function",
      "constant": true
    },
    {
      "inputs": [
        {
          "internalType": "uint256",
          "name": "",
          "type": "uint256"
        }
      ],
      "name": "doctors",
      "outputs": [
        {
          "internalType": "address",
          "name": "",
          "type": "address"
        }
      ],
      "stateMutability": "view",
      "type": "function",
      "constant": true
    },
    {
      "inputs": [
        {
          "internalType": "address",
          "name": "",
          "type": "address"
        }
      ],
      "name": "medicalMap",
      "outputs": [
        {
          "internalType": "string",
          "name": "patientName",
          "type": "string"
        },
        {
          "internalType": "string",
          "name": "bloodType",
          "type": "string"
        },
        {
          "internalType": "string",
          "name": "lastUpdate",
          "type": "string"
        },
        {
          "components": [
            {
              "internalType": "string",
              "name": "lastUpdate",
              "type": "string"
            },
            {
              "internalType": "string",
              "name": "doctorName",
              "type": "string"
            }
          ],
          "internalType": "struct MedicalData.MedicalInsData",
          "name": "medicalInsData",
          "type": "tuple"
        }
      ],
      "stateMutability": "view",
      "type": "function",
      "constant": true
    },
    {
      "inputs": [],
      "name": "owner",
      "outputs": [
        {
          "internalType": "address",
          "name": "",
          "type": "address"
        }
      ],
      "stateMutability": "view",
      "type": "function",
      "constant": true
    },
    {
      "inputs": [
        {
          "internalType": "address",
          "name": "",
          "type": "address"
        },
        {
          "internalType": "address",
          "name": "",
          "type": "address"
        }
      ],
      "name": "requireMap",
      "outputs": [
        {
          "internalType": "bool",
          "name": "",
          "type": "bool"
        }
      ],
      "stateMutability": "view",
      "type": "function",
      "constant": true
    },
    {
      "inputs": [
        {
          "internalType": "address",
          "name": "doctor",
          "type": "address"
        }
      ],
      "name": "approve",
      "outputs": [],
      "stateMutability": "nonpayable",
      "type": "function"
    },
    {
      "inputs": [
        {
          "internalType": "address",
          "name": "doctor",
          "type": "address"
        }
      ],
      "name": "changeStatus",
      "outputs": [],
      "stateMutability": "nonpayable",
      "type": "function"
    },
    {
      "inputs": [
        {
          "internalType": "address",
          "name": "patient",
          "type": "address"
        }
      ],
      "name": "claimApprove",
      "outputs": [],
      "stateMutability": "nonpayable",
      "type": "function"
    },
    {
      "inputs": [
        {
          "internalType": "address",
          "name": "patientAddr",
          "type": "address"
        },
        {
          "internalType": "string",
          "name": "patientName",
          "type": "string"
        },
        {
          "internalType": "string",
          "name": "bloodType",
          "type": "string"
        },
        {
          "internalType": "string",
          "name": "lastUpDate",
          "type": "string"
        },
        {
          "internalType": "string",
          "name": "doctorName",
          "type": "string"
        }
      ],
      "name": "createMedicalData",
      "outputs": [],
      "stateMutability": "nonpayable",
      "type": "function"
    },
    {
      "inputs": [
        {
          "internalType": "address",
          "name": "patientAddr",
          "type": "address"
        },
        {
          "internalType": "string",
          "name": "patientName",
          "type": "string"
        },
        {
          "internalType": "string",
          "name": "bloodType",
          "type": "string"
        },
        {
          "internalType": "string",
          "name": "lastUpDate",
          "type": "string"
        },
        {
          "internalType": "string",
          "name": "doctorName",
          "type": "string"
        }
      ],
      "name": "editMedicalData",
      "outputs": [],
      "stateMutability": "nonpayable",
      "type": "function"
    },
    {
      "inputs": [
        {
          "internalType": "address",
          "name": "patient",
          "type": "address"
        }
      ],
      "name": "deleteMedicalData",
      "outputs": [],
      "stateMutability": "nonpayable",
      "type": "function"
    },
    {
      "inputs": [],
      "name": "selectMedicalData",
      "outputs": [
        {
          "components": [
            {
              "internalType": "string",
              "name": "patientName",
              "type": "string"
            },
            {
              "internalType": "string",
              "name": "bloodType",
              "type": "string"
            },
            {
              "internalType": "string",
              "name": "lastUpdate",
              "type": "string"
            },
            {
              "components": [
                {
                  "internalType": "string",
                  "name": "lastUpdate",
                  "type": "string"
                },
                {
                  "internalType": "string",
                  "name": "doctorName",
                  "type": "string"
                }
              ],
              "internalType": "struct MedicalData.MedicalInsData",
              "name": "medicalInsData",
              "type": "tuple"
            }
          ],
          "internalType": "struct MedicalData.PatientMedicalData",
          "name": "",
          "type": "tuple"
        }
      ],
      "stateMutability": "view",
      "type": "function",
      "constant": true
    },
    {
      "inputs": [
        {
          "internalType": "address",
          "name": "patient",
          "type": "address"
        }
      ],
      "name": "selectPatientMedicalData",
      "outputs": [
        {
          "components": [
            {
              "internalType": "string",
              "name": "patientName",
              "type": "string"
            },
            {
              "internalType": "string",
              "name": "bloodType",
              "type": "string"
            },
            {
              "internalType": "string",
              "name": "lastUpdate",
              "type": "string"
            },
            {
              "components": [
                {
                  "internalType": "string",
                  "name": "lastUpdate",
                  "type": "string"
                },
                {
                  "internalType": "string",
                  "name": "doctorName",
                  "type": "string"
                }
              ],
              "internalType": "struct MedicalData.MedicalInsData",
              "name": "medicalInsData",
              "type": "tuple"
            }
          ],
          "internalType": "struct MedicalData.PatientMedicalData",
          "name": "",
          "type": "tuple"
        }
      ],
      "stateMutability": "view",
      "type": "function",
      "constant": true
    },
    {
      "inputs": [
        {
          "internalType": "address",
          "name": "doctorAddress",
          "type": "address"
        },
        {
          "internalType": "string",
          "name": "doctorName",
          "type": "string"
        }
      ],
      "name": "registDoctor",
      "outputs": [],
      "stateMutability": "nonpayable",
      "type": "function"
    },
    {
      "inputs": [],
      "name": "getDoctors",
      "outputs": [
        {
          "internalType": "address[]",
          "name": "",
          "type": "address[]"
        }
      ],
      "stateMutability": "view",
      "type": "function",
      "constant": true
    },
    {
      "inputs": [],
      "name": "getDoctorInfo",
      "outputs": [
        {
          "components": [
            {
              "internalType": "address",
              "name": "doctorAddr",
              "type": "address"
            },
            {
              "internalType": "string",
              "name": "doctorName",
              "type": "string"
            },
            {
              "internalType": "bool",
              "name": "isRequire",
              "type": "bool"
            },
            {
              "internalType": "bool",
              "name": "isApprove",
              "type": "bool"
            }
          ],
          "internalType": "struct MedicalData.DoctorInfo[]",
          "name": "result",
          "type": "tuple[]"
        }
      ],
      "stateMutability": "view",
      "type": "function",
      "constant": true
    },
    {
      "inputs": [
        {
          "internalType": "address",
          "name": "doctorAddress",
          "type": "address"
        }
      ],
      "name": "pay",
      "outputs": [],
      "stateMutability": "payable",
      "type": "function",
      "payable": true
    }
  ],
  "bytecode": "0x60806040523480156200001157600080fd5b5060405162003f8e38038062003f8e833981810160405281019062000037919062000525565b336000806101000a81548173ffffffffffffffffffffffffffffffffffffffff021916908373ffffffffffffffffffffffffffffffffffffffff16021790555060005b8251811015620002af576001838281518110620000c0577f4e487b7100000000000000000000000000000000000000000000000000000000600052603260045260246000fd5b60200260200101519080600181540180825580915050600190039060005260206000200160009091909190916101000a81548173ffffffffffffffffffffffffffffffffffffffff021916908373ffffffffffffffffffffffffffffffffffffffff16021790555081818151811062000162577f4e487b7100000000000000000000000000000000000000000000000000000000600052603260045260246000fd5b602002602001015160036000858481518110620001a8577f4e487b7100000000000000000000000000000000000000000000000000000000600052603260045260246000fd5b602002602001015173ffffffffffffffffffffffffffffffffffffffff1673ffffffffffffffffffffffffffffffffffffffff1681526020019081526020016000209080519060200190620001ff929190620002b8565b5060016004600085848151811062000240577f4e487b7100000000000000000000000000000000000000000000000000000000600052603260045260246000fd5b602002602001015173ffffffffffffffffffffffffffffffffffffffff1673ffffffffffffffffffffffffffffffffffffffff16815260200190815260200160002060006101000a81548160ff0219169083151502179055508080620002a69062000707565b9150506200007a565b505050620007fc565b828054620002c690620006d1565b90600052602060002090601f016020900481019282620002ea576000855562000336565b82601f106200030557805160ff191683800117855562000336565b8280016001018555821562000336579182015b828111156200033557825182559160200191906001019062000318565b5b50905062000345919062000349565b5090565b5b80821115620003645760008160009055506001016200034a565b5090565b60006200037f6200037984620005cc565b62000598565b905080838252602082019050828560208602820111156200039f57600080fd5b60005b85811015620003d35781620003b8888262000487565b845260208401935060208301925050600181019050620003a2565b5050509392505050565b6000620003f4620003ee84620005fb565b62000598565b9050808382526020820190508260005b858110156200043857815185016200041d8882620004f8565b84526020840193506020830192505060018101905062000404565b5050509392505050565b60006200045962000453846200062a565b62000598565b9050828152602081018484840111156200047257600080fd5b6200047f8482856200069b565b509392505050565b6000815190506200049881620007e2565b92915050565b600082601f830112620004b057600080fd5b8151620004c284826020860162000368565b91505092915050565b600082601f830112620004dd57600080fd5b8151620004ef848260208601620003dd565b91505092915050565b600082601f8301126200050a57600080fd5b81516200051c84826020860162000442565b91505092915050565b600080604083850312156200053957600080fd5b600083015167ffffffffffffffff8111156200055457600080fd5b62000562858286016200049e565b925050602083015167ffffffffffffffff8111156200058057600080fd5b6200058e85828601620004cb565b9150509250929050565b6000604051905081810181811067ffffffffffffffff82111715620005c257620005c1620007b3565b5b8060405250919050565b600067ffffffffffffffff821115620005ea57620005e9620007b3565b5b602082029050602081019050919050565b600067ffffffffffffffff821115620006195762000618620007b3565b5b602082029050602081019050919050565b600067ffffffffffffffff821115620006485762000647620007b3565b5b601f19601f8301169050602081019050919050565b60006200066a8262000671565b9050919050565b600073ffffffffffffffffffffffffffffffffffffffff82169050919050565b6000819050919050565b60005b83811015620006bb5780820151818401526020810190506200069e565b83811115620006cb576000848401525b50505050565b60006002820490506001821680620006ea57607f821691505b6020821081141562000701576200070062000784565b5b50919050565b6000620007148262000691565b91507fffffffffffffffffffffffffffffffffffffffffffffffffffffffffffffffff8214156200074a576200074962000755565b5b600182019050919050565b7f4e487b7100000000000000000000000000000000000000000000000000000000600052601160045260246000fd5b7f4e487b7100000000000000000000000000000000000000000000000000000000600052602260045260246000fd5b7f4e487b7100000000000000000000000000000000000000000000000000000000600052604160045260246000fd5b620007ed816200065d565b8114620007f957600080fd5b50565b613782806200080c6000396000f3fe60806040526004361061011f5760003560e01c80638200a966116100a0578063b13d5d9411610064578063b13d5d94146103fc578063b380f5c614610427578063d1229aee14610452578063daea85c51461047b578063fd61bd92146104a45761011f565b80638200a966146103295780638d859f3e146103525780638da5cb5b1461037d57806390c1e638146103a857806394b502d1146103d35761011f565b80636aa3f233116100e75780636aa3f2331461020c5780636efb1b84146102495780636f8eecfd14610286578063794e217d146102af5780637f24710a146102ec5761011f565b80630c11dedd146101245780631fe51d90146101405780633b6d93901461017d57806346ba4ceb146101ba5780635d2ec7cf146101e3575b600080fd5b61013e60048036038101906101399190612a8f565b6104e4565b005b34801561014c57600080fd5b5061016760048036038101906101629190612ab8565b6106cd565b60405161017491906132d5565b60405180910390f35b34801561018957600080fd5b506101a4600480360381019061019f9190612a8f565b6106fc565b6040516101b191906132f0565b60405180910390f35b3480156101c657600080fd5b506101e160048036038101906101dc9190612b48565b61079c565b005b3480156101ef57600080fd5b5061020a60048036038101906102059190612a8f565b610a66565b005b34801561021857600080fd5b50610233600480360381019061022e9190612a8f565b610bca565b60405161024091906132d5565b60405180910390f35b34801561025557600080fd5b50610270600480360381019061026b9190612c1f565b610bea565b60405161027d91906131ae565b60405180910390f35b34801561029257600080fd5b506102ad60048036038101906102a89190612a8f565b610c29565b005b3480156102bb57600080fd5b506102d660048036038101906102d19190612ab8565b610d8d565b6040516102e391906132d5565b60405180910390f35b3480156102f857600080fd5b50610313600480360381019061030e9190612a8f565b610dbc565b6040516103209190613433565b60405180910390f35b34801561033557600080fd5b50610350600480360381019061034b9190612af4565b611268565b005b34801561035e57600080fd5b50610367611442565b6040516103749190613455565b60405180910390f35b34801561038957600080fd5b5061039261144d565b60405161039f91906131ae565b60405180910390f35b3480156103b457600080fd5b506103bd611471565b6040516103ca9190613433565b60405180910390f35b3480156103df57600080fd5b506103fa60048036038101906103f59190612b48565b611849565b005b34801561040857600080fd5b50610411611b13565b60405161041e9190613291565b60405180910390f35b34801561043357600080fd5b5061043c611ba1565b60405161044991906132b3565b60405180910390f35b34801561045e57600080fd5b5061047960048036038101906104749190612a8f565b61204c565b005b34801561048757600080fd5b506104a2600480360381019061049d9190612a8f565b6123a1565b005b3480156104b057600080fd5b506104cb60048036038101906104c69190612a8f565b61259a565b6040516104db9493929190613312565b60405180910390f35b60001515600460003373ffffffffffffffffffffffffffffffffffffffff1673ffffffffffffffffffffffffffffffffffffffff16815260200190815260200160002060009054906101000a900460ff16151514610577576040517f08c379a000000000000000000000000000000000000000000000000000000000815260040161056e906133f3565b60405180910390fd5b60003373ffffffffffffffffffffffffffffffffffffffff16319050662386f26fc1000081116105dc576040517f08c379a00000000000000000000000000000000000000000000000000000000081526004016105d390613373565b60405180910390fd5b60008273ffffffffffffffffffffffffffffffffffffffff16662386f26fc1000060405161060990613199565b60006040518083038185875af1925050503d8060008114610646576040519150601f19603f3d011682016040523d82523d6000602084013e61064b565b606091505b505090508061068f576040517f08c379a0000000000000000000000000000000000000000000000000000000008152600401610686906133b3565b60405180910390fd5b7f81ee99ba298b40ba6794d7762e20c9e39a6b1ec40a024a3b5e88fd4ef1e85a8433846040516106c09291906131c9565b60405180910390a1505050565b60056020528160005260406000206020528060005260406000206000915091509054906101000a900460ff1681565b6003602052806000526040600020600091509050805461071b90613605565b80601f016020809104026020016040519081016040528092919081815260200182805461074790613605565b80156107945780601f1061076957610100808354040283529160200191610794565b820191906000526020600020905b81548152906001019060200180831161077757829003601f168201915b505050505081565b60011515600460003373ffffffffffffffffffffffffffffffffffffffff1673ffffffffffffffffffffffffffffffffffffffff16815260200190815260200160002060009054906101000a900460ff1615151461082f576040517f08c379a000000000000000000000000000000000000000000000000000000000815260040161082690613393565b60405180910390fd5b8460011515600560008373ffffffffffffffffffffffffffffffffffffffff1673ffffffffffffffffffffffffffffffffffffffff16815260200190815260200160002060003373ffffffffffffffffffffffffffffffffffffffff1673ffffffffffffffffffffffffffffffffffffffff16815260200190815260200160002060009054906101000a900460ff16151514610900576040517f08c379a00000000000000000000000000000000000000000000000000000000081526004016108f7906133d3565b60405180910390fd5b600060405180604001604052808581526020018481525090506000604051806080016040528088815260200187815260200186815260200183815250905080600260008a73ffffffffffffffffffffffffffffffffffffffff1673ffffffffffffffffffffffffffffffffffffffff168152602001908152602001600020600082015181600001908051906020019061099a929190612890565b5060208201518160010190805190602001906109b7929190612890565b5060408201518160020190805190602001906109d4929190612890565b5060608201518160030160008201518160000190805190602001906109fa929190612890565b506020820151816001019080519060200190610a17929190612890565b5050509050507f36d37aa514b1c78519f8a61a0ebc1d8a75a95150d9ba9f33d4656f5be7ece1758888888888604051610a54959493929190613222565b60405180910390a15050505050505050565b60011515600460003373ffffffffffffffffffffffffffffffffffffffff1673ffffffffffffffffffffffffffffffffffffffff16815260200190815260200160002060009054906101000a900460ff16151514610af9576040517f08c379a0000000000000000000000000000000000000000000000000000000008152600401610af090613393565b60405180910390fd5b6001600660003373ffffffffffffffffffffffffffffffffffffffff1673ffffffffffffffffffffffffffffffffffffffff16815260200190815260200160002060008373ffffffffffffffffffffffffffffffffffffffff1673ffffffffffffffffffffffffffffffffffffffff16815260200190815260200160002060006101000a81548160ff0219169083151502179055507fcbe9b38decde986abb73b6b7886822d593acaf5c22aaa47e3360ce71f2602bf23382604051610bbf9291906131c9565b60405180910390a150565b60046020528060005260406000206000915054906101000a900460ff1681565b60018181548110610bfa57600080fd5b906000526020600020016000915054906101000a900473ffffffffffffffffffffffffffffffffffffffff1681565b60001515600460003373ffffffffffffffffffffffffffffffffffffffff1673ffffffffffffffffffffffffffffffffffffffff16815260200190815260200160002060009054906101000a900460ff16151514610cbc576040517f08c379a0000000000000000000000000000000000000000000000000000000008152600401610cb3906133f3565b60405180910390fd5b6000600560003373ffffffffffffffffffffffffffffffffffffffff1673ffffffffffffffffffffffffffffffffffffffff16815260200190815260200160002060008373ffffffffffffffffffffffffffffffffffffffff1673ffffffffffffffffffffffffffffffffffffffff16815260200190815260200160002060006101000a81548160ff0219169083151502179055507f8730e7f2743238cf595c2a262e2b3e6d4475c7170f64568864954543d4443e5e3382604051610d829291906131c9565b60405180910390a150565b60066020528160005260406000206020528060005260406000206000915091509054906101000a900460ff1681565b610dc4612916565b60011515600460003373ffffffffffffffffffffffffffffffffffffffff1673ffffffffffffffffffffffffffffffffffffffff16815260200190815260200160002060009054906101000a900460ff16151514610e57576040517f08c379a0000000000000000000000000000000000000000000000000000000008152600401610e4e90613393565b60405180910390fd5b8160011515600560008373ffffffffffffffffffffffffffffffffffffffff1673ffffffffffffffffffffffffffffffffffffffff16815260200190815260200160002060003373ffffffffffffffffffffffffffffffffffffffff1673ffffffffffffffffffffffffffffffffffffffff16815260200190815260200160002060009054906101000a900460ff16151514610f28576040517f08c379a0000000000000000000000000000000000000000000000000000000008152600401610f1f906133d3565b60405180910390fd5b600260008473ffffffffffffffffffffffffffffffffffffffff1673ffffffffffffffffffffffffffffffffffffffff168152602001908152602001600020604051806080016040529081600082018054610f8290613605565b80601f0160208091040260200160405190810160405280929190818152602001828054610fae90613605565b8015610ffb5780601f10610fd057610100808354040283529160200191610ffb565b820191906000526020600020905b815481529060010190602001808311610fde57829003601f168201915b5050505050815260200160018201805461101490613605565b80601f016020809104026020016040519081016040528092919081815260200182805461104090613605565b801561108d5780601f106110625761010080835404028352916020019161108d565b820191906000526020600020905b81548152906001019060200180831161107057829003601f168201915b505050505081526020016002820180546110a690613605565b80601f01602080910402602001604051908101604052809291908181526020018280546110d290613605565b801561111f5780601f106110f45761010080835404028352916020019161111f565b820191906000526020600020905b81548152906001019060200180831161110257829003601f168201915b505050505081526020016003820160405180604001604052908160008201805461114890613605565b80601f016020809104026020016040519081016040528092919081815260200182805461117490613605565b80156111c15780601f10611196576101008083540402835291602001916111c1565b820191906000526020600020905b8154815290600101906020018083116111a457829003601f168201915b505050505081526020016001820180546111da90613605565b80601f016020809104026020016040519081016040528092919081815260200182805461120690613605565b80156112535780601f1061122857610100808354040283529160200191611253565b820191906000526020600020905b81548152906001019060200180831161123657829003601f168201915b50505050508152505081525050915050919050565b3373ffffffffffffffffffffffffffffffffffffffff1660008054906101000a900473ffffffffffffffffffffffffffffffffffffffff1673ffffffffffffffffffffffffffffffffffffffff16146112f6576040517f08c379a00000000000000000000000000000000000000000000000000000000081526004016112ed90613413565b60405180910390fd5b6001829080600181540180825580915050600190039060005260206000200160009091909190916101000a81548173ffffffffffffffffffffffffffffffffffffffff021916908373ffffffffffffffffffffffffffffffffffffffff16021790555080600360008473ffffffffffffffffffffffffffffffffffffffff1673ffffffffffffffffffffffffffffffffffffffff16815260200190815260200160002090805190602001906113ac929190612890565b506001600460008473ffffffffffffffffffffffffffffffffffffffff1673ffffffffffffffffffffffffffffffffffffffff16815260200190815260200160002060006101000a81548160ff0219169083151502179055507f61bcd75d1ded61d8234e3d22b69fe8e58b0dfcd033d15ed609be8a58c785f46382826040516114369291906131f2565b60405180910390a15050565b662386f26fc1000081565b60008054906101000a900473ffffffffffffffffffffffffffffffffffffffff1681565b611479612916565b60001515600460003373ffffffffffffffffffffffffffffffffffffffff1673ffffffffffffffffffffffffffffffffffffffff16815260200190815260200160002060009054906101000a900460ff1615151461150c576040517f08c379a0000000000000000000000000000000000000000000000000000000008152600401611503906133f3565b60405180910390fd5b600260003373ffffffffffffffffffffffffffffffffffffffff1673ffffffffffffffffffffffffffffffffffffffff16815260200190815260200160002060405180608001604052908160008201805461156690613605565b80601f016020809104026020016040519081016040528092919081815260200182805461159290613605565b80156115df5780601f106115b4576101008083540402835291602001916115df565b820191906000526020600020905b8154815290600101906020018083116115c257829003601f168201915b505050505081526020016001820180546115f890613605565b80601f016020809104026020016040519081016040528092919081815260200182805461162490613605565b80156116715780601f1061164657610100808354040283529160200191611671565b820191906000526020600020905b81548152906001019060200180831161165457829003601f168201915b5050505050815260200160028201805461168a90613605565b80601f01602080910402602001604051908101604052809291908181526020018280546116b690613605565b80156117035780601f106116d857610100808354040283529160200191611703565b820191906000526020600020905b8154815290600101906020018083116116e657829003601f168201915b505050505081526020016003820160405180604001604052908160008201805461172c90613605565b80601f016020809104026020016040519081016040528092919081815260200182805461175890613605565b80156117a55780601f1061177a576101008083540402835291602001916117a5565b820191906000526020600020905b81548152906001019060200180831161178857829003601f168201915b505050505081526020016001820180546117be90613605565b80601f01602080910402602001604051908101604052809291908181526020018280546117ea90613605565b80156118375780601f1061180c57610100808354040283529160200191611837565b820191906000526020600020905b81548152906001019060200180831161181a57829003601f168201915b50505050508152505081525050905090565b60011515600460003373ffffffffffffffffffffffffffffffffffffffff1673ffffffffffffffffffffffffffffffffffffffff16815260200190815260200160002060009054906101000a900460ff161515146118dc576040517f08c379a00000000000000000000000000000000000000000000000000000000081526004016118d390613393565b60405180910390fd5b8460011515600560008373ffffffffffffffffffffffffffffffffffffffff1673ffffffffffffffffffffffffffffffffffffffff16815260200190815260200160002060003373ffffffffffffffffffffffffffffffffffffffff1673ffffffffffffffffffffffffffffffffffffffff16815260200190815260200160002060009054906101000a900460ff161515146119ad576040517f08c379a00000000000000000000000000000000000000000000000000000000081526004016119a4906133d3565b60405180910390fd5b600060405180604001604052808581526020018481525090506000604051806080016040528088815260200187815260200186815260200183815250905080600260008a73ffffffffffffffffffffffffffffffffffffffff1673ffffffffffffffffffffffffffffffffffffffff1681526020019081526020016000206000820151816000019080519060200190611a47929190612890565b506020820151816001019080519060200190611a64929190612890565b506040820151816002019080519060200190611a81929190612890565b506060820151816003016000820151816000019080519060200190611aa7929190612890565b506020820151816001019080519060200190611ac4929190612890565b5050509050507f3a9d2e3abbf1feead8ea242e633e03e77bac21532996e4e5c475451da77c87b38888888888604051611b01959493929190613222565b60405180910390a15050505050505050565b60606001805480602002602001604051908101604052809291908181526020018280548015611b9757602002820191906000526020600020905b8160009054906101000a900473ffffffffffffffffffffffffffffffffffffffff1673ffffffffffffffffffffffffffffffffffffffff1681526020019060010190808311611b4d575b5050505050905090565b6060600060018054905090508067ffffffffffffffff811115611bed577f4e487b7100000000000000000000000000000000000000000000000000000000600052604160045260246000fd5b604051908082528060200260200182016040528015611c2657816020015b611c13612944565b815260200190600190039081611c0b5790505b50915060005b818110156120475760006003600060018481548110611c74577f4e487b7100000000000000000000000000000000000000000000000000000000600052603260045260246000fd5b9060005260206000200160009054906101000a900473ffffffffffffffffffffffffffffffffffffffff1673ffffffffffffffffffffffffffffffffffffffff1673ffffffffffffffffffffffffffffffffffffffff1681526020019081526020016000208054611ce490613605565b80601f0160208091040260200160405190810160405280929190818152602001828054611d1090613605565b8015611d5d5780601f10611d3257610100808354040283529160200191611d5d565b820191906000526020600020905b815481529060010190602001808311611d4057829003601f168201915b5050505050905060006006600060018581548110611da4577f4e487b7100000000000000000000000000000000000000000000000000000000600052603260045260246000fd5b9060005260206000200160009054906101000a900473ffffffffffffffffffffffffffffffffffffffff1673ffffffffffffffffffffffffffffffffffffffff1673ffffffffffffffffffffffffffffffffffffffff16815260200190815260200160002060003373ffffffffffffffffffffffffffffffffffffffff1673ffffffffffffffffffffffffffffffffffffffff16815260200190815260200160002060009054906101000a900460ff1690506000600560003373ffffffffffffffffffffffffffffffffffffffff1673ffffffffffffffffffffffffffffffffffffffff168152602001908152602001600020600060018681548110611ed3577f4e487b7100000000000000000000000000000000000000000000000000000000600052603260045260246000fd5b9060005260206000200160009054906101000a900473ffffffffffffffffffffffffffffffffffffffff1673ffffffffffffffffffffffffffffffffffffffff1673ffffffffffffffffffffffffffffffffffffffff16815260200190815260200160002060009054906101000a900460ff1690506000604051806080016040528060018781548110611f8f577f4e487b7100000000000000000000000000000000000000000000000000000000600052603260045260246000fd5b9060005260206000200160009054906101000a900473ffffffffffffffffffffffffffffffffffffffff1673ffffffffffffffffffffffffffffffffffffffff1681526020018581526020018415158152602001831515815250905080878681518110612025577f4e487b7100000000000000000000000000000000000000000000000000000000600052603260045260246000fd5b602002602001018190525050505050808061203f90613637565b915050611c2c565b505090565b60011515600460003373ffffffffffffffffffffffffffffffffffffffff1673ffffffffffffffffffffffffffffffffffffffff16815260200190815260200160002060009054906101000a900460ff161515146120df576040517f08c379a00000000000000000000000000000000000000000000000000000000081526004016120d690613393565b60405180910390fd5b8060011515600560008373ffffffffffffffffffffffffffffffffffffffff1673ffffffffffffffffffffffffffffffffffffffff16815260200190815260200160002060003373ffffffffffffffffffffffffffffffffffffffff1673ffffffffffffffffffffffffffffffffffffffff16815260200190815260200160002060009054906101000a900460ff161515146121b0576040517f08c379a00000000000000000000000000000000000000000000000000000000081526004016121a7906133d3565b60405180910390fd5b600260008373ffffffffffffffffffffffffffffffffffffffff1673ffffffffffffffffffffffffffffffffffffffff168152602001908152602001600020600080820160006122009190612986565b6001820160006122109190612986565b6002820160006122209190612986565b60038201600080820160006122359190612986565b6001820160006122459190612986565b5050505060005b600180549050811015612365576000600560008573ffffffffffffffffffffffffffffffffffffffff1673ffffffffffffffffffffffffffffffffffffffff1681526020019081526020016000206000600184815481106122d6577f4e487b7100000000000000000000000000000000000000000000000000000000600052603260045260246000fd5b9060005260206000200160009054906101000a900473ffffffffffffffffffffffffffffffffffffffff1673ffffffffffffffffffffffffffffffffffffffff1673ffffffffffffffffffffffffffffffffffffffff16815260200190815260200160002060006101000a81548160ff021916908315150217905550808061235d90613637565b91505061224c565b507fd7753f3b8a7bd1cdece74a0a97a24e6418c57a841e5607d0fecdff37cd358dbd8260405161239591906131ae565b60405180910390a15050565b60001515600460003373ffffffffffffffffffffffffffffffffffffffff1673ffffffffffffffffffffffffffffffffffffffff16815260200190815260200160002060009054906101000a900460ff16151514612434576040517f08c379a000000000000000000000000000000000000000000000000000000000815260040161242b906133f3565b60405180910390fd5b6001600560003373ffffffffffffffffffffffffffffffffffffffff1673ffffffffffffffffffffffffffffffffffffffff16815260200190815260200160002060008373ffffffffffffffffffffffffffffffffffffffff1673ffffffffffffffffffffffffffffffffffffffff16815260200190815260200160002060006101000a81548160ff0219169083151502179055506000600660008373ffffffffffffffffffffffffffffffffffffffff1673ffffffffffffffffffffffffffffffffffffffff16815260200190815260200160002060003373ffffffffffffffffffffffffffffffffffffffff1673ffffffffffffffffffffffffffffffffffffffff16815260200190815260200160002060006101000a81548160ff0219169083151502179055507faad2833c9fd7a3de33f301e5186ee84d1a5753ce32de6b97baedaac4b92b55fc338260405161258f9291906131c9565b60405180910390a150565b60026020528060005260406000206000915090508060000180546125bd90613605565b80601f01602080910402602001604051908101604052809291908181526020018280546125e990613605565b80156126365780601f1061260b57610100808354040283529160200191612636565b820191906000526020600020905b81548152906001019060200180831161261957829003601f168201915b50505050509080600101805461264b90613605565b80601f016020809104026020016040519081016040528092919081815260200182805461267790613605565b80156126c45780601f10612699576101008083540402835291602001916126c4565b820191906000526020600020905b8154815290600101906020018083116126a757829003601f168201915b5050505050908060020180546126d990613605565b80601f016020809104026020016040519081016040528092919081815260200182805461270590613605565b80156127525780601f1061272757610100808354040283529160200191612752565b820191906000526020600020905b81548152906001019060200180831161273557829003601f168201915b5050505050908060030160405180604001604052908160008201805461277790613605565b80601f01602080910402602001604051908101604052809291908181526020018280546127a390613605565b80156127f05780601f106127c5576101008083540402835291602001916127f0565b820191906000526020600020905b8154815290600101906020018083116127d357829003601f168201915b5050505050815260200160018201805461280990613605565b80601f016020809104026020016040519081016040528092919081815260200182805461283590613605565b80156128825780601f1061285757610100808354040283529160200191612882565b820191906000526020600020905b81548152906001019060200180831161286557829003601f168201915b505050505081525050905084565b82805461289c90613605565b90600052602060002090601f0160209004810192826128be5760008555612905565b82601f106128d757805160ff1916838001178555612905565b82800160010185558215612905579182015b828111156129045782518255916020019190600101906128e9565b5b50905061291291906129c6565b5090565b604051806080016040528060608152602001606081526020016060815260200161293e6129e3565b81525090565b6040518060800160405280600073ffffffffffffffffffffffffffffffffffffffff168152602001606081526020016000151581526020016000151581525090565b50805461299290613605565b6000825580601f106129a457506129c3565b601f0160209004906000526020600020908101906129c291906129c6565b5b50565b5b808211156129df5760008160009055506001016129c7565b5090565b604051806040016040528060608152602001606081525090565b6000612a10612a0b846134a1565b613470565b905082815260208101848484011115612a2857600080fd5b612a338482856135c3565b509392505050565b600081359050612a4a8161371e565b92915050565b600082601f830112612a6157600080fd5b8135612a718482602086016129fd565b91505092915050565b600081359050612a8981613735565b92915050565b600060208284031215612aa157600080fd5b6000612aaf84828501612a3b565b91505092915050565b60008060408385031215612acb57600080fd5b6000612ad985828601612a3b565b9250506020612aea85828601612a3b565b9150509250929050565b60008060408385031215612b0757600080fd5b6000612b1585828601612a3b565b925050602083013567ffffffffffffffff811115612b3257600080fd5b612b3e85828601612a50565b9150509250929050565b600080600080600060a08688031215612b6057600080fd5b6000612b6e88828901612a3b565b955050602086013567ffffffffffffffff811115612b8b57600080fd5b612b9788828901612a50565b945050604086013567ffffffffffffffff811115612bb457600080fd5b612bc088828901612a50565b935050606086013567ffffffffffffffff811115612bdd57600080fd5b612be988828901612a50565b925050608086013567ffffffffffffffff811115612c0657600080fd5b612c1288828901612a50565b9150509295509295909350565b600060208284031215612c3157600080fd5b6000612c3f84828501612a7a565b91505092915050565b6000612c548383612c74565b60208301905092915050565b6000612c6c8383613027565b905092915050565b612c7d8161357b565b82525050565b612c8c8161357b565b82525050565b6000612c9d826134f1565b612ca7818561352c565b9350612cb2836134d1565b8060005b83811015612ce3578151612cca8882612c48565b9750612cd583613512565b925050600181019050612cb6565b5085935050505092915050565b6000612cfb826134fc565b612d05818561353d565b935083602082028501612d17856134e1565b8060005b85811015612d535784840389528151612d348582612c60565b9450612d3f8361351f565b925060208a01995050600181019050612d1b565b50829750879550505050505092915050565b612d6e8161358d565b82525050565b612d7d8161358d565b82525050565b6000612d8e82613507565b612d988185613559565b9350612da88185602086016135d2565b612db18161370d565b840191505092915050565b6000612dc782613507565b612dd1818561356a565b9350612de18185602086016135d2565b612dea8161370d565b840191505092915050565b6000612e0260198361356a565b91507f4e6f206574686572206c65667420746f207769746864726177000000000000006000830152602082019050919050565b6000612e4260238361356a565b91507f6d73672e73656e64646572206d757374206861766520646f63746f7220726f6c60008301527f65212100000000000000000000000000000000000000000000000000000000006020830152604082019050919050565b6000612ea8600f8361356a565b91507f5061796d656e74206661696c65642e00000000000000000000000000000000006000830152602082019050919050565b6000612ee860218361356a565b91507f796f75206d75737420626520617070726f7665642062792070617469656e742160008301527f21000000000000000000000000000000000000000000000000000000000000006020830152604082019050919050565b6000612f4e60008361354e565b9150600082019050919050565b6000612f6860248361356a565b91507f6d73672e73656e64646572206d75737420686176652070617469656e7420726f60008301527f6c652121000000000000000000000000000000000000000000000000000000006020830152604082019050919050565b6000612fce60258361356a565b91507f6d73672e73656e646572206d757374206265206f776e6572277320616464726560008301527f73732021210000000000000000000000000000000000000000000000000000006020830152604082019050919050565b600060808301600083015161303f6000860182612c74565b50602083015184820360208601526130578282612d83565b915050604083015161306c6040860182612d65565b50606083015161307f6060860182612d65565b508091505092915050565b600060408301600083015184820360008601526130a78282612d83565b915050602083015184820360208601526130c18282612d83565b9150508091505092915050565b600060408301600083015184820360008601526130eb8282612d83565b915050602083015184820360208601526131058282612d83565b9150508091505092915050565b6000608083016000830151848203600086015261312f8282612d83565b915050602083015184820360208601526131498282612d83565b915050604083015184820360408601526131638282612d83565b9150506060830151848203606086015261317d828261308a565b9150508091505092915050565b613193816135b9565b82525050565b60006131a482612f41565b9150819050919050565b60006020820190506131c36000830184612c83565b92915050565b60006040820190506131de6000830185612c83565b6131eb6020830184612c83565b9392505050565b60006040820190506132076000830185612c83565b81810360208301526132198184612dbc565b90509392505050565b600060a0820190506132376000830188612c83565b81810360208301526132498187612dbc565b9050818103604083015261325d8186612dbc565b905081810360608301526132718185612dbc565b905081810360808301526132858184612dbc565b90509695505050505050565b600060208201905081810360008301526132ab8184612c92565b905092915050565b600060208201905081810360008301526132cd8184612cf0565b905092915050565b60006020820190506132ea6000830184612d74565b92915050565b6000602082019050818103600083015261330a8184612dbc565b905092915050565b6000608082019050818103600083015261332c8187612dbc565b905081810360208301526133408186612dbc565b905081810360408301526133548185612dbc565b9050818103606083015261336881846130ce565b905095945050505050565b6000602082019050818103600083015261338c81612df5565b9050919050565b600060208201905081810360008301526133ac81612e35565b9050919050565b600060208201905081810360008301526133cc81612e9b565b9050919050565b600060208201905081810360008301526133ec81612edb565b9050919050565b6000602082019050818103600083015261340c81612f5b565b9050919050565b6000602082019050818103600083015261342c81612fc1565b9050919050565b6000602082019050818103600083015261344d8184613112565b905092915050565b600060208201905061346a600083018461318a565b92915050565b6000604051905081810181811067ffffffffffffffff82111715613497576134966136de565b5b8060405250919050565b600067ffffffffffffffff8211156134bc576134bb6136de565b5b601f19601f8301169050602081019050919050565b6000819050602082019050919050565b6000819050602082019050919050565b600081519050919050565b600081519050919050565b600081519050919050565b6000602082019050919050565b6000602082019050919050565b600082825260208201905092915050565b600082825260208201905092915050565b600081905092915050565b600082825260208201905092915050565b600082825260208201905092915050565b600061358682613599565b9050919050565b60008115159050919050565b600073ffffffffffffffffffffffffffffffffffffffff82169050919050565b6000819050919050565b82818337600083830152505050565b60005b838110156135f05780820151818401526020810190506135d5565b838111156135ff576000848401525b50505050565b6000600282049050600182168061361d57607f821691505b60208210811415613631576136306136af565b5b50919050565b6000613642826135b9565b91507fffffffffffffffffffffffffffffffffffffffffffffffffffffffffffffffff82141561367557613674613680565b5b600182019050919050565b7f4e487b7100000000000000000000000000000000000000000000000000000000600052601160045260246000fd5b7f4e487b7100000000000000000000000000000000000000000000000000000000600052602260045260246000fd5b7f4e487b7100000000000000000000000000000000000000000000000000000000600052604160045260246000fd5b6000601f19601f8301169050919050565b6137278161357b565b811461373257600080fd5b50565b61373e816135b9565b811461374957600080fd5b5056fea2646970667358221220bb3d2d104223a3004a170de892f12abc79feab03a597d02ee1bf92bbffdfd76064736f6c63430008000033",
  "immutableReferences": {},
  "source": "// SPDX-License-Identifier: MIT\npragma solidity >=0.8.0;\n\ncontract MedicalData {\n    // \n    struct MedicalInsData {\n        // \n        string lastUpdate;\n        // ()\n        string doctorName;\n    }\n\n    // \n    struct PatientMedicalData {\n        // \n        string patientName;\n        // \n        string bloodType;\n        // \n        string lastUpdate;\n        //  MedicalInsData\n        MedicalInsData medicalInsData;\n    }\n\n    // \n    struct DoctorInfo {\n        // \n        address doctorAddr;\n        // \n        string doctorName;\n        // \n        bool isRequire;\n        // \n        bool isApprove;\n    }\n\n    // \n    address public owner;\n    // \n    address[] public doctors;\n    //  (0.01ETH)\n    uint256 public constant PRICE = 0.01 ether;\n    // Map\n    mapping(address => PatientMedicalData) public medicalMap;\n    // Map\n    mapping(address => string) public doctorMap;\n    // Map\n    mapping(address => bool) public doctorRoleMap;\n    // Map\n    mapping(address => mapping(address => bool)) public approveMap;\n    // Map\n    mapping(address => mapping(address => bool)) public requireMap;\n\n    // \n    modifier onlyPatient() {\n        require(\n            doctorRoleMap[msg.sender] == false,\n            \"msg.sendder must have patient role!!\"\n        );\n        _;\n    }\n\n    // \n    modifier onlyDoctor() {\n        require(\n            doctorRoleMap[msg.sender] == true,\n            \"msg.sendder must have doctor role!!\"\n        );\n        _;\n    }\n\n    // owner\n    modifier onlyOwner() {\n        require(owner == msg.sender, \"msg.sender must be owner's address !!\");\n        _;\n    }\n\n    // \n    modifier isApproved(address patient) {\n        require(\n            approveMap[patient][msg.sender] == true,\n            \"you must be approved by patient!!\"\n        );\n        _;\n    }\n\n    // 0\n    modifier zeroAmount() {\n        uint256 balance = address(msg.sender).balance;\n        require(balance > PRICE, \"No ether left to withdraw\");\n        _;\n    }\n\n    // \n    event Approved(address patient, address doctor);\n    event ChangedStatus(address patient, address doctor);\n    event RegistedDoctor(address doctorAddress, string doctorName);\n    event ClaimedApprove(address doctor, address patient);\n    event CreateMedicalData(\n        address patientAddr,\n        string patientName,\n        string bloodType,\n        string lastUpDate,\n        string doctorName\n    );\n    event EditMedicalData(\n        address patientAddr,\n        string patientName,\n        string bloodType,\n        string lastUpDate,\n        string doctorName\n    );\n    event DeleteMedicalData(address patientAddr);\n    event Pay(address patientAddr, address doctorAddr);\n\n    /**\n     * \n     * @param _doctorAddrs \n     * @param _doctorNames \n     */\n    constructor(address[] memory _doctorAddrs, string[] memory _doctorNames) {\n        // owner\n        owner = msg.sender;\n\n        for (uint256 i = 0; i < _doctorAddrs.length; i++) {\n            // \n            doctors.push(_doctorAddrs[i]);\n            // \n            doctorMap[_doctorAddrs[i]] = _doctorNames[i];\n            // \n            doctorRoleMap[_doctorAddrs[i]] = true;\n        }\n    }\n\n    /**\n     * \n     * @param doctor \n     */\n    function approve(address doctor) public onlyPatient {\n        // \n        approveMap[msg.sender][doctor] = true;\n        // false\n        requireMap[doctor][msg.sender] = false;\n\n        emit Approved(msg.sender, doctor);\n    }\n\n    /**\n     * \n     * @param doctor \n     */\n    function changeStatus(address doctor) public onlyPatient {\n        // \n        approveMap[msg.sender][doctor] = false;\n\n        emit ChangedStatus(msg.sender, doctor);\n    }\n\n    /**\n     * \n     * @param patient \n     */\n    function claimApprove(address patient) public onlyDoctor {\n        // \n        requireMap[msg.sender][patient] = true;\n\n        emit ClaimedApprove(msg.sender, patient);\n    }\n\n    /**\n     * \n     * @param patientAddr \n     * @param patientName \n     * @param bloodType \n     * @param lastUpDate \n     * @param doctorName ()\n     */\n    function createMedicalData(\n        address patientAddr,\n        string memory patientName,\n        string memory bloodType,\n        string memory lastUpDate,\n        string memory doctorName\n    ) public onlyDoctor isApproved(patientAddr) {\n        // Struct\n        MedicalInsData memory medicalInsData = MedicalInsData(\n            lastUpDate,\n            doctorName\n        );\n        // Struct\n        PatientMedicalData memory patientMedicalData = PatientMedicalData(\n            patientName,\n            bloodType,\n            lastUpDate,\n            medicalInsData\n        );\n        // \n        medicalMap[patientAddr] = patientMedicalData;\n\n        emit CreateMedicalData(\n            patientAddr,\n            patientName,\n            bloodType,\n            lastUpDate,\n            doctorName\n        );\n    }\n\n    /**\n     * \n     * @param patientAddr \n     * @param patientName \n     * @param bloodType \n     * @param lastUpDate \n     * @param doctorName ()\n     */\n    function editMedicalData(\n        address patientAddr,\n        string memory patientName,\n        string memory bloodType,\n        string memory lastUpDate,\n        string memory doctorName\n    ) public onlyDoctor isApproved(patientAddr) {\n        // Struct\n        MedicalInsData memory newMedicalInsData = MedicalInsData(\n            lastUpDate,\n            doctorName\n        );\n        // Struct\n        PatientMedicalData memory newPatientMedicalData = PatientMedicalData(\n            patientName,\n            bloodType,\n            lastUpDate,\n            newMedicalInsData\n        );\n        // ()\n        medicalMap[patientAddr] = newPatientMedicalData;\n\n        emit EditMedicalData(\n            patientAddr,\n            patientName,\n            bloodType,\n            lastUpDate,\n            doctorName\n        );\n    }\n\n    /**\n     * \n     * @param patient \n     */\n    function deleteMedicalData(address patient)\n        public\n        onlyDoctor\n        isApproved(patient)\n    {\n        // \n        delete medicalMap[patient];\n        // \n        for (uint256 i = 0; i < doctors.length; i++) {\n            approveMap[patient][doctors[i]] = false;\n        }\n\n        emit DeleteMedicalData(patient);\n    }\n\n    /**\n     * \n     */\n    function selectMedicalData()\n        public\n        view\n        onlyPatient\n        returns (PatientMedicalData memory)\n    {\n        // \n        return medicalMap[msg.sender];\n    }\n\n    /**\n     * \n     * @param patient \n     */\n    function selectPatientMedicalData(address patient)\n        public\n        view\n        onlyDoctor\n        isApproved(patient)\n        returns (PatientMedicalData memory)\n    {\n        // \n        return medicalMap[patient];\n    }\n\n    /**\n     * \n     * @param doctorAddress \n     * @param doctorName \n     */\n    function registDoctor(address doctorAddress, string memory doctorName)\n        public\n        onlyOwner\n    {\n        // \n        doctors.push(doctorAddress);\n        // \n        doctorMap[doctorAddress] = doctorName;\n        // \n        doctorRoleMap[doctorAddress] = true;\n\n        emit RegistedDoctor(doctorAddress, doctorName);\n    }\n\n    /**\n     * \n     */\n    function getDoctors() public view returns (address[] memory) {\n        return doctors;\n    }\n\n    /**\n     * \n     */\n    function getDoctorInfo() public view returns (DoctorInfo[] memory result) {\n        // \n        uint256 size = doctors.length;\n        // \n        result = new DoctorInfo[](size);\n        // DoctorInfo\n        for (uint256 i = 0; i < size; i++) {\n            // \n            string memory doctorName = doctorMap[doctors[i]];\n            // \n            bool isRequired = requireMap[doctors[i]][msg.sender];\n            // \n            bool approved = approveMap[msg.sender][doctors[i]];\n            // DoctorInfo\n            DoctorInfo memory res = DoctorInfo(\n                doctors[i],\n                doctorName,\n                isRequired,\n                approved\n            );\n            result[i] = res;\n        }\n\n        return result;\n    }\n\n    /**\n     * \n     * @param doctorAddress \n     */\n    function pay(address doctorAddress) public payable onlyPatient zeroAmount {\n        // send 0.01 ETH to doctorAddress\n        (bool success, ) = payable(doctorAddress).call{value: PRICE}(\"\");\n        require(success, \"Payment failed.\");\n        // \n        emit Pay(msg.sender, doctorAddress);\n    }\n}\n",
  "sourcePath": "/Users/harukikondo/git/Web3MedicalDApp/backend/contracts/MedicalData.sol",
  "compiler": {
    "name": "solc",
    "version": "0.8.0+commit.c7dfd78e.Emscripten.clang"
  },
  "schemaVersion": "3.4.3",
  "updatedAt": "2022-07-02T08:57:40.185Z",
  "networkType": "ethereum",
  "devdoc": {
    "kind": "dev",
    "methods": {
      "approve(address)": {
        "params": {
          "doctor": ""
        }
      },
      "changeStatus(address)": {
        "params": {
          "doctor": ""
        }
      },
      "claimApprove(address)": {
        "params": {
          "patient": ""
        }
      },
      "constructor": {
        "params": {
          "_doctorAddrs": "",
          "_doctorNames": ""
        }
      },
      "createMedicalData(address,string,string,string,string)": {
        "params": {
          "bloodType": "",
          "doctorName": "()",
          "lastUpDate": "",
          "patientAddr": "",
          "patientName": ""
        }
      },
      "deleteMedicalData(address)": {
        "params": {
          "patient": ""
        }
      },
      "editMedicalData(address,string,string,string,string)": {
        "params": {
          "bloodType": "",
          "doctorName": "()",
          "lastUpDate": "",
          "patientAddr": "",
          "patientName": ""
        }
      },
      "pay(address)": {
        "params": {
          "doctorAddress": ""
        }
      },
      "registDoctor(address,string)": {
        "params": {
          "doctorAddress": "",
          "doctorName": ""
        }
      },
      "selectPatientMedicalData(address)": {
        "params": {
          "patient": ""
        }
      }
    },
    "version": 1
  },
  "userdoc": {
    "kind": "user",
    "methods": {
      "approve(address)": {
        "notice": ""
      },
      "changeStatus(address)": {
        "notice": ""
      },
      "claimApprove(address)": {
        "notice": ""
      },
      "constructor": {
        "notice": ""
      },
      "createMedicalData(address,string,string,string,string)": {
        "notice": ""
      },
      "deleteMedicalData(address)": {
        "notice": ""
      },
      "editMedicalData(address,string,string,string,string)": {
        "notice": ""
      },
      "getDoctorInfo()": {
        "notice": ""
      },
      "getDoctors()": {
        "notice": ""
      },
      "pay(address)": {
        "notice": ""
      },
      "registDoctor(address,string)": {
        "notice": ""
      },
      "selectMedicalData()": {
        "notice": ""
      },
      "selectPatientMedicalData(address)": {
        "notice": ""
      }
    },
    "version": 1
  }
}