{
  "contractName": "SBT",
  "abi": [
    {
      "inputs": [
        {
          "internalType": "string",
          "name": "_name",
          "type": "string"
        },
        {
          "internalType": "string",
          "name": "_symbol",
          "type": "string"
        }
      ],
      "stateMutability": "nonpayable",
      "type": "constructor"
    },
    {
      "anonymous": false,
      "inputs": [
        {
          "indexed": true,
          "internalType": "address",
          "name": "to",
          "type": "address"
        },
        {
          "indexed": true,
          "internalType": "uint256",
          "name": "tokenId",
          "type": "uint256"
        }
      ],
      "name": "Attest",
      "type": "event"
    },
    {
      "anonymous": false,
      "inputs": [
        {
          "indexed": false,
          "internalType": "address",
          "name": "to",
          "type": "address"
        },
        {
          "indexed": false,
          "internalType": "uint256",
          "name": "tokenId",
          "type": "uint256"
        }
      ],
      "name": "Mint",
      "type": "event"
    },
    {
      "anonymous": false,
      "inputs": [
        {
          "indexed": true,
          "internalType": "address",
          "name": "to",
          "type": "address"
        },
        {
          "indexed": true,
          "internalType": "uint256",
          "name": "tokenId",
          "type": "uint256"
        }
      ],
      "name": "Revoke",
      "type": "event"
    },
    {
      "inputs": [],
      "name": "name",
      "outputs": [
        {
          "internalType": "string",
          "name": "",
          "type": "string"
        }
      ],
      "stateMutability": "view",
      "type": "function",
      "constant": true
    },
    {
      "inputs": [
        {
          "internalType": "bytes4",
          "name": "interfaceId",
          "type": "bytes4"
        }
      ],
      "name": "supportsInterface",
      "outputs": [
        {
          "internalType": "bool",
          "name": "",
          "type": "bool"
        }
      ],
      "stateMutability": "view",
      "type": "function",
      "constant": true
    },
    {
      "inputs": [],
      "name": "symbol",
      "outputs": [
        {
          "internalType": "string",
          "name": "",
          "type": "string"
        }
      ],
      "stateMutability": "view",
      "type": "function",
      "constant": true
    },
    {
      "inputs": [
        {
          "internalType": "address",
          "name": "to",
          "type": "address"
        }
      ],
      "name": "mint",
      "outputs": [],
      "stateMutability": "nonpayable",
      "type": "function"
    },
    {
      "inputs": [],
      "name": "totalSupply",
      "outputs": [
        {
          "internalType": "uint256",
          "name": "",
          "type": "uint256"
        }
      ],
      "stateMutability": "view",
      "type": "function",
      "constant": true
    },
    {
      "inputs": [
        {
          "internalType": "address",
          "name": "owner",
          "type": "address"
        }
      ],
      "name": "balanceOf",
      "outputs": [
        {
          "internalType": "uint256",
          "name": "",
          "type": "uint256"
        }
      ],
      "stateMutability": "view",
      "type": "function",
      "constant": true
    },
    {
      "inputs": [
        {
          "internalType": "uint256",
          "name": "tokenId",
          "type": "uint256"
        }
      ],
      "name": "ownerOf",
      "outputs": [
        {
          "internalType": "address",
          "name": "",
          "type": "address"
        }
      ],
      "stateMutability": "view",
      "type": "function",
      "constant": true
    },
    {
      "inputs": [
        {
          "internalType": "uint256",
          "name": "tokenId",
          "type": "uint256"
        }
      ],
      "name": "burn",
      "outputs": [],
      "stateMutability": "nonpayable",
      "type": "function"
    }
  ],
  "bytecode": "0x60806040523480156200001157600080fd5b5060405162000fb738038062000fb78339818101604052810190620000379190620002cb565b81816200008c7f13b182f4c0e5b2efbac0efe6cf6d756c8b89f4b79c5707a043ed9ea740574ee97f7feaf19471f34a12a7eaf32d5f3090aa2260ea8624dc8a138e74e0bf0f623076186200013f60201b60201c565b508160009080519060200190620000a5929190620001a9565b508060019080519060200190620000be929190620001a9565b505050620001367fe3b12f5a217e90d4357d84a2ec0f5b236cdc0ea4f67bb30336233808527eef0a7f3badcb5a85b80057802393c7c7dceb45dd1112972dd740244d4ce934995b91227f17e9ebaeee75627a247eb8aa75aa3ec44d7e3de40936ecd1d156c5fa582962b118186200013f60201b60201c565b5050506200046f565b60007f01ffc9a7000000000000000000000000000000000000000000000000000000007bffffffffffffffffffffffffffffffffffffffffffffffffffffffff1916827bffffffffffffffffffffffffffffffffffffffffffffffffffffffff1916149050919050565b828054620001b790620003db565b90600052602060002090601f016020900481019282620001db576000855562000227565b82601f10620001f657805160ff191683800117855562000227565b8280016001018555821562000227579182015b828111156200022657825182559160200191906001019062000209565b5b5090506200023691906200023a565b5090565b5b80821115620002555760008160009055506001016200023b565b5090565b6000620002706200026a8462000372565b6200033e565b9050828152602081018484840111156200028957600080fd5b62000296848285620003a5565b509392505050565b600082601f830112620002b057600080fd5b8151620002c284826020860162000259565b91505092915050565b60008060408385031215620002df57600080fd5b600083015167ffffffffffffffff811115620002fa57600080fd5b62000308858286016200029e565b925050602083015167ffffffffffffffff8111156200032657600080fd5b62000334858286016200029e565b9150509250929050565b6000604051905081810181811067ffffffffffffffff8211171562000368576200036762000440565b5b8060405250919050565b600067ffffffffffffffff82111562000390576200038f62000440565b5b601f19601f8301169050602081019050919050565b60005b83811015620003c5578082015181840152602081019050620003a8565b83811115620003d5576000848401525b50505050565b60006002820490506001821680620003f457607f821691505b602082108114156200040b576200040a62000411565b5b50919050565b7f4e487b7100000000000000000000000000000000000000000000000000000000600052602260045260246000fd5b7f4e487b7100000000000000000000000000000000000000000000000000000000600052604160045260246000fd5b610b38806200047f6000396000f3fe608060405234801561001057600080fd5b50600436106100885760003560e01c80636352211e1161005b5780636352211e146101155780636a6278421461014557806370a082311461016157806395d89b411461019157610088565b806301ffc9a71461008d57806306fdde03146100bd57806318160ddd146100db57806342966c68146100f9575b600080fd5b6100a760048036038101906100a2919061079d565b6101af565b6040516100b491906108f0565b60405180910390f35b6100c5610219565b6040516100d2919061090b565b60405180910390f35b6100e36102ab565b6040516100f0919061096d565b60405180910390f35b610113600480360381019061010e91906107c6565b6102bc565b005b61012f600480360381019061012a91906107c6565b6103b9565b60405161013c91906108d5565b60405180910390f35b61015f600480360381019061015a9190610774565b61046b565b005b61017b60048036038101906101769190610774565b610564565b604051610188919061096d565b60405180910390f35b610199610623565b6040516101a6919061090b565b60405180910390f35b60007f01ffc9a7000000000000000000000000000000000000000000000000000000007bffffffffffffffffffffffffffffffffffffffffffffffffffffffff1916827bffffffffffffffffffffffffffffffffffffffffffffffffffffffff1916149050919050565b60606000805461022890610a4b565b80601f016020809104026020016040519081016040528092919081815260200182805461025490610a4b565b80156102a15780601f10610276576101008083540402835291602001916102a1565b820191906000526020600020905b81548152906001019060200180831161028457829003601f168201915b5050505050905090565b60006102b760026106b5565b905090565b60006003600083815260200190815260200160002060009054906101000a900473ffffffffffffffffffffffffffffffffffffffff16905061033b600460008373ffffffffffffffffffffffffffffffffffffffff1673ffffffffffffffffffffffffffffffffffffffff1681526020019081526020016000206106c3565b6003600083815260200190815260200160002060006101000a81549073ffffffffffffffffffffffffffffffffffffffff0219169055813373ffffffffffffffffffffffffffffffffffffffff167fec9ab91322523c899ede7830ec9bfc992b5981cdcc27b91162fb23de5791117b60405160405180910390a35050565b6000806003600084815260200190815260200160002060009054906101000a900473ffffffffffffffffffffffffffffffffffffffff169050600073ffffffffffffffffffffffffffffffffffffffff168173ffffffffffffffffffffffffffffffffffffffff161415610462576040517f08c379a00000000000000000000000000000000000000000000000000000000081526004016104599061092d565b60405180910390fd5b80915050919050565b600061047760026106b5565b9050816003600083815260200190815260200160002060006101000a81548173ffffffffffffffffffffffffffffffffffffffff021916908373ffffffffffffffffffffffffffffffffffffffff160217905550610512600460008473ffffffffffffffffffffffffffffffffffffffff1673ffffffffffffffffffffffffffffffffffffffff16815260200190815260200160002061071f565b61051c600261071f565b808273ffffffffffffffffffffffffffffffffffffffff167fe9274a84b19e9428826de6bae8c48329354f8f0e73f771b97cae2d9dccd45a2760405160405180910390a35050565b60008073ffffffffffffffffffffffffffffffffffffffff168273ffffffffffffffffffffffffffffffffffffffff1614156105d5576040517f08c379a00000000000000000000000000000000000000000000000000000000081526004016105cc9061092d565b60405180910390fd5b61061c600460008473ffffffffffffffffffffffffffffffffffffffff1673ffffffffffffffffffffffffffffffffffffffff1681526020019081526020016000206106b5565b9050919050565b60606001805461063290610a4b565b80601f016020809104026020016040519081016040528092919081815260200182805461065e90610a4b565b80156106ab5780601f10610680576101008083540402835291602001916106ab565b820191906000526020600020905b81548152906001019060200180831161068e57829003601f168201915b5050505050905090565b600081600001549050919050565b6000816000015490506000811161070f576040517f08c379a00000000000000000000000000000000000000000000000000000000081526004016107069061094d565b60405180910390fd5b6001810382600001819055505050565b6001816000016000828254019250508190555050565b60008135905061074481610abd565b92915050565b60008135905061075981610ad4565b92915050565b60008135905061076e81610aeb565b92915050565b60006020828403121561078657600080fd5b600061079484828501610735565b91505092915050565b6000602082840312156107af57600080fd5b60006107bd8482850161074a565b91505092915050565b6000602082840312156107d857600080fd5b60006107e68482850161075f565b91505092915050565b6107f8816109a4565b82525050565b610807816109b6565b82525050565b600061081882610988565b6108228185610993565b9350610832818560208601610a18565b61083b81610aac565b840191505092915050565b6000610853602083610993565b91507f6f776e657220717565727920666f72206e6f6e2d65786974737420746f6b656e6000830152602082019050919050565b6000610893601b83610993565b91507f436f756e7465723a2064656372656d656e74206f766572666c6f7700000000006000830152602082019050919050565b6108cf81610a0e565b82525050565b60006020820190506108ea60008301846107ef565b92915050565b600060208201905061090560008301846107fe565b92915050565b60006020820190508181036000830152610925818461080d565b905092915050565b6000602082019050818103600083015261094681610846565b9050919050565b6000602082019050818103600083015261096681610886565b9050919050565b600060208201905061098260008301846108c6565b92915050565b600081519050919050565b600082825260208201905092915050565b60006109af826109ee565b9050919050565b60008115159050919050565b60007fffffffff0000000000000000000000000000000000000000000000000000000082169050919050565b600073ffffffffffffffffffffffffffffffffffffffff82169050919050565b6000819050919050565b60005b83811015610a36578082015181840152602081019050610a1b565b83811115610a45576000848401525b50505050565b60006002820490506001821680610a6357607f821691505b60208210811415610a7757610a76610a7d565b5b50919050565b7f4e487b7100000000000000000000000000000000000000000000000000000000600052602260045260246000fd5b6000601f19601f8301169050919050565b610ac6816109a4565b8114610ad157600080fd5b50565b610add816109c2565b8114610ae857600080fd5b50565b610af481610a0e565b8114610aff57600080fd5b5056fea2646970667358221220439256a5e588cb2849cfbbf9c9f39668ede6780e5ab76208810d166f99ac554764736f6c63430008000033",
  "immutableReferences": {},
  "source": "// SPDX-License-Identifier: CC0-1.0\npragma solidity >=0.8.0;\n\nimport \"./interface/IERC4973.sol\";\nimport \"./ERC721Metadata.sol\";\nimport \"@openzeppelin/contracts/utils/math/SafeMath.sol\";\nimport \"@openzeppelin/contracts/utils/Counters.sol\";\nimport \"@openzeppelin/contracts/utils/introspection/ERC165.sol\";\n\n/**\n * SBT\n * IERC4973\n */\ncontract SBT is IERC4973, ERC165, ERC721Metadata {\n    // uint256SafeMath\n    using SafeMath for uint256;\n    // \n    using Counters for Counters.Counter;\n    // ID\n    Counters.Counter _tokenId;\n    // ID\n    mapping(uint256 => address) private _tokenOwner;\n    // SBT\n    mapping(address => Counters.Counter) private _OwnedTokensCount;\n\n    // Mint\n    event Mint(address to, uint256 tokenId);\n\n    /**\n     * \n     * @param _name \n     * @param _symbol \n     */\n    constructor(string memory _name, string memory _symbol)\n        ERC721Metadata(_name, _symbol)\n    {\n        // \n        supportsInterface(\n            bytes4(\n                keccak256(\"balanceOf(bytea4)\") ^\n                    keccak256(\"townerOf(bytes4)\") ^\n                    keccak256(\"burn(bytes4)\")\n            )\n        );\n    }\n\n    /**\n     * Mint\n     * @param to \n     */\n    function mint(address to) external virtual {\n        // ID\n        uint256 tokenId = _tokenId.current();\n        // \n        _tokenOwner[tokenId] = to;\n        // \n        _OwnedTokensCount[to].increment();\n        _tokenId.increment();\n        // \n        emit Attest(to, tokenId);\n    }\n\n    /**\n     * totalSupply\n     */\n    function totalSupply() external view returns (uint256) {\n        return _tokenId.current();\n    }\n\n    /**\n     * SBT\n     * @param owner \n     */\n    function balanceOf(address owner) external view override returns (uint256) {\n        // \n        require(owner != address(0), \"owner query for non-exitst token\");\n        // \n        return _OwnedTokensCount[owner].current();\n    }\n\n    /**\n     * ID\n     * @param tokenId ID\n     */\n    function ownerOf(uint256 tokenId) external view override returns (address) {\n        // IDowner address\n        address owner = _tokenOwner[tokenId];\n        require(owner != address(0), \"owner query for non-exitst token\");\n        return owner;\n    }\n\n    /**\n     * ID\n     * @param tokenId ID\n     */\n    function burn(uint256 tokenId) external override {\n        // ID\n        address owner = _tokenOwner[tokenId];\n        // \n        _OwnedTokensCount[owner].decrement();\n        // ID\n        delete _tokenOwner[tokenId];\n\n        // \n        emit Revoke(msg.sender, tokenId);\n    }\n}\n",
  "sourcePath": "/Users/harukikondo/git/Web3MedicalDApp/backend/contracts/SBT.sol",
  "compiler": {
    "name": "solc",
    "version": "0.8.0+commit.c7dfd78e.Emscripten.clang"
  },
  "schemaVersion": "3.4.3",
  "updatedAt": "2022-07-04T09:06:43.491Z",
  "networkType": "ethereum",
  "devdoc": {
    "kind": "dev",
    "methods": {
      "balanceOf(address)": {
        "params": {
          "owner": ""
        }
      },
      "burn(uint256)": {
        "params": {
          "tokenId": "ID"
        }
      },
      "constructor": {
        "params": {
          "_name": "",
          "_symbol": ""
        }
      },
      "mint(address)": {
        "params": {
          "to": ""
        }
      },
      "ownerOf(uint256)": {
        "params": {
          "tokenId": "ID"
        }
      },
      "supportsInterface(bytes4)": {
        "details": "See {IERC165-supportsInterface}."
      }
    },
    "version": 1
  },
  "userdoc": {
    "kind": "user",
    "methods": {
      "balanceOf(address)": {
        "notice": "SBT"
      },
      "burn(uint256)": {
        "notice": "ID"
      },
      "constructor": {
        "notice": ""
      },
      "mint(address)": {
        "notice": "Mint"
      },
      "name()": {
        "notice": ""
      },
      "ownerOf(uint256)": {
        "notice": "ID"
      },
      "symbol()": {
        "notice": ""
      },
      "totalSupply()": {
        "notice": "totalSupply"
      }
    },
    "notice": "SBT IERC4973",
    "version": 1
  }
}